:100000000C9479000C94A1000C94A1000C94A10014
:100010000C94A1000C94A1000C94A1000C94A100DC
:100020000C94A1000C94A1000C94A1000C94381520
:100030000C94A1000C94A1000C94A1000C94A100BC
:100040000C94EA160C94A1000C94AC160C94861631
:100050000C94A1000C94A1000C94A1000C94A1009C
:100060000C94A1000C94A10090077307D407110809
:1000700011081108CF093408D508D508D508D508C6
:10008000D508D508860AB607140AF907A40AF8099C
:10009000660A0E0CF20B520C6F0C6F0C6F0C370DC6
:1000A000810C9F0CC90CDF0CF50C0B0D210DBD0C48
:1000B000470D500D950C7C0DAD0C5E0DA919C119A5
:1000C000E619091ACC19DA19351A101B151B1A1B57
:1000D0001F1B241B291B2E1B331B381B3D1B421BC4
:1000E0004D1B000854373F065B4F666D7D077F67E9
:1000F000863111241FBECFEFD8E0DEBFCDBF11E0A7
:10010000A0E0B1E0EAE8F5E602C005900D92A63263
:10011000B107D9F727E0A6E2B1E001C01D92AA3BE2
:10012000B207E1F710E0C9E7D0E004C02197FE0173
:100130000E949D32C837D107C9F70E946E1F0C94E8
:10014000C3320C940000DF92EF92FF920F931F9343
:10015000CF93DF93282FC62F7A0157FF05C0F19464
:10016000E194F108D12C02C0DD24D394C70164E6E8
:1001700070E00E948932AB0130E0D0E0DB01AA518F
:10018000BF4FFD018591949193E0220F331F9A9503
:10019000E1F789010C0F1D1F0C50194FF8018083E6
:1001A0006CE96403F001659FF00D1124EE0EFF1E53
:1001B000C7016AE070E00E948932DB01AA51BF4F9B
:1001C000FD01859194912C50394FC20FD31F898323
:1001D00026EF2603D001279FB00D1124F701EA0F67
:1001E000FB1FEA51FF4F859194918A83D11003C080
:1001F00080E4F8018083DF91CF911F910F91FF90F0
:10020000EF90DF90089520E030E090E070E050E063
:100210002998EBB1EF71EBB9E22FDC01022E02C09D
:10022000B595A7950A94E2F7A0FD5D9ADB010E2E25
:1002300002C0B595A7950A94E2F7A0FD5E9ADA018F
:1002400002C0B595A795EA95E2F7A0FD5F9A299AB5
:100250002F5F3F4F28303105D9F60895289820E0C8
:1002600030E090E02998AC01022E02C055954795E8
:100270000A94E2F740FD03C04BB14F7102C04BB18D
:10028000406E4BB9299A2F5F3F4F2830310551F707
:10029000289A08950F931F93CF93DF9380E40E94D1
:1002A0002E01289840EC60EC80EC0E94030104EFE2
:1002B00016E0C0E0D0E0FE01EC50F94F40896085C7
:1002C000F80181918F010E9403014091700150E07B
:1002D0000C2E02C0559547950A94E2F74170609143
:1002E0006F0170E00C2E02C0759567950A94E2F7D5
:1002F000617080916E0190E00C2E02C095958795FB
:100300000A94E2F781700E9403012196C830D1055A
:1003100091F6289ADF91CF911F910F9108958091C6
:1003200065019091440120E134E0929FB001939FD8
:10033000700D112490E1899F600D711D11246F5D76
:100340007F4FCB01770FAA0BBB0B6627782F892F26
:100350009A2F0E945B1E811104C08091AD070C94FE
:10036000DC0D089520E1DC011D922A95E9F7FC01DE
:10037000709628E0DF011D922A95E9F7389628E16A
:10038000DF011D922A95E9F778962CE0DF011D9296
:100390002A95E9F70895FF920F931F93CF93DF9368
:1003A000C5EBD2E0FF24FA941AEA05E5CE010E94DB
:1003B000B201CE01CC960E94B201CE0188589F4F67
:1003C0000E94B201CE018C549F4F0E94B201FF8661
:1003D000FE01E55BFF4F1083FC960083FC961083C3
:1003E000C051DF4F86E0C537D80701F780E090E0C5
:1003F00048E13EE025E0FC01EB58F94F10A2158ED4
:10040000468F378F21A305968E319105A1F786E19E
:10041000E6E7F6E0DF011D928A95E9F746E050E055
:100420006CE370E08CE896E00E94BC3284E080933C
:10043000750687E28093B006DF91CF911F910F91EF
:10044000FF900895FF920F931F93CF93DF938091B6
:100450004401ECEEF6E092E4908307E3018310E3BD
:100460001283038396E5948392E3F92EF5828683C3
:1004700080E00E94651B88EAE2E0F2E0DF011D9265
:100480008A95E9F786E0EAECF1E0DF01282F1D927A
:100490002A95E9F7E2EBF1E0DF01282F1D922A957A
:1004A000E9F7EEEBF1E0DF01282F1D922A95E9F73D
:1004B0009CE0EDEDF1E0DF011D929A95E9F7E4ECA7
:1004C000F1E0DF01282F1D922A95E9F7E8EBF1E032
:1004D000DF01282F1D922A95E9F710926E011092E4
:1004E0006F011092700110923F0110924001109222
:1004F000410198E1E9E4F1E0DF01292F1D922A95FD
:10050000E9F7E6E2F1E0DF011D929A95E9F7EAEEFC
:10051000F1E0DF011D928A95E9F7C1EBD6E084E2B4
:10052000888388E289838AE28A838CE28B838EE2E5
:100530008C831D8381E38E83FF8283E3888784E33A
:10054000898785E38A8786E38B870C8788E38D8795
:1005500089E38E871F8646E150E069E070E081EC18
:1005600096E00E94BC3218A281E089A392E09AA38F
:1005700093E09BA394E09CA395E09DA31FA618AADB
:1005800019AA1AAA1BA61CA61DA61EA698E799A71B
:1005900097E29BAB1AA690E59EA394E69FA39FE7E4
:1005A00098A798E09CAB1EAA1FAA18AE19AE1AAE67
:1005B0008DAB80916B0190916C0181609160909303
:1005C0006C0180936B01EAEAF2E011821082E2E8AA
:1005D000F1E0DF011D921A95E9F71092E901DF9130
:1005E000CF911F910F91FF900C94CB018EBD000015
:1005F0000DB407FEFDCF8EB50895CF92DF92EF9236
:10060000FF926C016AE070E080E090E00E94BB1B0A
:10061000882321F00E94F31B811108C08091AD074F
:10062000FF90EF90DF90CF900C94DC0DE12CF12C3B
:10063000FE2CED2CDC2CCC2480E20E94921B8E2D13
:100640000E94F6028D2D0E94F60280E00E94F602C2
:100650000E94B31B64EF71E080E090E00E94BB1B3E
:100660008823E1F2FF90EF90DF90CF9008954F92B2
:100670005F926F927F92AF92BF92CF92DF92EF9292
:10068000FF920F931F93CF93DF93B62E7A01A22E82
:1006900020E134E0829F6001839FD00C1124E601A9
:1006A0006096662319F0CE010E94FD022E010D2EE8
:1006B000000C66087708762C652C542C44240BE338
:1006C00010E020E030E0B301A20182E00E94231C90
:1006D000811105C08091AD070E94DC0D06C0C301E9
:1006E000B2010E94C81C8823A9F360968601005EAF
:1006F0001B4F44E1C42ED12CBB2019F0CE010E9427
:10070000FD02CE01A0E0B0E06627782F892F9A2F56
:100710000E94911D811104C08091AD070E94DC0DE3
:10072000BE016F5F7F4FCB01A0E0B0E06627782F5E
:10073000892F9A2F0E945B1E811104C08091AD0702
:100740000E94DC0D6096F701808191810196918372
:100750008083AA2011F0880F04C0B6010E9489325C
:10076000862F0E948B0DC017D10731F6DF91CF91F4
:100770001F910F91FF90EF90DF90CF90BF90AF90BF
:100780007F906F905F904F9008950F931F93CF933A
:10079000DF9392E49093EC0697E39093ED0620E3C9
:1007A0002093EE069093EF0696E59093F00692E381
:1007B0009093F1068093F206662321F080E090E0AA
:1007C0000E94FD0208E010E020E030E040E050E050
:1007D000BA0182E00E94231C882309F464C080913E
:1007E000AC07811102C00E94851B6AE070E080E0C6
:1007F00090E00E94BB1B882309F455C00E94F31BA4
:10080000882309F450C082E00E94F6020E94761B01
:10081000CCEED6E08E01F6E0043F1F0731F0F80180
:1008200081918F010E94F602F6CF8091B6079091D8
:10083000B707A091B807B091B9070896A11DB11DDF
:100840008093B6079093B707A093B807B093B90702
:1008500008E010E020E030E040E050E0BA0183E042
:100860000E94231C811108C06AE070E080E090E0E3
:100870000E94BB1B8823B9F083E00E94921B199150
:1008800080E00E94F602181721F08BE08093AD07FC
:100890000AC086E0C43FD80791F7DF91CF911F913E
:1008A0000F910C94B31B8091AD07DF91CF911F91F5
:1008B0000F910C94DC0D882399F020916501309103
:1008C000440140E154E0349FC001359F900D112454
:1008D00030E1239F800D911D112480960E94FD021E
:1008E000809165019091440120E134E0929FB00134
:1008F000939F700D112490E1899F600D711D11244B
:10090000605E7F4FCB01770FAA0BBB0B6627782F5A
:10091000892F9A2F0E94911D811104C08091AD07EB
:100920000C94DC0D0895CF92DF92EF92FF920F931B
:100930001F93882361F04091440120E134E0429FFD
:10094000C001439F900D112440960E94FD0220910A
:10095000440180E194E0289F6001299FD00C11247C
:1009600080E1C80ED11C0D2C000CEE08FF08FE2CF7
:10097000ED2CDC2CCC240BE310E020E030E0B701C0
:10098000A60182E00E94231C81110AC08091AD075C
:100990001F910F91FF90EF90DF90CF900C94DC0DA2
:1009A000C701B6010E94C81C882381F31F910F91D3
:1009B000FF90EF90DF90CF900895809147018823BA
:1009C00059F0109247018091EB06811103C081E03C
:1009D0000E945B040E948F0180914801882349F0A6
:1009E000109248018091EB06811103C081E00E94C2
:1009F000930480918001882359F0109280018091A6
:100A0000EB06811105C061E0809144010C94C5039F
:100A10000895AF92BF92DF92EF92FF920F931F93D0
:100A2000CF93DF931F92CDB7DEB7D82E69830E9494
:100A3000DD048091B4026981882319F0662309F4EA
:100A400099C081E080933E01E0900101F0900201A5
:100A500020E1E20EF11CAD2CB12C80E1D89EE00C1F
:100A6000F11C1124F0927E01E0927D01A70160E06B
:100A700070E0762F652F542F44270CE310E020E020
:100A800030E083E00E94231C882309F479C083E0CE
:100A90000E94921B05E716E080E00E94F602F80132
:100AA00081938F01F6E0013B1F07B1F70E94B31B52
:100AB000A7014F5F5F4F50937E0140937D0160E03F
:100AC00070E0762F652F542F442700EC13E020E0D0
:100AD00030E083E00E94231C882309F456C083E0A1
:100AE0000E94921B05EB12E080E00E94F602F801E2
:100AF00081938F01F6E005371F07B1F70E94B31B02
:100B0000D0926501D694D694D69428E0D29EA018AF
:100B1000B108112488E0A80EB11C41E050E060E06B
:100B200070E0DB01CA0104C0880F991FAA1FBB1F18
:100B3000AA94D2F704C0440F551F661F771FDA949A
:100B4000D2F7482B592B50936C0140936B0181E0F5
:100B50004091E0065091E1066091E2067091E30653
:100B6000452B462B472B09F480E0809361011092BE
:100B70003E0110C081E08093640180933E010AC071
:100B80008091AD070E94DC0D93CF8091AD070E944C
:100B9000DC0DB6CF0F90DF91CF911F910F91FF9099
:100BA000EF90DF90BF90AF90089590916501181677
:100BB00064F49F3310F481E00BC0809144018C31C8
:100BC000A8F4109266018F5F0FC0992329F08FEF70
:100BD000890F809366010AC080914401882331F017
:100BE0002FE3209366018150809344018091660138
:100BF000981719F060E00C94090508950F931F935E
:100C0000CF93DF93109265018093440140E154E05B
:100C1000849F9001859F300D1124C90140969093C7
:100C200002018093010160E080E00E94090540918B
:100C300001015091020160E070E0762F652F542F82
:100C400044270BE310E020E030E083E00E94231C07
:100C5000882399F083E00E94921BC1EBD6E080E0EC
:100C60000E94F602899386E0CC3ED807C1F7DF9157
:100C7000CF911F910F910C94B31B8091AD07DF9121
:100C8000CF911F910F910C94DC0D0F931F93CF9375
:100C9000DF9300D0CDB7DEB7082F10927F018FB75A
:100CA000F89490917C01911106C09CB590619CBD17
:100CB0009CB590649CBD90917C019F5F90937C015A
:100CC0008FBF80E58093A90781E08093AA076AE03F
:100CD00070E080E090E00E94BB1B882381F08AE5F1
:100CE0000E94921B1092B6071092B7071092B80795
:100CF0001092B9070E94761B8EEE0E94F6026AE0FF
:100D000070E080E090E00E94BB1B882361F08FE9D7
:100D10000E94921B80E00E94F6028093B10782E05D
:100D20008093AD0703C08FE70E94DC0D88E790E059
:100D30000E94AB0B60E070E0CB010E948A1C811125
:100D400004C08091AD070E94DC0D1091F2068091E5
:100D5000EC068234A1F48091ED06873381F4809112
:100D6000EE06803361F48091EF06873341F4809181
:100D7000F006863521F48091F106823319F083E67E
:100D80000E94DC0D011102C0812F96C080E00E94FC
:100D9000A0188FEF0E948B0D80ED97E00E94AB0BA7
:100DA0000E94AF1C11E018271A82198200E020E08F
:100DB000AE014F5F5F4F612F802F0E9437030F5F9F
:100DC0000C31A9F7112321F080EE91E70E94FD027A
:100DD00060E070EE81E790E00E94911D811104C0F7
:100DE0008091AD070E94DC0D60E071EE81E790E03C
:100DF0000E945B1E811104C08091AD070E94DC0D32
:100E0000112321F080ED91E70E94FD0260E070ED7A
:100E100081E790E00E94911D811104C08091AD078F
:100E20000E94DC0D60E071ED81E790E00E945B1EA6
:100E3000811104C08091AD070E94DC0D8FEF0E94EC
:100E40008B0D612F80E00E94C50360E070E0CB0154
:100E50000E948A1C811104C08091AD070E94DC0DA4
:100E60008091EC068234A1F48091ED06873381F401
:100E70008091EE06803361F48091EF06873341F470
:100E80008091F006863521F48091F106823319F0C5
:100E900082E60E94DC0D80917F01882349F061E0A9
:100EA0000E94AD0D80EA9FE00E94AB0B10927F0183
:100EB00080E00E94B41880E00E94FE050F900F9021
:100EC000DF91CF911F910F910895CF9380916D0184
:100ED000482F50E04531510508F062C3FA01EC5C3F
:100EE000FF4F0C949D3287E38093FC068093FD06B0
:100EF00080E38093FE069EE59093FF0680930007B3
:100F000089E38093020786E780930307E0916A01F3
:100F1000EF3009F40DC2F0E0EF54F94F4089EEC212
:100F200087E58093FC0699E79093FD0699E39093FB
:100F3000FE069FE39093FF06809300078EE5809363
:100F400001078091E7069091E806A091E906B0912B
:100F5000EA0600906A0104C0B695A7959795879513
:100F60000A94D2F780FF1BC08FE357C08DE68093B1
:100F7000FC0684E68093FD0687E38093FE0689E302
:100F80008093FF068FE3809301078EE3809302072F
:100F900081E3809303078091DB068111E5CF8FE326
:100FA0008093090781E7F8C287E38093FC068FE30B
:100FB0008093FD0681E38093FE0689E78093FF0618
:100FC000E0916A01EF3008F0B3C1F0E0EF54F94F5F
:100FD000408150E060E082E00E94A300E0916A015D
:100FE000F0E0EF54F94F47E064E08081CF910C943A
:100FF000F41A83E78093FC0687E58093FD068FE370
:101000008093FE0691E39093FF0629E72093000763
:1010100029E3209301079093020780930A0787E34F
:10102000BDC297E79093FC0699E39093FD069093D9
:10103000FE0699E79093FF0697E39093000791E3EC
:10104000909301079EE39093040790E0FC01EC511C
:10105000FF4F2591349120930507FC01EF54F94F80
:1010600043A150E064E04EC283E78093FC0637E57D
:101070003093FD069FE39093FE0689E38093FF067D
:1010800029E7209300078DE68093010780930207EC
:1010900030930307E0916A01EF3009F449C1F0E0B1
:1010A000EB58F94F8181813081F481E78093040707
:1010B00087E7809305078EE580930607209307074F
:1010C00080E38093090787E33CC2823061F481E7C3
:1010D0008093040787E7809305078EE580930607D2
:1010E0002093070736C0853081F481E78093040799
:1010F00087E7809305078EE580930607209307070F
:1011000090E39093090797E313C08630A1F481E739
:101110008093040787E7809305078EE58093060791
:1011200020930707909308079EE39093090791E3A4
:1011300090930A0733C2833099F481E780930407C0
:101140008EE58093050780E38093070787E380930C
:101150000807909309078EE380930A0781E31EC274
:10116000843081F481E7809304078EE5809305073E
:10117000909307078EE38093080781E38093090724
:1011800080E34BCF873009F0D3C03093040787E763
:101190008093050787E3809306072EE520930707D2
:1011A0009093080780930907CCC199E79093FC06B8
:1011B00039E33093FD0626E72093FE062FE32093C4
:1011C000FF0641E74093010744E440930207E091A2
:1011D0008101883011F44E2F91C1893049F581E3A6
:1011E0008093040787E58093050787E780930607C8
:1011F0003093070785E0E89FF0011124EB58F94F81
:10120000858D882309F494C0482F50E0813130F453
:1012100065E082E00E94A3008EE507C040515109BD
:1012200065E082E00E94A30087E380930907B8C1CC
:101230008A30B9F481E38093040780E38093050743
:10124000309306078DE68093070785E0E89FF0015D
:101250001124EB58F94F858D882309F469C0468D18
:1012600017C08B30B9F48DE68093040793E7909311
:101270000507809306073093070785E0E89FF00194
:101280001124EB58F94F858D882309F451C0478DFF
:1012900050E037C18C30C1F585E0E89FF0011124A2
:1012A000EB58F94F41A114168CF487E7809304079B
:1012B00091E3909305079093060780930707858D28
:1012C0008823B1F1042E000C550B1BC1442391F06F
:1012D0008EE580930407909305073093060784E614
:1012E00080930707858D882319F1552741950CF4C4
:1012F000509507C187E78093040780E48093050732
:101300009EE59093060748C185E0E89FF00111240F
:10131000EB58F94F858D81110DC081E3809304074F
:1013200084E68093050783E7809306079093070779
:1013300080E432C180A1811109C087E7809304074E
:1013400088E380930507809306071EC0813071F4FF
:1013500081E3809304072093050733E73093060762
:1013600037E3309308072093090714C0823009F04F
:1013700017C188E380930407209305078CE38093CB
:1013800006078EE18093070787E380930807209381
:10139000090781E380930A0790930B0701C183E754
:1013A0008093FC0687E78093FD0691E39093FE0609
:1013B0009EE3909300078093010797E590930207BF
:1013C0009DE690930307809308078091750682300D
:1013D00008F4E6C09CE790930907823009F4E0C066
:1013E00099E390930A07833009F4DAC08EE5D6C0FA
:1013F00087E38093FC068093FD0680E38093FE06DE
:101400009EE59093FF068093000783E78093020791
:1014100081E38093030789E38093040786E7809341
:1014200005074091E5066AC08DE68093FC0694E6C8
:101430009093FD068093FE0689E78093FF06C4E43F
:10144000C0930007409103014E3F11F480E406C0B1
:101450004F3F49F487E78093010788E380930207B1
:10146000809303070BC0042E000C550B4F5F5F4F9A
:1014700065E081E00E94A300C093000780914601CF
:1014800081110FC08EE5809304078EE380930507DA
:1014900087E3809306078093070783E78093080715
:1014A0007FC0813009F07CC087E58093040789E71D
:1014B0008093050799E3909306078093070790E3CD
:1014C000909308079EE3909309073BC083E78093BE
:1014D000FC0687E78093FD0691E39093FE069093C8
:1014E000FF069CE7909300078093010787E38093B2
:1014F000020786E7809303074091440150E04F5F65
:101500005F4F65E082E0CF910C94A30089E3809364
:10151000FC0698E39093FD068093FE0686E7809391
:10152000FF068091E606882329F080E38093080770
:1015300087E304C089E78093080784E48093090760
:1015400081E380930A072CC090E39093FC0687E325
:101550008093FD069093FE0691E39093FF06909191
:101560004501911109C0809308079FE390930907F3
:1015700080930A0789E712C0913051F49CE7909359
:10158000080797E79093090780930A0789E306C045
:1015900087E78093090788E380930A0780930B0706
:1015A000CF910895262F30E090E050E0603160F454
:1015B0006CE3689FF001699FF00D11242E0F3F1F0F
:1015C000F901EB54FD4F0CC06EE1689FF001699F7B
:1015D000F00D1124E20FF31FEE0FFF1FEB53FD4F31
:1015E000808190E0440F551F9A012F5F3F4FBC014F
:1015F00002C0759567952A95E2F79B012170220F2D
:1016000002C0959587954A95E2F78170822B809369
:1016100062010895CF92DF92EF92FF920F931F9392
:101620006091690170E0660F771F01E010E020E033
:1016300030E068017901062E04C0CC0CDD1CEE1CE4
:10164000FF1C0A94D2F79C2D90956F5F7F4F04C0CA
:10165000000F111F221F331F6A95D2F700952EE14C
:10166000829FF0011124E40FF11DDF01AA0FBB1FBF
:10167000AB51BD4F8C91892380238C93EE0FFF1FBC
:10168000EB54FD4F81A99823092301AB1F910F91C2
:10169000FF90EF90DF90CF900895CF93DF939091DC
:1016A0000601992309F454C0E62FF0E0DF013FE082
:1016B000839FA00DB11D1124ED01CC0FDD1FCC0FB8
:1016C000DD1FC353DD4F9881AA0FBB1FAA0FBB1F9D
:1016D000AB54BD4F59969C93599798815A969C93B9
:1016E0005A9798815B969C939EE1899FE00DF11D2E
:1016F0001124DF01AA0FBB1FAB51BD4F2C91822FCC
:10170000837094E0899F90011124282B30E12302FB
:10171000C0011124822B90E4899F90011124822B17
:101720008C93EE0FFF1FEB54FD4F21A9822F837086
:1017300094E0899F90011124282B30E12302C001FD
:101740001124822B90E4899F90011124822B81AB7C
:10175000DF91CF91089520E030E0281739074CF44D
:1017600048EE53E0000041505109E1F72F5F3F4F31
:10177000F4CF0895EEE6F1E012821182108281E04A
:101780000E94651BE4EFF6E08DE6848791E3958780
:101790009FE3968723E72787808B89E7818B928B4E
:1017A0009EE3938B848B87E3858B89E3868B87E528
:1017B000878B0E944A0180ED97E00E94AB0B81E08D
:1017C00080930D010895CF9390916D01492F50E0C2
:1017D0004531510508F09DC1C82F475B5F4FFA01A5
:1017E0000C949D32181654F4E0916A01F0E0EF5425
:1017F000F94F80898F3070F48F5F0BC0882351F0D0
:10180000E0916A01F0E0EF54F94F8089882311F0EC
:101810008150808B81E0809348017BC11816D4F4FD
:1018200081E090E0A0E0B0E000906A0104C0880F81
:10183000991FAA1FBB1F0A94D2F74091E706509147
:10184000E8066091E9067091EA06842B952BA62B99
:10185000B72B1FC08823F1F281E090E0A0E0B0E058
:1018600000906A0104C0880F991FAA1FBB1F0A9429
:10187000D2F780959095A095B0954091E70650914C
:10188000E8066091E9067091EA0684239523A62371
:10189000B7238093E7069093E806A093E906B093F8
:1018A000EA06B8CFE0916A01E03108F032C11816BB
:1018B0004CF4F0E0EF54F94F80818F3708F0AACF55
:1018C0008F5F0BC0882309F4A5CFF0E0EF54F94FE8
:1018D0008081882309F49ECF815080839BCFE92F9C
:1018E000F0E0E255F94F86A11C162CF48F3708F072
:1018F00091CF8F5F04C0882309F48CCF815086A3D9
:1019000089CFE0916A01F0E0EB58F94F81811C1614
:1019100024F4873030F48F5F03C0882311F08150A6
:10192000818381E080934701F4C09091EB0681E0D0
:1019300089278093EB0681E0CF910C9493048091EA
:1019400081011C1624F4853060F78F5F03C0882363
:1019500041F3815080938101E4CF8091E5061C160C
:101960002CF48F3008F056CF8F5F04C0882309F421
:1019700051CF81508093E5064DCF8091E606C1E0BE
:10198000982F9C279093E6060E94D118C093480197
:10199000C0C0E091810185E0E89FF0011124EB587F
:1019A000F94F858D1C162CF4863108F0BACF8F5F65
:1019B00004C0882309F4B5CF8150858FB2CFE09160
:1019C000810185E0E89FF0011124EB58F94F868DE5
:1019D0001C162CF48F3708F0A4CF8F5F04C0882327
:1019E00009F49FCF8150868F9CCFE091810185E0E3
:1019F000E89FF0011124EB58F94F878D1C162CF449
:101A00008F3708F08ECF8F5F04C0882309F489CF09
:101A10008150878F86CFE091810185E0E89FF001BA
:101A20001124EB58F94F81A11C162CF48F3709F4BF
:101A300078CF8F5F04C082380CF473CF815081A3BC
:101A400070CFE091810185E0E89FF0011124EB580F
:101A5000F94F80A11C162CF4823008F062CF8F5F02
:101A600004C0882309F45DCF815080A35ACF8091B0
:101A700075061C162CF4843008F053CF8F5F04C019
:101A8000823008F44ECF8150809375064ACF809102
:101A9000DB0691E089278093DB069093480139C0EB
:101AA000809103011C1624F48B319CF58F5F03C0D9
:101AB0008F3F7CF18150809303012BC08091B40251
:101AC000882319F0CF910C94BA0B0E94DD04809109
:101AD00044011C1624F48B3138F48F5F03C0882333
:101AE00019F0815080934401809144010E94FE05C9
:101AF00081E0809380010DC0809145011C1624F483
:101B0000823038F48F5F03C0882319F081508093AE
:101B10004501CF91089598E1E4EFF6E0DF011D92D1
:101B20009A95E9F79CE3909304079EE1909305074B
:101B300097E79093060790E39093070791E39093BC
:101B4000080787FD08C0482F042E000C550B65E0E0
:101B500082E00E94A3000C944A01CF93C62F98E123
:101B6000E4EFF6E0DF011D929A95E9F799E790938B
:101B7000040794E590930507909306072CE52093BE
:101B8000070790930807482F50E065E082E00E9425
:101B9000A300CC2319F08DE6809309070E944A0127
:101BA00080917F018F3F19F08F5F80937F0180EDDF
:101BB00097E0CF910C94AB0B60E00C94AD0DBF920D
:101BC000CF92DF92EF92FF920F931F93CF93DF9309
:101BD0009091AE023091070137FF932F509106018B
:101BE000511190E0C22FD0E0FE01EF54F94F2031A7
:101BF00008F044C020892413C4C020812813C1C028
:101C0000662309F4BEC08091B2022CE3829FC00D0E
:101C1000D11D1124CB54DD4F388181E080934701E1
:101C2000511129C0692F70E0660F771F81E090E0A5
:101C3000A0E0B0E06C017D01062E04C0CC0CDD1CE0
:101C4000EE1CFF1C0A94D2F7C0942C2D2323AB0169
:101C50004F5F5F4F04C0880F991FAA1FBB1F4A9593
:101C6000D2F78095822321E030E001C0220F6A95EF
:101C7000EAF7822B01C085E5888383C0308934135D
:101C800080C0082FE92EF12C60976623A9F110EF90
:101C9000120F412F692F8091B2020E940A0BFE01A0
:101CA000EB58F94F078B83E0809304018091B202D7
:101CB000FE01EE0FFF1FEE0FFF1F9CE3899FE00D5B
:101CC000F11D1124EB54FD4FEE0DFF1D008F2EE191
:101CD000829FC00DD11D1124CC0FDD1FCB51DD4FD4
:101CE000EE0CFF1C23E030E001C0220FEA94EAF77B
:101CF0009881292B28833FC08091B2026E01CC0CC1
:101D0000DD1CCC0CDD1C4CE3B42EF601B89EE00DBE
:101D1000F11D1124EB54FD4FEE0DFF1D308D3111DF
:101D200030C010EF120F412F692F0E940A0BFE01E5
:101D3000EB58F94F078B8091B202F601B89EE00D87
:101D4000F11D1124EB54FD4FEE0DFF1D008F9EE1A0
:101D5000899FC00DD11D1124CC0FDD1FCB54DD4F49
:101D6000EE0CFF1C23E030E001C0220FEA94EAF7FA
:101D700099A9292B29AB612F0E944D0B81E08093FB
:101D80004701DF91CF911F910F91FF90EF90DF906E
:101D9000CF90BF9008952F923F924F925F926F9293
:101DA0007F928F929F92AF92BF92CF92DF92EF92EB
:101DB000FF920F931F93CF93DF9300D000D0CDB746
:101DC000DEB7812C912C54018394809101028823E9
:101DD00009F4B4C48091B402882309F432C40EED2E
:101DE00011E0FEEBCF2EF1E0DF2EA4ECEA2EA1E015
:101DF000FA2EBDED6B2EB1E07B2E1C821B82D3012F
:101E00008C918823F1F1F8018081815080838111C8
:101E100038C08C9181508C93882399F1EB81FC819F
:101E2000E653FE4F8081D8018C93D601EC91F0E00F
:101E3000EB58F94FD7016C9180810E949419482F7B
:101E4000EB81FC81E854FE4F6081F60180810E94A5
:101E50007719D7012C91EB81FC81EE54FE4F8081E4
:101E6000082E000C990B820F911D97FD06C080383B
:101E700091052CF08FE790E002C080E090E0F70140
:101E800080832B813C812F5F3F4F3C832B8332E04B
:101E9000630E711C4FEFE41AF40A0E5F1F4F5FEFE1
:101EA000C51AD50A2B813C812630310509F0A7CF10
:101EB00080916101882309F45CC0C0900901D09031
:101EC0000A01E0900B01F0900C018091E0069091E6
:101ED000E106A091E206B091E306C816D906EA062B
:101EE000FB0609F4A1C000E010E0802F4091E0065D
:101EF0005091E1066091E2067091E306002E04C065
:101F000076956795579547950A94D2F7260137013C
:101F1000002E04C076946794579447940A94D2F79D
:101F2000442655266626772640FE0DC040FD0BC090
:101F30000630110520F086500E94611804C060E050
:101F4000802F0E94E6180F5F1F4F0731110569F6B9
:101F50008091E0069091E106A091E206B091E3063F
:101F60008093090190930A01A0930B01B0930C0197
:101F70005BC0C090D401D090D501E090D601F09024
:101F8000D7018091DC069091DD06A091DE06B0912C
:101F9000DF06C816D906EA06FB0609F445C000E0CC
:101FA00010E0802F4091DC065091DD066091DE0646
:101FB0007091DF06002E04C076956795579547957A
:101FC0000A94D2F726013701002E04C07694679454
:101FD000579447940A94D2F74426552666267726C6
:101FE00040FE0DC040FF0BC00630110520F08650AA
:101FF0000E94611804C060E0802F0E94E6180F5F05
:102000001F4F0731110569F68091DC069091DD06BE
:10201000A091DE06B091DF068093D4019093D501A4
:10202000A093D601B093D7018091B002882319F014
:10203000833009F006C38091AC028F5F803118F4C1
:102040008093AC0202C01092AC02E091B2023CE379
:10205000E39FF0011124EB54FD4F878590E0209120
:10206000AE0230E0220F331FA9014F5F5F4FBC016A
:1020700002C0759567954A95E2F7AB014170342E21
:10208000330C02C0959587952A95E2F78170382A1E
:1020900001EB16E07CE3572EEEE16E2EDB807AEF4B
:1020A000D70E80916101882399F08091E00690918C
:1020B000E106A091E206B091E3060B8004C0B6955C
:1020C000A795979587950A94D2F780FD13C0E5C030
:1020D0008091DC069091DD06A091DE06B091DF06CE
:1020E0000B8004C0B695A795979587950A94D2F76B
:1020F00080FDD3C0E091B202EB80FC8086E0E81A5C
:10210000F108D7015E9EA00DB11D1124AB54BD4F47
:102110002C9130E08091AE0290E0BC01660F771FF9
:10212000AB014F5F5F4FD90102C0B595A7954A95A6
:10213000E2F7AD014170440F02C0359527956A95CD
:10214000E2F72170742F722B9C016E9E200D311DC1
:102150001124F901EE0FFF1FEB53FD4F8081918198
:102160000E2C02C0969587950A94E2F78170992704
:102170002091B002772311F0222331F0233009F0AF
:102180008CC0009709F489C0713011F0E72F01C0AD
:10219000E32DE11104C0892B11F0E09108018FEFCC
:1021A0008E0F833008F0E1E0E0930801F0E0EF5497
:1021B000F94F75A0E6E9F6E02DED31E044EC51E091
:1021C0005A834983672D80E090E0AF014450510964
:1021D000DA01CC904C2D50E0415051094E155F056D
:1021E00009F040C0AF0141505109DA014C9144233C
:1021F00049F0413019F47330A9F504C0423091F52B
:10220000723081F5AF0143505109DA014C91D90187
:102210004C93AF0142505109DA014C90D90111960B
:102220004C926081AC014E545E4FDA016C93AC016C
:1022300046535E4FDA014C92AC0142545E4FDA01D4
:10224000CC92D801CC90AC0148545E4FDA01CC92CC
:10225000A981BA81161614F46C9301C07C92A981ED
:10226000BA816C91019649815A814F5F5F4F5A83C1
:1022700049832E5F3F4F35968630910509F0A5CFF3
:10228000EB81FC81E059F94F80810E949419482F1D
:10229000D8016C918D2D0E9477192B813C812F5F85
:1022A0003F4F3C832B830F5F1F4F2531310509F0D2
:1022B000F5CEBAEEEB2EB1E0FB2E11EDC12E16E0FD
:1022C000D12E1A8219820EE1502E8CE3682E809155
:1022D0006101882399F08091E0069091E106A09138
:1022E000E206B091E306098004C0B695A7959795DC
:1022F00087950A94D2F780FD13C01BC18091DC063C
:102300009091DD06A091DE06B091DF06098004C041
:10231000B695A795979587950A94D2F780FD09C140
:102320009091B202E981FA81599EE00DF11D1124CC
:10233000DF01AA0FBB1FAB51BD4F8C912091AE02A4
:10234000EE0FFF1FEB54FD4F41A930E0E981FA8108
:10235000EE0FFF1FEE0FFF1F699EE00DF11D112410
:10236000EB54FD4FE20FF31F108D112309F4E1C070
:1023700090E0220F331FF901319650E0BA010E2E82
:1023800002C0759567950A94E2F76170660F022E98
:1023900002C0559547950A94E2F74170762F742B49
:1023A000AC0102C055954795EA95E2F74170440F9C
:1023B00002C0959587952A95E2F78170842B9091BC
:1023C000B002882311F0992339F0933009F0B1C09D
:1023D000723009F0AEC013C0733089F401E0D60149
:1023E0002C9140E0612F80E80E941718E981FA8162
:1023F000E651FE4F808918139CC0108A9AC0E72FBF
:10240000072E000CFF0BEF54F94F75A0E6E9F6E03C
:102410004DED51E084EC282E81E0382E672D80E0D0
:1024200090E09F0124503109D9010C91202F30E018
:1024300021513109A981BA812A173B07B9F59F01BA
:1024400021503109D9012C91222321F0223071F53C
:10245000723061F59F0123503109D9012C91DA01C5
:102460002C939F0122503109D9014C90DA01119629
:102470004C9260819C012E543E4FD9016C939C017B
:1024800026533E4FD9014C929C0122543E4FD90114
:102490000C939C0128543E4FD9011C93D101161670
:1024A00014F46C9301C07C92D1016C910196BFEF42
:1024B0002B1A3B0A4E5F5F4F35968630910509F027
:1024C000B0CF77247394713009F0712CE981FA81CF
:1024D000EB58F94F81890E949419482E711004C05D
:1024E000F7018081811104C0D7018C91811309C04B
:1024F00001E0F601208140E0D7016C9180E80E9464
:10250000171801E0F6012081442D612F80E90E9417
:102510001718772061F0D7016C91662341F061179D
:1025200031F0F601208140E080E80E941718D701C1
:102530001C93E981FA813196FA83E983FFEFEF1A60
:10254000FF0A2FEFC21AD20A49815A81453051053C
:1025500009F0BDCE80916801882309F456C08091AE
:10256000B002811152C0512C8091E901581608F037
:102570004AC08091E7069091E806A091E906B091E3
:10258000EA06892B8A2B8B2B61F4E52DF0E0EE57C0
:10259000FE4F20916A0140A1608980810E94DF0D79
:1025A00030C000E010E0852D90E0BC016E577E4FFA
:1025B0003B017B0170E2E70EF11C630180E1C80E74
:1025C000D11C8091E7069091E806A091E906B091B0
:1025D000EA06002E04C0B695A795979587950A94AC
:1025E000D2F780FF09C0202FD7014C91F6016081FE
:1025F000D3018C910E94DF0D0F5F1F4F0631110533
:1026000001F75394B1CF1092E901809164018823BE
:10261000C1F08091B0028330A1F48091B20290E0C9
:102620000F977CF08091AE0290E0019620910E0110
:1026300030E0821793072CF01092640181E08093C0
:1026400063018091B0028F5F863018F48093B002EE
:102650006FC01092B0028091B2028F5F8093B2027D
:102660001092DC01843041F018F4882329F008C06E
:10267000883011F08C3021F481E08093DC0126C099
:10268000803120F11092B20281E08093DC018091D0
:10269000B4028823D9F08091AE028F5F8093AE029E
:1026A00090910E01891790F01092AE028091630113
:1026B00081110E94341780916301882319F083E609
:1026C0000E94DC0D8091750680930E018091B4020A
:1026D000882361F180917101823041F11092DB0118
:1026E0001092DA011092D9011092D8018091B202B1
:1026F000883070F4A501940104C0220F331F441FD9
:10270000551F8A95D2F73093D9012093D8010EC076
:102710008850B501A40104C0440F551F661F771FE0
:102720008A95D2F75093DB014093DA010E94A71AF1
:102730008091010281508093010247CB0F900F904E
:102740000F900F90DF91CF911F910F91FF90EF901D
:10275000DF90CF90BF90AF909F908F907F906F90C1
:102760005F904F903F902F900895BF92CF92DF924D
:10277000EF92FF920F931F93CF93DF93C0E0D0E0CF
:1027800084E5B82EEC2EF12CBD9E80011124C801E9
:102790008E0D9F1D9C012E5F3D4F6901F9016081E7
:1027A0006623B1F08CE097E00E9411160E5F1D4F7A
:1027B0000E0D1F1DF801648D8CE097E00E9411162C
:1027C000F80160AD8CE097E00E941116F6011082CE
:1027D000D11102C0D1E0D6CFCF5FCC3170F4EC2F55
:1027E000F0E0EE5FFD4F8081882311F0D0E0CACF8A
:1027F000EC5AFF4F80818111F9CF1092AB021092F9
:10280000AA02DF91CF911F910F91FF90EF90DF907F
:10281000CF90BF90089580910102882319F00E9403
:10282000CB0EF9CF0C94B5131F93CF93DF938CE0AD
:1028300097E00E94DA15181619060CF015C1809160
:10284000D301882351F08CE097E00E94B815873FB0
:1028500009F00AC11092D30107C18091D201811100
:1028600068C08CE097E00E94B815883FB1F4809171
:10287000E6068111F9C08091DB06882321F088EFFC
:1028800090E00E94EF1A0E948C1A0E940B14809113
:1028900001028F5F80930102E7C08A3F89F4809133
:1028A000E6068111E1C08091DB06882321F08AEFE2
:1028B00090E00E94EF1ADF91CF911F910C94251F99
:1028C0008C3F89F48091E6068111CEC08091DB06B1
:1028D000882321F08CEF90E00E94EF1ADF91CF91D6
:1028E0001F910C944C198B3F81F48091E606811165
:1028F000BBC08091DB06882309F4B6C08AEF90E064
:10290000DF91CF911F910C94EF1A803F21F481E069
:102910008093D301A9C092E0980F923008F4A4C02C
:10292000863F09F4A1C091E09093D2018093D00139
:102930009BC08130D1F48CE097E00E94B815809361
:10294000D1018091D001807F803941F018F4803826
:1029500049F404C0803A11F0803B21F482E0809376
:10296000D20182C01092D2017FC0823009F07CC0B7
:102970008CE097E00E94B815182F1092D201609158
:10298000D001D62FDF70862F807F803819F08039F4
:1029900059F16AC0809168018823A1F08091B40246
:1029A000882381F08091D1019091E901903150F418
:1029B000E92FF0E0EE57FE4F8083108AD0A39F5F8F
:1029C0009093E9018CE097E00E9411166091D1018B
:1029D0008CE097E00E941116612F8CE097E0DF9168
:1029E000CF911F910C941116809168018823A1F05A
:1029F0008091B402882381F08091D1019091E90106
:102A0000903150F4E92FF0E0EE57FE4F8083108BA9
:102A1000D0A39F5F9093E9018CE097E00E9411168C
:102A2000C091D1016C2F8CE097E00E941116612FAC
:102A30008CE097E00E94111680916801811114C00A
:102A40008091E506D81310C088EE8C0F813460F4B5
:102A50008093660190916501981731F060E0DF91F5
:102A6000CF911F910C940905DF91CF911F9108958B
:102A70001F920F920FB60F9211242F933F934F93F3
:102A80005F936F937F938F939F93AF93BF93EF93D6
:102A9000FF938091E606882391F08091DB068823DE
:102AA00021F088EF90E00E94EF1A0E948C1A0E9499
:102AB0000B14809101028F5F8093010202C00E947B
:102AC0001414FF91EF91BF91AF919F918F917F91DE
:102AD0006F915F914F913F912F910F900FBE0F908B
:102AE0001F901895809171018450823010F41092DB
:102AF00071010895CF92DF92EF92FF920F931F938F
:102B0000CF93DF936C017A018B01C0E0D0E0CE154A
:102B1000DF0589F0D8016D918D01D601ED91FC9111
:102B20000190F081E02DC6010995892B11F47E01F9
:102B300002C02196ECCFC701DF91CF911F910F9179
:102B4000FF90EF90DF90CF900895089580E090E09F
:102B50000895FC01538D448D252F30E0842F90E0A3
:102B6000821B930B541710F0CF9608950197089588
:102B7000FC01918D828D981761F0828DDF01A80F85
:102B8000B11D5D968C91928D9F5F9F73928F90E0A7
:102B900008958FEF9FEF0895FC01918D828D981716
:102BA00031F0828DE80FF11D858D90E008958FEF53
:102BB0009FEF0895FC01918D228D892F90E0805C1C
:102BC0009F4F821B91098F73992708958CE097E09E
:102BD0000E94DA1521E0892B09F420E0822F089564
:102BE000FC01848DDF01A80FB11DA35ABF4F2C91AA
:102BF000848D90E001968F739927848FA689B78979
:102C00002C93A089B1898C9180648C93938D848D51
:102C1000981306C00288F389E02D80818F7D808320
:102C20000895EF92FF920F931F93CF93DF93EC01E0
:102C300081E0888F9B8D8C8D981305C0E889F98978
:102C4000808185FD24C0F62E0B8D10E00F5F1F4F95
:102C50000F731127E02E8C8DE8120CC00FB607FC05
:102C6000FACFE889F989808185FFF5CFCE010E94EE
:102C7000F015F1CF8B8DFE01E80FF11DE35AFF4FE8
:102C8000F0820B8FEA89FB898081806207C0EE8920
:102C9000FF896083E889F98980818064808381E08D
:102CA00090E0DF91CF911F910F91FF90EF900895E9
:102CB000CF93DF93EC01888D8823C9F0EA89FB89E3
:102CC000808185FD05C0A889B9898C9186FD0FC0DA
:102CD0000FB607FCF5CF808185FFF2CFA889B989AF
:102CE0008C9185FFEDCFCE010E94F015E7CFDF91EB
:102CF000CF91089580E090E0892B29F00E94E6159D
:102D000081110C94000008950E94B7321F920F9217
:102D10000FB60F9211242F933F934F935F936F93AE
:102D20007F938F939F93AF93BF93EF93FF938CE029
:102D300097E00E94F015FF91EF91BF91AF919F91A5
:102D40008F917F916F915F914F913F912F910F9054
:102D50000FBE0F901F9018951F920F920FB60F92F3
:102D600011242F938F939F93EF93FF93E0911C0770
:102D7000F0911D078081E0912207F091230782FDE9
:102D800012C09081809125078F5F8F732091260755
:102D9000821751F0E0912507F0E0E45FF84F958F3E
:102DA0008093250701C08081FF91EF919F918F91C2
:102DB0002F910F900FBE0F901F9018952FB7F8947A
:102DC0006091F7017091F8018091F9019091FA01F9
:102DD0002FBF08951F920F920FB60F9211242F93B9
:102DE0003F938F939F93AF93BF938091F7019091FF
:102DF000F801A091F901B091FA013091F60126E0B5
:102E0000230F2D3720F40296A11DB11D05C029E81E
:102E1000230F0396A11DB11D2093F6018093F701A6
:102E20009093F801A093F901B093FA018091F20117
:102E30009091F301A091F401B091F5010196A11DCB
:102E4000B11D8093F2019093F301A093F401B0932C
:102E5000F501BF91AF919F918F913F912F910F906D
:102E60000FBE0F901F90189561E0809166010E943F
:102E7000090510923E0110926401109263010895B9
:102E80008CE097E00E94DA15181619062CF48CE0F5
:102E900097E00E94B815F4CF08958CE097E00E9467
:102EA000DA15892BD1F38CE097E00E94B8150895CC
:102EB0002091420130914301A901480F511DCA01DF
:102EC000509343014093420160910001613021F42D
:102ED000942F990F890F04C070E00E948932862FC9
:102EE0000C948B0D85EB92E060E070E020E030E028
:102EF000FC01E20FF31F4081411141C02F5F3F4FA2
:102F00002F303105A9F740E050E0FC01E40FF51F38
:102F1000208931892115310591F54E5F5F4F483089
:102F2000510599F7FC017B96DF0113974C914111F4
:102F300026C011964C91411122C011964C9141111D
:102F40001EC0408141111BC0DC01A20FB31FD096EF
:102F50004C91D097411113C0D1964C9141110FC0A3
:102F60002E5F3F4F34962C303105F1F66F5F7F4F67
:102F7000CC966031710509F0B9CF81E0089580E009
:102F80000895CF938091F101882329F08150809397
:102F9000F101C0E00EC00E944D17C82F0E944D17CE
:102FA000C295C07FC82B29F40E944D178150809391
:102FB000F1018C2FCF9108956091F001662331F0DB
:102FC0008CE097E00E9411161092F0010895CF93C3
:102FD000C82F81111CC08091F00181110CC080E0CC
:102FE00090E00E94EF1A80E090E00E94EF1A81E0EA
:102FF0008093F0011AC08F5F8093F0018F37A9F49E
:103000008FE790E00E94EF1A1092F0010EC00E942C
:10301000DC178C2F82958F7090E00E94EF1A8C2F16
:103020008F7090E0CF910C94EF1ACF910895CF92CA
:10303000DF92FF920F931F93CF93DF9300D01F92E5
:10304000CDB7DEB7F22E011103C09091AA0204C0E1
:10305000013061F49091AB029C3141F44B836A835F
:1030600089830E94B51389816A814B8110E09801A0
:1030700026553D4FF9019081A92FB0E054E5509FAE
:103080006001519FD00C112486010A0F1B1F0E5F97
:103090001D4FF80EF801F082F601EE5FFD4FEA0FCA
:1030A000FB1F648F40AF9F5FF90190830F900F90DB
:1030B0000F90DF91CF911F910F91FF90DF90CF90F4
:1030C00008950F93E82FF0E0EF54F94F00E02089C6
:1030D00040E0608180E80E9417180F9108950F93D7
:1030E000CF93C0E000E02C2F40E06BE780EB0E9424
:1030F0001718CF5FC031B1F7CF910F91089590911C
:10310000E606911102C08823D1F08091DA0628E109
:10311000829FC00111246CE370E00E9489329B0100
:10312000770F440B550B60E472E48FE090E00E944F
:103130001A32215031093093890020938800089574
:103140009091E606911102C0882369F080916F008A
:103150008D7F80936F0010928900109288001092EA
:1031600081001092800008959091E606911102C0AE
:103170008823B1F01092810010928000809181002C
:1031800082608093810080918100886080938100BB
:1031900080E00E947F1880916F00826080936F00B2
:1031A0000895882351F081E00E94A0188EE790E0F6
:1031B000909389008093880006C081E00E94A01847
:1031C00081E00E947F1881E00C94B4180F93CF9394
:1031D000DF93662329F0DF91CF910F910C94611852
:1031E00090E0EC01C651DE4F6881662351F0FC018E
:1031F000EF54F94F01E020A140E080E80E94171849
:103200001882DF91CF910F910895CF938091B202F0
:103210008093B3028091B0028093B1028091AE029C
:103220008093AF028091AC028093AD021092E901CD
:103230001092AB021092AA0288EAE2E0F2E0DF010B
:103240001D928A95E9F780E090E0FC01E352FE4F81
:103250001182108202968C309105B9F71092AC025F
:103260001092AE021092B0021092B20281E08093EE
:10327000DC0180936701C0E08C2F0E946118CF5F52
:10328000C031D1F7C0E060E08C2F0E94E618CF5F1C
:10329000C630C9F7CF91089580E00E94A0188091B0
:1032A000DB06882341F08091E606882321F08CEF2D
:1032B00090E00E94EF1A1092B4020E9405190E9439
:1032C0006F180E940B140E94DD0480916401882312
:1032D00029F01092640181E08093630180E00E94F4
:1032E000B41881E080930D01809301020895FF924C
:1032F0000F931F93CF93DF93162FF42EC82FD0E098
:10330000CF54D94F00E0288940E080E80E94171888
:1033100028894F2D612F80E90E941718DF91CF91E6
:103320001F910F91FF900895CF92DF92EF92FF923D
:103330000F931F93CF93E82F862F4E2F50E0FA0163
:103340003197E730F10508F0DFC0E25AFF4F0C94E7
:103350009D326091AE029091B20220E1629FB00175
:103360001124690F711D60547109660F771F9B014D
:10337000280F311DC901843091050CF06FC084E025
:10338000C3C06091AE0230EF3603B00111249091BA
:10339000B202691B7109E9CF9091AE02933009F036
:1033A000B3C06091B20239E0639FB001112460584C
:1033B0007109DDCF9091AE02933009F0A5C0609104
:1033C000B20237EF3603B0011124D1CF2091AE0203
:1033D00090E06091B202422F50E0223080F4E4E0AD
:1033E000440F551FEA95E1F7460F511D4052510910
:1033F000440F551F440F551F840F951FBCCF22E06B
:1034000030E0241B350B74E0220F331F7A95E1F76F
:1034100010C04091AE0290E06091B202242F30E0E3
:10342000423050F470EF7203A001739F500D1124CD
:103430009A01261B31090BC02250310954E0220F9A
:10344000331F5A95E1F7260F311D20523109220F03
:10345000331F220F331F820F931F8DCF80389105AA
:103460000CF452C08FE790E04FC0C62F062F10E03B
:103470000E940C323BE7C32ED12CE12CF12CA7018A
:1034800096010E941A32DC01CB010496A11DB11DE8
:103490009801281B310920383105BCF00E940C32FC
:1034A0002BE7C22ED12CE12CF12CA70196010E9412
:1034B0001A32DC01CB010496A11DB11D081B1109B4
:1034C00000381105A4F08FE71FC00E940C32A7013D
:1034D00096010E941A32DC01CB010496A11DB11D98
:1034E0009801281B310924303105C4F648CF0E94C9
:1034F0000C32A70196010E941A32DC01CB0104961E
:10350000A11DB11DC81B8C2FCF911F910F91FF9052
:10351000EF90DF90CF900895809100028093FF019B
:10352000EBEFF1E0A8EDB1E08D919C9111979183C3
:10353000808312968D919C911397938382838091BF
:10354000DC018093670181E080930D0108950F9362
:103550001F939091B2029695969541E050E060E0FD
:1035600070E08A019B0104C0000F111F221F331F4E
:103570009A95D2F7D901C8012091AE024091070176
:1035800047FF242F30910601332311F0806F22C0B2
:1035900030E02C5F3F4F47FD11C041E050E060E05C
:1035A00070E004C0440F551F661F771F2A95D2F79D
:1035B0004095806F4823409300020EC041E050E0E8
:1035C00060E070E004C0440F551F661F771F2A9506
:1035D000D2F7842B809300021F910F910895682FDA
:1035E0008CE097E00C941116CF92DF92EF92FF924D
:1035F000C82E262F6CE00E947D32EC2D9CE0899F26
:10360000E0191124CE2ED12C9CE0C916D10408F06B
:1036100049C0F601EB59FF4F622F70E00C949D32C8
:10362000FB01EC50F94F99E33CC0DB01AC50B94FC2
:1036300099E32CC0FB01EC50F94F9EE532C0DB0151
:10364000AC50B94F9EE522C0FB01EC50F94F99E711
:1036500028C0FB01EC50F94F91E723C0DB01AC50CF
:10366000B94F91E713C0FB01EC50F94F9DE319C02E
:10367000DB01AC50B94F9DE309C0FB01EC50F94FA1
:1036800097E70FC0DB01AC50B94F97E750969C937A
:10369000509796E751969C9305C0FB01EC50F94F6B
:1036A0009CE7908B8A3008F089E0E82FF0E0EA513F
:1036B000FF4F85919491E42FF0E0EC50F94F808B0F
:1036C000FF90EF90DF90CF90089598E0833068F4FA
:1036D00028E0829FF0011124EC50F94FDF01292FDF
:1036E0001D922A95E9F78F5FF1CF0895CF93DF936D
:1036F000C9EAD7E08F850E94F6028E850E94F60205
:103700008D85DF91CF910C94F6028CB5E9EAF7E054
:1037100086838DB58783908181819CBD8DBD81E03D
:1037200083830895CF93C82F8091AC07811102C085
:103730000E94851BC33059F0CB3021F0C23069F4B0
:1037400082E006C08BE00E94F6028EEE01C083E0AC
:103750000E94F6020E94761B03C08C2F0E94F60284
:1037600081E0CF910895E9EAF7E086818CBD8781F9
:103770008DBD138208958F929F92AF92BF92CF9288
:10378000DF92EF92FF924B015C010E94DE166B010B
:103790007C0185E00E94921B80E00E94F6028093EB
:1037A000AE070E94DE16DC01CB018C199D09AE0923
:1037B000BF0988169906AA06BB0638F484E08093F0
:1037C000AD070E94B31B80E005C08091AE0780FD6D
:1037D000E0CF81E0FF90EF90DF90CF90BF90AF906F
:1037E0009F908F900895CF92DF92EF92FF920E9468
:1037F000DE166B017C018091AE0781FF02C081E083
:103800001DC086E00E94921B85E00E94921B80E012
:103810000E94F6028093AE070E94DE16DC01CB0107
:103820008C199D09AE09BF090B97A105B10518F3C5
:1038300086E08093AD070E94B31B80E0FF90EF907D
:10384000DF90CF9008958F929F92AF92BF92EF92A8
:10385000FF920F931F93CF939091AD078230E1F4C5
:103860009330A9F19C3099F1480159014093B60772
:103870005093B7076093B8077093B9076AE070E098
:1038800080E090E00E94BB1B882309F10E94F31B9B
:10389000C82F81111EC01BC09330C9F09C30B9F0F5
:1038A0004093B6075093B7076093B8077093B90772
:1038B0006AE070E080E090E0CF911F910F91FF905F
:1038C000EF90BF90AF909F908F900C94BB1BC0E087
:1038D00016C083E00E94921BE12CF12CC701A0E0EE
:1038E000B0E088159905AA05BB0548F480E00E9460
:1038F000F6028F3F61F78FEFE81AF80AEFCF8C2FAF
:10390000CF911F910F91FF90EF90BF90AF909F903C
:103910008F9008950F931F93CF93DF93AB01BC015A
:1039200008E010E020E030E083E00E94231C182F24
:10393000882379F083E00E94921BCCEED6E080E0F1
:103940000E94F602899386E0C43FD807C1F70E941F
:10395000B31B812FDF91CF911F910F9108956AE0E2
:1039600070E080E090E00E94BB1B882379F00E9409
:10397000F31B882359F087EC0E94921B0E94B31B13
:1039800060EA76E881E090E00C94BB1B80E008954B
:103990002F923F924F925F926F927F928F929F925F
:1039A000AF92BF92CF92DF92EF92FF920F931F934D
:1039B000CF93DF9300D01F92CDB7DEB72B013C0130
:1039C000CB01992720E031E07901E81AF90A8091CA
:1039D000AC07811102C00E94851B21EBC22E26E09C
:1039E000D22E0BE310E06AE070E080E090E00E94ED
:1039F000BB1B882309F440C00E94F31B89838111FB
:103A00003DC03AC08091B6079091B707A091B80722
:103A1000B091B907880E991EAA1EBB1E8092B607E8
:103A20009092B707A092B807B092B907021B130B88
:103A3000E12CFF24F39401151105A9F60BE310E026
:103A400020E030E0B301A20183E00E94231C882320
:103A500009F43FC083E00E94921B81EBE82E86E0D0
:103A6000F82EF70111917F0180E00E94F6021817ED
:103A7000C9F18BE08093AD0780E03DC097010E1542
:103A80001F0508F498014901A12CB12C82E02A837A
:103A90003B830E94F6020E94761B160176012A8162
:103AA0003B816701C70182199309A0E0B0E0881546
:103AB0009905AA05BB0508F0A5CF8FEFE81AF80A0B
:103AC000F60180812A833B830E94F6023B812A8192
:103AD000E8CF6AE070E080E090E00E94BB1B8111BB
:103AE000B9CF09C0FCEEEF16F6E0FF0609F0B9CF3A
:103AF0000E94B31B89810F900F900F90DF91CF919F
:103B00001F910F91FF90EF90DF90CF90BF90AF90FB
:103B10009F908F907F906F905F904F903F902F90ED
:103B200008952F923F924F925F926F927F928F9261
:103B30009F92AF92BF92CF92DF92EF92FF920F933C
:103B40001F93CF93DF9300D01F92CDB7DEB74B0109
:103B50005C010CE310E020E030E0AB01BC0182E04E
:103B60000E94231C882309F450C0C401992720E037
:103B700031E06901C81AD90A8091AC07811102C0ED
:103B80000E94851B95E7292E96E0392E0CE310E064
:103B90006AE070E080E090E00E94BB1B8823A9F1FE
:103BA0000E94F31B8B83811132C02FC08091B60716
:103BB0009091B707A091B807B091B907480E591E68
:103BC0006A1E7B1E4092B6075092B7076092B807F4
:103BD0007092B9070C191D09C12CDD24D39401156D
:103BE0001105B1F60CE310E020E030E0B501A401CE
:103BF00083E00E94231C811130C06AE070E080E005
:103C000090E00E94BB1B811128C01B823DC00C1597
:103C10001D0508F468012601612C712C82E00E94C8
:103C2000F6020E94761B910171011701C701821BE8
:103C3000930BA0E0B0E084159505A605B70508F044
:103C4000B5CF8FEFE81AF80AF101808129833A8312
:103C50000E94F6023A812981E8CF83E00E94921BFC
:103C600005E716E0F801F1908F0180E00E94F6026E
:103C7000F81621F08BE08093AD07C7CFF6E0013B4B
:103C80001F0781F70E94B31B8B810F900F900F903D
:103C9000DF91CF911F910F91FF90EF90DF90CF9028
:103CA000BF90AF909F908F907F906F905F904F905C
:103CB0003F902F9008952F923F924F925F926F9274
:103CC0007F928F929F92AF92BF92CF92DF92EF92AC
:103CD000FF920F931F93CF93DF9300D01F92CDB726
:103CE000DEB74B015C0100EC13E020E030E0AB01FB
:103CF000BC0182E00E94231C882309F450C0C40147
:103D0000992720E031E06901C81AD90A8091AC07EF
:103D1000811102C00E94851B95EB292E92E0392E5D
:103D200000EC13E06AE070E080E090E00E94BB1BD2
:103D30008823A9F10E94F31B8B83811132C02FC00D
:103D40008091B6079091B707A091B807B091B907D5
:103D5000480E591E6A1E7B1E4092B6075092B70746
:103D60006092B8077092B9070C191D09C12CDD24A7
:103D7000D39401151105B1F600EC13E020E030E01A
:103D8000B501A40183E00E94231C811130C06AE0C8
:103D900070E080E090E00E94BB1B811128C01B8274
:103DA0003DC00C151D0508F468012601612C712C1D
:103DB00082E00E94F6020E94761B910171011701B8
:103DC000C701821B930BA0E0B0E084159505A60502
:103DD000B70508F0B5CF8FEFE81AF80AF101808136
:103DE00029833A830E94F6023A812981E8CF83E051
:103DF0000E94921B05EB12E0F801F1908F0180E028
:103E00000E94F602F81621F08BE08093AD07C7CF31
:103E1000F6E005371F0781F70E94B31B8B810F90D7
:103E20000F900F90DF91CF911F910F91FF90EF9026
:103E3000DF90CF90BF90AF909F908F907F906F90CA
:103E40005F904F903F902F900895CF93C091B40210
:103E500080E00E94A01881E08093B4020E940519BE
:103E60008091750680930E018091DB06882341F0D6
:103E70008091E606882321F08AEF90E00E94EF1AF5
:103E8000CC2381F01092AB021092AA0288EAE2E001
:103E9000F2E0DF011D928A95E9F781E0809301024B
:103EA0000E94CB0E0E940B14C1E0C09301020E943D
:103EB000A71A80E00E94B418809100028093FF014D
:103EC0001092FE011092FD0180E890E09093FC01B9
:103ED0008093FB01C0930D01CF910895CF93DF93A1
:103EE000CDB7DEB7A1970FB6F894DEBF0FBECDBF3A
:103EF000789484B5826084BD84B5816084BD85B5C5
:103F0000826085BD85B5816085BD80916E008160D0
:103F100080936E0010928100809181008260809376
:103F20008100809181008160809381008091800078
:103F30008160809380008091B10084608093B100A3
:103F40008091B00081608093B00080917A0084609D
:103F500080937A0080917A00826080937A008091C9
:103F60007A008E7F80937A0080917A0080688093B7
:103F70007A001092C100E0911C07F0911D0782E0C9
:103F80008083E0911807F09119071082E0911A07D9
:103F9000F0911B078FE1808310922407E0912007A6
:103FA000F091210786E08083E0911E07F0911F07C2
:103FB000808180618083E0911E07F0911F078081DE
:103FC00088608083E0911E07F0911F0780818068E0
:103FD0008083E0911E07F0911F0780818F7D808391
:103FE0008CE097E00E9458160E9405190E946F18F5
:103FF0008FEE84B98FEF85B98AB985B1836085B9B1
:104000008BB18F718BB98FE80E942E0180E40E94E2
:104010002E01289840EC60EC80EC0E9403018BB1EB
:104020008F718BB910E0299880E090E00E94AB0B73
:10403000299A1F5F1038B9F7289A0E94220280E05F
:104040000E944506809101028F5F8093010290914A
:10405000E60681E089270E94D118212C312C21010C
:1040600023940E94CB0E8091630181110E9434172A
:10407000289842E462E482E40E9403011AB8109294
:1040800041011092400110923F0140E050E0E0E019
:10409000F0E080E020E060E02998720161010E2EDE
:1040A00004C0CC0CDD1CEE1CFF1C0A94D2F74D9B07
:1040B00002C06C2902C0C0946C21720161010E2EF5
:1040C00004C0CC0CDD1CEE1CFF1C0A94D2F74E9BE6
:1040D00002C02C2902C0C0942C21720161010E2E55
:1040E00004C0CC0CDD1CEE1CFF1C0A94D2F74F9BC5
:1040F00002C08C2902C0C0948C21299A3196E830E4
:10410000F10551F6042E01C0660F0A94EAF790916A
:104110003F01692B60933F01042E01C0220F0A94D6
:10412000EAF790914001292B20934001042E01C011
:10413000880F0A94EAF790914101892B80934101FD
:104140004F5F5F4F4430510509F0A1CF8FEF8AB91F
:10415000289A00913E010B834091710110916A01F0
:104160001F83F0900501A0907301B0900D01209184
:1041700074012D875091720180E090E0DD24D3948A
:1041800073E0E72E66246394712C082E02C0660C3F
:10419000771C0A94E2F792018101082E04C0000FF7
:1041A000111F221F331F0A94D2F7802EC02EC094F5
:1041B0008C010A5D1E4FA7E7B1E0B98BA88BFC010B
:1041C000E75BFE4F20E030E0BEEFB80FB9878B878A
:1041D000B901615C7E4FDB016C9170E06621772153
:1041E000672B09F461C0BB81BB23A1F02115310508
:1041F00039F48230910508F057C0463059F454C064
:10420000223009F051C08730910509F04DC0463089
:1042100009F04AC0D8016C91683C10F46F5F6C9350
:10422000D8016C91683C88F42115310509F06EC005
:10423000463009F46BC08630910520F4BB85B4305C
:1042400009F064C06B3008F461C0A889B9899C90FA
:10425000692D70E066217721672B09F057C09828F7
:104260009C922115310559F4463049F0B985B23098
:1042700030F4D0829C20A889B9899C9211C0B2E008
:10428000B0832115310561F041110AC05F815031C1
:1042900038F061E8F61204C0A12CF12CBB24B394D1
:1042A00051E05D8750E032C0D8019C90BAE0B9156A
:1042B00030F567EC691540F0A889B9896C9170E018
:1042C00066217721672BC1F0552311F0E08202C0EF
:1042D000B4E0B0836081643061F42115310549F4A4
:1042E0008630910531F4463021F067EC691508F409
:1042F000E08271E07D8703C0D08251E05D87D80104
:104300001C92A889B9896C916C216C932F5F3F4FE7
:10431000085F1F4F688979896F5F7F4F798B688B42
:1043200038962330310509F053CF01968830910536
:1043300009F028CFB0920D01F0920501A09273010F
:10434000509372010D8500937401002311F40C94B5
:10435000E02B10927401463009F02BC100E010E010
:10436000AA24A3947801B12C902E5EEF852E800EA6
:104370009701275B3E4F6901D9018C91882309F48D
:1043800009C190917501B2E0992309F465C0BB128F
:1043900017C00730110519F410927501F7C0E1E05C
:1043A000E91510F08FEF04C0F1E0F81520F081E07E
:1043B0000E94D505EBC01092750110927101E6C004
:1043C0000E94DD0480916B0190916C0127E02E1515
:1043D00010F0882701C0992790936C0180936B019E
:1043E00020916B0130916C01D201C1010E2C04C0EF
:1043F000880F991FAA1FBB1F0A94D2F7282B392BAD
:1044000030936C0120936B0190E040E050E080E03D
:10441000E42FBA01685F7F4FD90102C0B695A79516
:104420006A95E2F7A0FD840FB90102C07695679501
:10443000EA95E2F760FD890F4F5F5F4F985F903418
:1044400039F78093660190916501981709F49EC031
:1044500060E00E9409059AC0BB1206C00730110532
:1044600019F4A092750192C0A09248018130F1F533
:104470008091DC069091DD06A091DE06B091DF060A
:10448000AC01BD010E2C04C07695679557954795F4
:104490000A94D2F740FF13C0B201A1010E2C04C050
:1044A000440F551F661F771F0A94D2F74095509509
:1044B0006095709584239523A623B7230EC0B2017F
:1044C000A1010E2C04C0440F551F661F771F0A94CC
:1044D000D2F7842B952BA62BB72B8093DC069093D9
:1044E000DD06A093DE06B093DF0650C0823009F0EF
:1044F0004DC08091E0069091E106A091E206B09156
:10450000E306AC01BD010E2C04C076956795579566
:1045100047950A94D2F740FF13C0B201A1010E2CB7
:1045200004C0440F551F661F771F0A94D2F74095A9
:1045300050956095709584239523A623B7230EC0CC
:10454000B201A1010E2C04C0440F551F661F771F36
:104550000A94D2F7842B952BA62BB72B8093E006D9
:104560009093E106A093E206B093E30681E04091C8
:10457000E0065091E1066091E2067091E306452B5A
:10458000462B472B09F480E080936101F6011082ED
:10459000A0920D01B394F8E0EF0EF11C23E0B212EB
:1045A000E7CE0F5F1F4F0830110509F0DBCE0C94EA
:1045B000E02B809149018823B9F0813039F4809152
:1045C000E606882379F00E94251F0CC0823051F442
:1045D0009091680181E08927809368018091B402FD
:1045E000882369F31092490180914A01882371F070
:1045F000823011F4109268018091E60681110E94C8
:104600004C1910924A0181E88093050180914B0179
:10461000882309F490C0813009F08BC0809171012A
:10462000811171C080916A01803108F472C0E12C5F
:10463000F12C20E088248394912C082F10E0005165
:1046400011093801660C771C660C771CA8014457C9
:10465000594F5C834B8370EF780F54010E2C02C0CE
:10466000AA0CBB1C0A94E2F7670100E010E09CE38F
:1046700031E080917A01811109C0F801E958FE4FBB
:10468000418150E04A215B21452B59F1809169011C
:104690009C9DF0019D9DF00D1124E60DF71DEB543E
:1046A000FD4FE80FF11D808D8823D9F08150808F58
:1046B000AB81BC818C93211107C0809105018438A6
:1046C0001CF081508093050130937301672F8C2D6E
:1046D0003D8F7F8F9E8F0E944D0B21E09E8D7F8DA1
:1046E0003D8DB8E0CB0ED11C0130110519F001E071
:1046F00010E0BFCFEFEFEE1AFE0AF8E0EF16F1047C
:1047000009F0ABCF13C0853021F48FEF0E94E30B8B
:104710000DC08091DA068B3030F081508093DA063C
:1047200081E08093480180E00E947F1881E08093BF
:104730000D0110924B0180914C01882309F49AC01D
:10474000813009F095C08091710181117BC0809109
:104750006A01803108F47CC0C12CD12C40E0082FC4
:1047600010E0005111093801660C771C660C771CAB
:104770000457194F80518B8388248394912C0C2CDF
:1047800002C0880C991C0A94E2F77601A12CB12C86
:104790005CE371E080917A01811109C0F501E9586B
:1047A000FE4F818190E088219921892BC1F1809170
:1047B000690190E05E9DF0015F9DF00D1124E60D12
:1047C000F71DEB54FD4FE80FF91F208D222339F11F
:1047D0002F3710F42F5F208F5E9D90015F9D300D6D
:1047E0001124260D371D2B543D4FF901E80FF91FF9
:1047F000808DD8018C93411107C0809105018F37BE
:1048000019F08F5F80930501709373016B818E2D7A
:1048100059A37F8F0E944D0B41E07F8D59A1B8E0D5
:10482000EB0EF11CAA94AB2821F0AA24A394B12C7E
:10483000B1CFFFEFCF1ADF0A28E0C216D10409F08A
:104840009BCF13C0853021F481E00E94E30B0DC0A3
:104850008091DA068F3F31F08F5F8093DA0681E036
:104860008093480180E00E947F1881E080930D01D1
:1048700010924C0180917101811181C48090AE022F
:104880008091070187FF882E809106018111812C7C
:1048900030916A013B87082D10E018870F83303173
:1048A000F0F1C801880F991FA82E9C012F5F3F4F80
:1048B000388F2F8BB201A1010F8804C0440F551F00
:1048C000661F771F0A94D2F7498FD201C1010A2CC3
:1048D00004C0880F991FAA1FBB1F0A94D2F78A8FA2
:1048E000342F30953B8F582F50955C8F01E511E0A8
:1048F0001B8B0A8B1B85612E712C20E1621A7108BB
:104900008301000F111F000F111F1A8709871B85D4
:10491000105193012457394F3C832B838CC10F8155
:104920001885000F111F18870F839F80D201C101C6
:10493000092C04C0880F991FAA1FBB1F0A94D2F725
:10494000182F109519878F8198850196A2019101E2
:1049500004C0220F331F441F551F8A95D2F720959C
:104960002B8705EB12E01C830B83A12CB12CFCE3FD
:10497000FF2EEE24E394AF86A5014F5A5E4F6A01E5
:104980000B811C81612C712CD6018C91882309F438
:1049900013C120916A01482D622F8F85860D28A3AF
:1049A0000E94D20AF601608128A1613009F092C00C
:1049B000A3014A0D5B1D822F90E0F49EF001F59E4D
:1049C000F00D1124E80FF91FEB54FD4F308179856C
:1049D00037237B85372330836093470160916201E1
:1049E0002F3031F5611103C0E09262010EC06130D9
:1049F00021F4A2E0A093620108C0623021F4B3E088
:104A0000B093620102C0633079F3F49EF001F59E29
:104A1000F00D1124E80FF91FEB54FD4F6091620176
:104A2000092C01C0660F0A94EAF7362B308329C09F
:104A300020917501222379F0633021F4E2E0E093C4
:104A400062010DC0623019F4E092620108C0F3E027
:104A5000F093620104C06623B9F310926201F49EE0
:104A6000F001F59EF00D1124E80FF91FEB54FD4FF6
:104A700080916201092C01C0880F0A94EAF7832B08
:104A8000808380910601882309F492C060916201BD
:104A9000862F90E020916A01F49EF001F59EF00DC2
:104AA0001124E20FF11DEB54FD4FAC01440F551FD3
:104AB000440F551F9C0154E0220F331F5A95E1F714
:104AC000242B622B76E0880F991F7A95E1F7862BCD
:104AD00080836EC0623009F06BC02F3009F468C06B
:104AE000E0924701EF81F885E00FF11F80899189FD
:104AF000AC01022E02C0569547950A94E2F7A091A8
:104B0000060140FF33C0B201A10104C0440F551F8C
:104B1000661F771F2A95D2F79A0120953095822338
:104B20009323918B808BAA2309F442C0D80152961B
:104B30008D919C9153978223932353969C938E93AC
:104B4000529754968D919C91559782239323559615
:104B50009C938E93549756968D919C9157972823AA
:104B6000392357963C932E93569722C0B201A10148
:104B700004C0440F551F661F771F2A95D2F7842B58
:104B8000952B918B808BAA2399F0F80182899389C8
:104B9000842B952B938B828B84899589842B952BE1
:104BA000958B848B86899789842B952B978B868B05
:104BB000D6011C92E0920D01B8E0CB0ED11CE8E0CA
:104BC0006E0E711C00521E4FF0E16F16710409F059
:104BD000DBCE0FEFA01AB00A2B813C81245C3F4F43
:104BE0003C832B8338E0A316B10409F0C4CEC7C2BE
:104BF000AC89BD898C9181112EC02E892F5F2E8B9F
:104C00002C893D89285F3F4F3D8B2C8B2889398922
:104C1000285F3F4F398B288B2031310549F72A898E
:104C20003B892F5F3F4F3B8B2A8B41E551E0485F2B
:104C3000421709F4A4C20A8961E571E0061B0F87D7
:104C40002A893B893D8B2C8B198A188A1E8A0CE392
:104C5000FEE1BF2ECDCF90917B01992309F440C195
:104C60002E89213009F019C13F85373031F4813068
:104C700009F07EC210927B017BC25F85563009F03D
:104C800040C0813009F074C2F09076012091690132
:104C900030E0EF2DF0E0A985BA850F9DA00DB11D84
:104CA0001124AB54BD4FA20FB31F58968C91482FBF
:104CB00050E0BA01645F7F4F6D36710570F06CE0B3
:104CC0000E947D32BA019CE0899F6019710911240C
:104CD0006115710511F46CE070E06F770E9FA00113
:104CE0000F9F500D1124A985BA854A0F5B1F4B54A5
:104CF0005D4FFA01E20FF31F608FEB81FC8160834F
:104D000061C02F85253009F060C0813009F030C2C4
:104D1000E0906901F09076014E2D6B858F2D0E94F9
:104D2000D20A4E2D50E0440F551FD201C101042E6E
:104D300004C0880F991FAA1FBB1F0A94D2F7682FBF
:104D400060952F2D30E0F301BF9CE00DF11D112483
:104D5000EE0FFF1FEB51FD4FE080E622BA016F5FBF
:104D60007F4FD201C10104C0880F991FAA1FBB1F2A
:104D70006A95D2F780956E2D6823608380916201D9
:104D8000813011F482E003C0823021F483E080930B
:104D9000620103C07E8970936201809162018093F9
:104DA0000401B29EF001B39EF00D1124E60DF71D33
:104DB000EE0FFF1FEB51FD4F01C0880F4A95EAF738
:104DC000862B8083612F8F2D62C12F85243009F0BF
:104DD00064C0813009F0CCC180917601A82FB0E089
:104DE000F301B89EE00DF11D1124EE0FFF1FEB54EF
:104DF000FD4F91A9292F30E04091690150E0440F07
:104E0000551FFA013196B9010E2E02C075956795AE
:104E10000A94E2F76170660F042E02C0359527955B
:104E20000A94E2F72170262B72016101042E04C05E
:104E3000CC0CDD1CEE1CFF1C0A94D2F7C0943C2D58
:104E400039237201610104C0CC0CDD1CEE1CFF1C77
:104E5000EA95D2F79C2D90959323222331F02130AF
:104E600031F0223031F020E005C021E003C022E023
:104E700001C023E0BA9EF001BB9EF00D1124E60DA7
:104E8000F71DEE0FFF1FEB54FD4F01C0220F4A9597
:104E9000EAF7292B21AB612FFAC0813009F068C1F4
:104EA0002091760180916901E985FA85029FE00DE4
:104EB000F11D1124EB54FD4FE80FF11D808D3CE0F6
:104EC000632F0E947D329F85839F900D1124388926
:104ED000930F908FAB81BC819C93612F822FD7C0A1
:104EE000B1E0B09347019F84E8899E0E90927601CD
:104EF00080926901482D6B85892D0E94D20AAC8968
:104F0000BD895C91513009F0C5C0C92CD12C89856F
:104F10009A85099D800D911D11248B549D4FEF8022
:104F2000F884E80EF91EF701808D811133C0AB8142
:104F3000BC818C91412F682D81110EC0892D59A300
:104F40000E940A0B59A150937B01EB81FC810083E5
:104F5000D70158960C9309C0892D0E940A0BEB814A
:104F6000FC818081D70158968C93BC9CF001BD9C3C
:104F7000F00D1124E60DF71DEE0FFF1FEB51FD4F55
:104F8000809104010A2C01C0880F0A94EAF79081ED
:104F9000892B7AC080917501882309F45BC0BC9C81
:104FA000F001BD9CF00D1124E60DF71DEE0FFF1F63
:104FB000EB54FD4F81A990E09C010F8802C035950C
:104FC00027950A94E2F72170F22EFF0C0A2C02C0FA
:104FD000959587950A94E2F78170F82A412F682DFC
:104FE000892D59A30E940A0B8091620159A1833037
:104FF00011F482E006C0823019F45093620103C0BC
:1050000083E080936201BC9CC001BD9C900D112483
:10501000860D971DFC01EE0FFF1FEB51FD4F2091F8
:1050200062010A2C01C0220F0A94EAF73081232B77
:105030002083880F991FFC01EB54FD4F8F2DFF0C2F
:10504000990B0A2C01C0880F0A94EAF7F1A88F295E
:1050500081AB1BC080916201BC9CF001BD9CF00D36
:105060001124E60DF71DEE0FFF1FEB51FD4F8111CF
:1050700006C080812A8D822B398D832B05C08081CB
:105080005C8D85232B8D82238083612F892D0E9447
:105090004D0B6EC0533021F431E83093050168C0E8
:1050A000543009F065C0809173018111F5CF41E062
:1050B00040937B01482D6B85892D0E94D20AE92CF3
:1050C000F12CE985FA85099DE00DF11D1124EB54C1
:1050D000FD4F2F813885E20FF31F808D882381F0EB
:1050E000809162018111D8CF412F682D892D0E94B6
:1050F0000A0BAB81BC818C9181110DC00C930BC04C
:10510000412F682D892D0E940A0BEB81FC81808143
:10511000811101C000830E9DF0010F9DF00D11243F
:1051200029853A85E20FF31FEB54FD4F2F81388517
:10513000E20FF31FAB81BC818C91808FBE9CF0018C
:10514000BF9CF00D1124E60DF71DEE0FFF1FEB5174
:10515000FD4F809104010A2C01C0880F0A94EAF7E0
:105160009081892B8083612F892D0E944D0B94CFD4
:10517000EC89FD891082F1E0F0930D013ECD809124
:1051800071019FEF980F953008F056C290910D0174
:1051900020E030E01FEFF901E75BFE4F4085413032
:1051A00019F41086122F9D854089413021F4108A10
:1051B00018E0120F9D852F5F3F4F2830310559F7BA
:1051C00090930D011F3F09F437C2853009F04BC1A0
:1051D00080916D01823109F416C1803109F045C119
:1051E0001F3059F080914601811104C081E0809305
:1051F000460122C2109246011FC28091B402882348
:1052000019F00E94BA0B18C2809146011091030157
:10521000811164C01E3F09F40FC20E94A0188FEFD5
:105220000E948B0D1092430110924201E0904401C4
:10523000B090650184E18093000117FD07C0012F44
:1052400081E080930001FF24F39403C000E0ECE1CF
:10525000FE2E80EF90E00E94EF1A81E090E00E9425
:10526000EF1A82E090E00E94EF1A88E290E00E943C
:10527000EF1A1F3F31F488E090E00E94EF1AF00E21
:1052800003C084E090E0F9CF802F0E94FE050F5FFD
:1052900010E060E0812F0E9409050E9472178823A8
:1052A00009F423C71F5F1034A1F780E190E00E944A
:1052B000EF1A80E40E9458170F11E6CF84E290E0C5
:1052C0000E94EF1A87EF90E00E94EF1A8E2D0E9445
:1052D000FE0560E08B2D0E9409058EC01E3F09F47B
:1052E000ABC180E00E94A0188FEF0E948B0D9090C0
:1052F00044018090650184E18093000117FD07C09F
:10530000012F81E080930001FF24F3940EC01F3F22
:1053100049F40E94AF1C81112AC08091AD070E9400
:10532000DC0D25C000E05CE1F52E20E134E0120345
:105330005001139FB00C11246501E0E1CE0ED11C89
:10534000C6010E94FD02F0E1CF0ED11C20EEA21A90
:105350002BEFB20AC6010E94FD0230E1C30ED11C40
:1053600081E00E945817CA14DB04A1F703C000E0D3
:105370004CE1F42E10926E0110926F0110927001A8
:1053800080E00E94651B87E58093040789E780938E
:10539000050787E7809306078EE58093070784E675
:1053A000809308078DE380930A078FE380930B07B0
:1053B0000E944A0110924301109242010E9440173C
:1053C0000E944D17803F11F082E1E0C60E944D1708
:1053D000813009F0DAC60E944D17823009F0D5C637
:1053E0000E944D17883209F0D0C6D5C6883109F41D
:1053F00030C782E60E94DC0D8FEF0E948B0D80E0AB
:105400000E94B41819C18091B4028111FACE809122
:1054100045018130A1F40E944C190E9422021A8297
:1054200019821091440121E0AE014F5F5F4F61E0AE
:10543000812F0E943703812F0E94FE0511C0823008
:1054400079F40E944C190E9422021092440180E1DA
:1054500090E0909302018093010181E00E94450653
:105460000E947215E9C0823099F410927B018091FC
:105470006A0190E0212F012E000C330B8217930755
:1054800021F418300CF0D8C0105F10936A01D4C01A
:10549000813059F414301CF41093070103C08FEFCE
:1054A0008093070110920601C7C0843009F07AC0CA
:1054B0008CEF810F8430E8F480ED91E70E94FD02CB
:1054C00060E070ED81E790E00E94911D811104C0C1
:1054D0008091AD070E94DC0D60E071ED81E790E006
:1054E0000E945B1E81115BC08091AD070E94DC0DA4
:1054F00056C088EF810F843008F042C00CE310E002
:1055000020E030E040E050ED61E770E083E00E9491
:10551000231C882309F4F0C683E00E94921B05E750
:1055200016E080E00E94F602D8018D938D01B6E06E
:10553000013B1B07B1F70E94B31B00EC13E020E016
:1055400030E040E051ED61E770E083E00E94231C11
:10555000882309F4D6C683E00E94921B05EB12E073
:1055600080E00E94F602F80181938F01F6E0053792
:105570001F07B1F70E94B31B81E0809347010FC062
:105580001C50143060F405EB12E0C8010E94B20117
:10559000045C1F4F26E005371207B9F7EDCF1092D4
:1055A00071014AC0833009F047C00E94DD04809138
:1055B0006B0190916C01183014F4882701C0992771
:1055C00090936C0180936B01D201C10104C0880FDC
:1055D000991FAA1FBB1F1A95D2F740916B015091DA
:1055E0006C01482B592B50936C0140936B0190E058
:1055F00020E030E080E0622FF9013896DA0102C045
:10560000B695A795EA95E2F7A0FD820FFA0102C0D0
:10561000F695E7956A95E2F7E0FD890F2F5F3F4F1A
:10562000985F903441F780936601909165019817D7
:1056300019F060E00E94090510914E01113001F54A
:105640000E94721510924E0110930D018091750108
:10565000882331F086E0809371011092750123C098
:105660008091070187FD03C01092060105C080915B
:1056700006011827109306018FEF8093070113C0CE
:10568000123041F40E94721510924E0181E0809315
:10569000710109C0133038F081E080930D01109240
:1056A0004E011092710180915001813031F481E0FE
:1056B00080930D011092500139C0823071F591E054
:1056C00090930D011092500120917101253061F4E9
:1056D00080916D018F5F80936D011092450185313E
:1056E00028F110926D0122C020917501222341F012
:1056F00085E08093710110926D011092450116C0F2
:1057000020910501213831F080917A0198279093FA
:105710007A010CC08093710109C0833038F0809108
:105720007101823021F610927101C1CF80914D013B
:10573000823041F40E94721510924D0181E08093F5
:1057400075010BC0833010F4813039F4109275016B
:1057500010924D0181E080930D0180914F018230C4
:1057600069F480917101811103C083E0809371011C
:1057700010924F0181E080930D0122C0833010F41C
:105780008130F1F490917101953061F480916D0157
:10579000882311F0815001C084E180936D01109243
:1057A0004501E6CF90917501992311F084E0DECF99
:1057B000843019F481E00E94D50510927101D8CF90
:1057C0008091E60681110E94141480910D018823B6
:1057D00009F487C410920D01209171013091B40237
:1057E0001092700110926F01263009F01AC11092C8
:1057F0006E01332321F08091FF0180936E0180E0E0
:105800000E94651B80916701882329F080910B0716
:10581000806880930B07909175012091B40280916C
:105820006E01992309F446C030916B0190916C018F
:10583000832780936E0180916F01892780936F0188
:10584000222361F09091FB01892780936F01909151
:10585000FD018091700189278093700183E7809317
:10586000F4064091660150E04F5F5F4F61E080E0D9
:105870000E94A30081E38093F50680916401811169
:1058800004C080916301882329F08091F706806825
:105890008093F70683E78093040787E380930607E6
:1058A00089E38093080788E3809309078DE6809356
:1058B0000A0715C4222389F09091B2029695969515
:1058C000B201A10104C0440F551F661F771F9A95AE
:1058D000D2F7482B40936E0103C0816080936E0124
:1058E0008091AE028C5FB201A10104C0440F551F2C
:1058F000661F771F8A95D2F7DB01CA0130916E01CE
:10590000832B80936E01222331F18091B202883083
:1059100088F49201810104C0000F111F221F331F60
:105920008A95D2F7D901C80120916F01822B80930B
:105930006F0111C08850A201910104C0220F331FD2
:10594000441F551F8A95D2F7DA01C90120917001D1
:10595000822B80937001709161018090E00690909D
:10596000E106A090E206B090E306C090DC06D0907D
:10597000DD06E090DE06F090DF0684EF682E86E01C
:10598000782E90E0A7E368E0BDE6F30180E0AF0188
:10599000445F5640772311F195018401042E04C021
:1059A00036952795179507950A94D2F700FF02C000
:1059B000B08301C060839701860104C036952795A6
:1059C000179507954A95D2F70B831C832D833E8349
:1059D00000FD16C040814068408312C097018601D7
:1059E00004C036952795179507954A95D2F70B83EE
:1059F0001C832D833E8300FF02C0608301C0A0830F
:105A00008F5F833031F0823011F4973011F0389687
:105A1000BECF9F5F1FEF611A710A983009F0B5CFB2
:105A20005EC3332319F08091FF012AC08091AE023A
:105A30004091070147FF842F90910601992311F0AF
:105A400081EF1EC090E0049647FD0EC0B201A10197
:105A500004C0440F551F661F771F8A95D2F7DB01DC
:105A6000CA018095817F0CC0B201A10104C0440F1E
:105A7000551F661F771F8A95D2F7DB01CA01816027
:105A800080936E01253099F480916D0198EF980F05
:105A9000963010F485E506C0833090F08650823051
:105AA00078F08FEF8093700180936F014DC02330A9
:105AB00039F490916B0180916C0190936F0142C019
:105AC00080916D01863031F380916A018031D8F484
:105AD000883060F4B201A10104C0440F551F661F55
