:100000000C9473000C949B000C949B000C949B002C
:100010000C949B000C949B000C949B000C949B00F4
:100020000C949B000C949B000C949B000C948403F8
:100030000C949B000C949B000C949B000C949B00D4
:100040000C9409110C949B000C94F90F0C942B1038
:100050000C949B000C949B000C949B000C949B00B4
:100060000C94D9000C949B00C80267036703DB0261
:1000700002034D034D0367036703670367036703C9
:100080006703670367036703CA02670367036703BE
:1000900067036703C302C002A703B403E60318049F
:1000A000C103CF034B041E0C9A0C9A0C9A0CF80B4C
:1000B0000B0C2C0C380CA70CE30C390D390DA60DCC
:1000C000C10EDA0BE40B240C440B810BC10EC10EE4
:1000D0007F0A720BDB0C660C180D570B740DE00BCE
:1000E000DC0B91065B1011241FBECFEFD8E0DEBF02
:1000F000CDBF11E0A0E0B1E0E0E2F5E202C0059082
:100100000D92AA31B107D9F728E0AAE1B1E001C008
:100110001D92A239B207E1F710E0C3E7D0E004C0B6
:100120002197FE010E94EF11C137D107C9F70E9444
:10013000FA100C948E120C940000ECEBF0E080812D
:100140008F70806C80830895DC01ED91FC910190AB
:10015000F081E02D0994449A459A1092A4071092D8
:10016000A3071092A2071092A107E9EBF0E08081AB
:100170008E7F808380818D7F808388E38093B80029
:100180001092EB071092EA0785E48093BC00789404
:100190000895ECEBF0E080818F70806D808308958E
:1001A0008093BB00ECEBF0E080818F7080688083EF
:1001B00008951F920F920FB60F9211242F933F9321
:1001C0004F935F936F937F938F939F93AF93BF935F
:1001D000EF93FF938091B900887F803609F49BC02C
:1001E00078F5883209F45DC090F4803109F456C086
:1001F00038F4882309F4F1C0883009F44FC0F7C0FF
:10020000883109F44EC0803209F468C0F0C08034EF
:1002100009F473C058F4803309F460C0883309F0DE
:10022000E6C08091BC008F708068DBC0803509F427
:1002300058C0883509F446C0883409F0D8C04EC08B
:10024000883909F4BEC0A8F4883709F464C038F4CA
:10025000883609F460C0803709F45DC0C8C08838AA
:1002600009F4AFC0803909F45FC0803809F0BFC01D
:100270005BC0803B09F47AC038F4803A09F463C06B
:10028000883A09F473C0B3C0803C09F4A1C0883C2B
:1002900009F49EC0883B09F47DC0A9C08091E9079C
:1002A0000EC0E091C8078091C707E817B8F481E055
:1002B0008E0F8093C807F0E0E753F84F80810E94CB
:1002C000D00095C0E091A60781E08E0F8093A6072D
:1002D0008091BB00F0E0E955F84F80830E94C9008F
:1002E00082C0E091A60781E08E0F8093A6078091DF
:1002F000BB00F0E0E955F84F80832091A60730E07D
:100300008091A50790E00197281739070CF059C094
:100310000E949D006CC085E090E09093EB07809375
:10032000EA071092A60748C0E091A60781E08E0F69
:100330008093A6079091BB00F0E0E955F84F9083B9
:10034000803230F33EC08091BC008F70806C80930F
:10035000BC00E091A307F091A407309709F443C0D3
:1003600067EA77E08091A60709953DC084E090E0B8
:100370009093EB078093EA07E091A107F091A20721
:10038000309731F069EC77E080E209958093C707F8
:100390001092C807E091C80781E08E0F8093C807CC
:1003A000F0E0E753F84F80818093BB009091C8073D
:1003B0008091C707981728F48091BC008F70806CDB
:1003C00004C08091BC008F7080688093BC000FC017
:1003D0008091BC008F70806C04C08091BC008F70D5
:1003E000806D8093BC001092EB071092EA07FF919A
:1003F000EF91BF91AF919F918F917F916F915F919D
:100400004F913F912F910F900FBE0F901F90189515
:10041000CF9380E091E0EBE6F6E0DF019C011D92D6
:1004200021503040E1F780E894E0EBEEF1E0DF01AD
:100430009C011D9221503040E1F7C9E1E6E2F1E074
:10044000DF012C2F1D922A95E9F74EE050E06CE376
:1004500070E08DED91E00E947F12EFE3F1E0DF01AB
:100460002C2F1D922A95E9F7E4ECF1E0DF012C2F07
:100470001D922A95E9F74EE050E06CE370E08DE9BB
:1004800091E00E947F12EBEAF1E0DF012C2F1D9238
:100490002A95E9F7E3E8F7E0DF011D92CA95E9F74D
:1004A00089E0EAE7F7E0DF01282F1D922A95E9F7B6
:1004B000EDE1F1E0DF01282F1D922A95E9F7E4E94B
:1004C000F1E0DF011D928A95E9F7CF9108950E942E
:1004D000AB008AE48093BA0086E59AE09093A40783
:1004E0008093A3078CEA92E09093A2078093A107E0
:1004F0008CE3E8E5F1E0DF011D928A95E9F70C94C1
:100500000802E0911A01F0911B0190911C0121E079
:10051000290F20931C01E90FF11D80830895EF92AC
:10052000FF921F93CF93DF931F92CDB7DEB7182FA3
:100530007C018E2D811B861740F4F70181917F018C
:1005400069830E9481026981F4CF0F90DF91CF917E
:100550001F91FF90EF90089510921C0170931B0162
:1005600060931A0120917607822F90E0FC01349766
:10057000E831F10508F0ABC0EC5CFF4F0C94EF11D3
:100580008091790702C0809175070E9481029FC007
:1005900086E0FBCF80917507813059F420916C077C
:1005A00040E1249F9001112480916D078F70822B70
:1005B000ECCF8FEFEACFE0917207F0E0EA5DFE4FFB
:1005C00080810E948102E0917207F0E0E15CFE4FC1
:1005D00080810E948102E0917207EE3028F4F0E001
:1005E000E352FE4F808101C080E00E948102E091D1
:1005F0007207E03128F0F0E0E35FFE4F8081C5CF65
:1006000080E0C3CF80917207E091710790E1E99F8C
:10061000F0011124E80FF11DEE0FFF1FEE0FFF1F79
:10062000E559F94F81810E94810280917207E09122
:10063000710730E1E39FF0011124E80FF11DEE0F87
:10064000FF1FEE0FFF1FE559F94F80810E948102C5
:1006500080917207E091710740E1E49FF00111245D
:10066000E80FF11DEE0FFF1FEE0FFF1FE359F94FCB
:1006700081810E94810280917207E091710790E16F
:10068000E99FF0011124E80FF11DEE0FFF1FEE0F9F
:10069000FF1FE559F94F828178CF8091720790E072
:1006A00040973091710749E0349F800D911D1124CE
:1006B00035E0880F991F3A95E1F730E1239F800DCF
:1006C000911D112460E1855A9E4F0E948F028091F6
:1006D0001C01089540911A0150911B0120911C01A9
:1006E00031E0320F30931C01FA01E20FF11D8081DD
:1006F00090E0982F88272E5F20931C01FA01E30FCA
:10070000F11D2081822B08951F920F920FB60F9238
:1007100011248F93809170078F5F809370078F9162
:100720000F900FBE0F901F901895EF92FF920F93AE
:100730001F93CF93842F462F50E0FA013197E73073
:10074000F10508F0F2C0E45BFF4F0C94EF1140910B
:100750006C079091740720E1429FA0011124490F7A
:10076000511D405451090AC040916C0730EF3403C9
:10077000A001112490917407491B5109440F551F82
:1007800019C090916C07933009F0CFC04091740765
:1007900039E0439FA0011124405851090BC09091AA
:1007A0006C07933009F0C1C04091740737EF3403F0
:1007B000A00111249A01280F311DC90120383105EB
:1007C00014F08FE790E0209107015EC020916C0744
:1007D00090E05091740740910701E22FF0E0223041
:1007E00078F4A4E0EE0FFF1FAA95E1F7E50FF11DE5
:1007F000B097EE0FFF1FEE0FFF1F8E0F9F1F11C050
:1008000022E030E02E1B3F0B74E0220F331F7A955D
:10081000E1F7251B3109220F331F220F331F820FEF
:10082000931F8038910514F08FE790E0242F2CC09F
:1008300060916C0790E04091740750910701262F5A
:1008400030E0623050F410EF1203B001139F700DCE
:1008500011249B01241B31090BC02250310964E093
:10086000220F331F6A95E1F7240F311D2052310901
:10087000220F331F220F331F820F931F80389105E1
:1008800014F08FE790E0252F30E0821793070CF0EB
:100890004CC0C9014AC0C82F60910701E62EF12C57
:1008A000082F10E070E080E090E02FE730E040E0BB
:1008B00050E00E94D710C801861B9109803891052D
:1008C0007CF46091070170E080E090E02FE730E079
:1008D00040E050E00E94D7109801261B310902C069
:1008E0002FE730E0809107012E153F05F4F0682FC7
:1008F00070E080E090E02FE730E040E050E00E94C0
:10090000D710061B11090038110574F46091070116
:1009100070E080E090E02FE730E040E050E00E949F
:10092000D7108C2F861B01C08FE7CF911F910F919D
:10093000FF90EF9008958091060120E6829FC0010C
:1009400011246CE370E00E949A119B01770F440B15
:10095000550B60E472E48FE090E00E94D0112150CA
:10096000310930938900209388000895909174078D
:1009700020916C0749E0249F90011124F901E80FB0
:10098000F11D85E0EE0FFF1F8A95E1F7E551FE4F5F
:10099000E90FF11D80898F77089590917407209158
:1009A0006C0749E0249F90011124F901E80FF11D23
:1009B00085E0EE0FFF1F8A95E1F7E90FF11DE55184
:1009C000FE4F80818F770895CF93DF9390916C07CE
:1009D0004091740750E069E0969F90011124280F20
:1009E000311D95E0220F331F9A95E1F7F901E40FCD
:1009F000F51FE551FE4FC081C295C695C695C270E0
:100A000025513E4FF901E40FF51F9089991F992751
:100A1000991FC92B51F4D82F0E94CD04811105C014
:100A20008D2F0E94B6048111C4E08C2FDF91CF91ED
:100A30000895CF93DF9360E070E040E050E0E0E0A5
:100A4000F0E0EA01C60FD71FDF01AC0FBD1FA551B3
:100A5000BE4F50962C915097922F9F7779F0181691
:100A600024F49F3739F09F5F05C0882319F0913037
:100A700009F091502078922B50969C933196E0315A
:100A8000F10511F7405E5E4F403894E05907B9F622
:100A9000605E7F4F603291E0790779F6DF91CF9108
:100AA00008958F929F92AF92BF92FF920F931F93E0
:100AB000CF93DF935091720770E0E52FF0E0242F81
:100AC00030E0082E000C990B503108F0EBC014E018
:100AD000660F771F1A95E1F7DB01AE0FBF1FAA0F54
:100AE000BB1FAA0FBB1FA559B94FCD91DC91119720
:100AF0008E01042E02C0169507950A94E2F7502F36
:100B00005170F52E12960D911C9113975801042ED9
:100B100002C0B694A7940A94E2F75A2D5170820F3E
:100B2000931F9801082E02C0369527950A94E2F784
:100B300021708E01082E02C0169507950A94E2F7DF
:100B4000812C912C54018394042E04C0880C991C90
:100B5000AA1CBB1C0A94D2F700FF03C0C829D929DC
:100B600004C080949094C821D921CD93DC93DB01FB
:100B7000AE0FBF1FAA0FBB1FAA0FBB1FA559B94FAE
:100B8000222391F001E010E020E030E004C0000FEB
:100B9000111F221F331F4A95D2F71296CD91DC9177
:100BA00013970C2B1D2B13C001E010E020E030E068
:100BB00004C0000F111F221F331F4A95D2F7009562
:100BC000109512962D913C9113970223132313969F
:100BD0001C930E931297DB01AE0FBF1FAA0FBB1F12
:100BE000AA0FBB1FA559B94F01E010E020E030E08B
:100BF000082E04C0000F111F221F331F0A94D2F7C2
:100C0000FF2031F0CD91DC9111970C2B1D2B07C0EB
:100C1000009510952D913C911197022313230D936C
:100C20001C935523F9F0DB01AE0FBF1FAA0FBB1FAA
:100C3000AA0FBB1FA559B94F41E050E060E070E03A
:100C400004C0440F551F661F771F8A95D2F712966E
:100C50008D919C911397482B592B13965C934E932F
:100C6000129755C0E60FF71FEE0FFF1FEE0FFF1F85
:100C7000E559F94F41E050E060E070E08A019B01E6
:100C800004C0000F111F221F331F8A95D2F7D9010C
:100C9000C801809590952281338182239323938389
:100CA000828335C07097A9E0A69FA001A79F500D31
:100CB0001124E40FF51F45E0EE0FFF1F4A95E1F701
:100CC000AF01420F531F45515E4FDA010C91B9013C
:100CD000605F7F4FEF01C60FD71FC551DE4F1881F0
:100CE000D901A80FB91FAE0FBF1FA551BE4F2C9140
:100CF000860F971FE80FF91FBF0165517E4FFB015B
:100D00008081FA01208388830C93DB011C93DF919F
:100D1000CF911F910F91FF90BF90AF909F908F90B8
:100D200008959091080180910901980F8FE7891B20
:100D300080939C070895CF93DF93C0EBD0E0BE0172
:100D40008CEE97E00E94A4006BE770E08CEE97E0D9
:100D50000E94A40060E08CEE97E00E94520F219662
:100D6000C03CD10561F7DF91CF9108951F93CF93D8
:100D7000DF931F92CDB7DEB7162F30E0B901680FB1
:100D8000711D8CEE97E049830E94A400612F8CEEC8
:100D900097E00E94520F4981642F8CEE97E00F90EC
:100DA000DF91CF911F910C94520FFF920F931F93DD
:100DB000CF93DF93D82FC42FF22E10E0015C1E4F8B
:100DC000F801208167FD6FE74F2D8D2F0E94B60639
:100DD000CC2381F0F8012081C7FD02C06C2F01C037
:100DE0006FE74F2D8D2FDF91CF911F910F91FF90C6
:100DF0000C94B606DF91CF911F910F91FF9008954B
:100E00008F929F92AF92BF92CF92DF92EF92FF921A
:100E10000F931F93CF93DF93082FD42F482F50E0C9
:100E2000FA01EA5DFE4F9081983008F462C02130EB
:100E300019F4C0E8D0E001C0C0E99A3059F148F493
:100E4000983021F1993009F054C047E0460F6D5FAA
:100E50002CC09C3039F110F19D3009F04AC02CE0D3
:100E6000862F622F0E948E11829F802D112425E0F3
:100E7000929F60011124812C912CFA01E15CFE4FBC
:100E80007F01A82EB12C1FEF180F28C047E0460F96
:100E90006C5F0BC047E0460F6B5F07C0645F2D2F90
:100EA00040E004C048E1460F645F2D2F8C2F0E9464
:100EB000D5061FC0F7012081C501860F911D81381D
:100EC0009105ACF4610F4D2F8C2F0E94B606FFEFF9
:100ED0008F1A9F0A25E08216910459F0F401EC0D57
:100EE000FD1DE85AFE4F6081662389F3E3CF6FE76B
:100EF000EACFDF91CF911F910F91FF90EF90DF909C
:100F0000CF90BF90AF909F908F9008950F931F93B5
:100F1000CF93DF93C82FD0E08E010D57184FF80103
:100F200060816623A9F021E040E00E940007FE01F5
:100F3000EA5DFE4F80818D3049F0C15CDE4F288133
:100F400040E0F801608180E80E94B606F801108256
:100F5000DF91CF911F910F910895EF92FF920F9320
:100F60001F93CF93DF93082FF62E142FE22EC82F56
:100F7000D0E0211103C00E94860708C0411106C0BD
:100F8000803120F0FE01E659F84F1081FE01EA5D44
:100F9000FE4F80818D3049F0FE01E15CFE4F2081E3
:100FA000412F6F2D80E90E94B60620E0412F6F2D62
:100FB000802F0E940007EE2019F0802F0E948607E4
:100FC000FE01ED57F84FF082003128F0112319F09F
:100FD000C659D84F1883DF91CF911F910F91FF9081
:100FE000EF9008958F929F92AF92BF92CF92DF922F
:100FF000EF92FF920F931F93CF93DF93809170072F
:10100000882309F481C180916E078823A1F0809123
:101010006F07811106C068EF70E08CEE97E00E94C8
:10102000A40080916F078F5F843018F480936F075E
:1010300002C010926F0790917307992359F09C306A
:1010400049F0809173078F5F80937307883108F0B0
:10105000ECC0FBC080916D078F5F803118F48093E6
:101060006D0702C010926D0700919C0711E091116D
:1010700001C010E080916C07C12FD0E0409174074F
:101080009E0150E2859F200D311D1124F901EE0FC4
:10109000FF1FED55F94F60817181042E02C07695D6
:1010A00067950A94E2F7617050910901220F331F8E
:1010B000F901E955F94F8081918102C09695879594
:1010C0004A95E2F7817090910801899F802D112443
:1010D000659F800D1124080FE12CF12C80916C0785
:1010E000F70190E1899FE00DF11D1124EE0FFF1F24
:1010F000EC0FFD1FEE0FFF1FE559F94F8081918125
:101100000090740702C0969587950A94E2F780FFD5
:1011100011C0402FF701EA5DFE4F60818E2D0E94C5
:10112000950320E0482FF701E352FE4F60818E2D9A
:101130000E94AD07EFEFEE1AFE0AFEE0EF16F10493
:1011400069F65DE1E52E51E0F52EC0E0D0E069E002
:10115000C62EDC2EF70181917F01882319F08130A2
:10116000A9F15DC08C2F0E94E404082F8C2F0E94EF
:10117000B604B82E91E0811101C090E0112309F46A
:10118000BDC08EEF800F823008F0BCC0013029F462
:1011900080E18D0D0E94860742C0992309F43FC06B
:1011A0008D2D0E94CD04482FFE01EA5DFE4F60891F
:1011B0008D2D0E94950321E0043009F020E0482F96
:1011C0006B2D80E18D0D0E94AD0729C0111127C044
:1011D00020916C078091740790E0AE01C29E400D93
:1011E000511D11249A0145E0220F331F4A95E1F762
:1011F000F901E80FF91FE551FE4F6081662379F090
:1012000025513E4FD901A80FB91F6150FE01E15C85
:10121000FE4F208150964C9180EB0E94B60621969D
:10122000C930D10509F095CF0CCF80917907803472
:1012300018F48F5F80937907109273078091740779
:101240008F5F803140F480937407809170078150E4
:101250008093700759C01092740780916C078F5F5C
:1012600080936C0790910501981778F710926C079E
:101270008091A007882349F31092A0078091040170
:101280008093050104EC11E086E2A82E81E0B82EDF
:101290009BEAC92E91E0D92E2FE3E22E21E0F22E17
:1012A000C0E0D0E08C2F4801F5012081F801908149
:1012B000291305C0F7012081F601908129130E94AE
:1012C00086070F5F1F4FF4018081F50181935F0155
:1012D000F60181916F01F70181937F01CE30D10535
:1012E00040F4FE01E356FE4F8081FE01E352FE4FC3
:1012F00080832196C931D105A9F6A7CF033009F023
:1013000045CF8DCF90E042CFDF91CF911F910F91CC
:10131000FF90EF90DF90CF90BF90AF909F908F9015
:1013200008950C94F207BF92CF92DF92EF92FF9252
:101330000F931F93CF93DF931092790710926D074D
:1013400010926C0710926F07109273071092740737
:1013500010927707109278079FE3E92E91E0F92E1B
:101360008701C3E8D7E0DC2E8EE0D80E68816623C3
:1013700031F0F801208140E080E80E94B606199221
:101380000F5F1F4FDC12F2CF8AE7C82E87E0D82EFE
:1013900003E917E0CDE1D1E0BC2E89E0B80E8991D8
:1013A00081110DC0F80170978081882341F0F70109
:1013B000208140E0F801608180E80E94B606F601D5
:1013C00011926F01F80111928F01FFEFEF1AFF0ADE
:1013D000BC12E5CFDF91CF911F910F91FF90EF905D
:1013E000DF90CF90BF900895CF93C1E0C093750771
:1013F0000E949309C09370070E94F20780916E07C4
:10140000882331F06AEF70E08CEE97E00E94A40030
:101410001092810010928000809181008260809300
:101420008100809181008860809381000E949B04EC
:1014300080916F00826080936F00CF9108958091BA
:101440006F008D7F80936F0010928900109288004A
:1014500010928100109280001092700780916E07A8
:10146000882331F06CEF70E08CEE97E00E94A400CE
:10147000109275070E9493090C949B0626E088231E
:1014800029F040E056E960E070E004C042E15AE72C
:1014900060E070E08CEE97E00E94990F8CEE97E090
:1014A0000E94300F0E9493090C949B062F923F924A
:1014B0005F926F927F928F929F92AF92BF92CF92E4
:1014C000DF92EF92FF920F931F93CF93DF9370936E
:1014D0001B0160931A0181E080931C01DB012C91B8
:1014E00020937607822F90E0FC013797EE31F105CB
:1014F00008F047C4DB01ED5AFF4F0C94EF11A090A8
:101500007807B0907707A11005C0B11003C081E043
:101510008093A00711966C901197712C762C6624FD
:1015200012968C911297682A13968C901397912C8F
:10153000982C882485E080931C0114968C91149734
:10154000882A41E050E060E070E00A2C04C0440FBB
:10155000551F661F771F0A94D2F78A01CA0180952A
:1015600090952B2D30E0B90146E0660F771F4A9524
:10157000E1F7FB01E559F94F40EC42036001439F5D
:10158000D00C112440E050E0542E9F012C0D3D1D45
:10159000E301042E02C0D595C7950A94E2F7C0FF77
:1015A00009C07901E60EF71EE70128803980202A5C
:1015B000312A08C07901E60EF71EE701288039803C
:1015C0002822392239822882E40102C0D595C795A4
:1015D0005A94E2F7C0FF07C022813381202B312BC0
:1015E0003383228309C0260F371FE901EA80FB807D
:1015F000E822F922FB82EA824F5F5F4F34964E3039
:10160000510511F680E291E0B89EA001B99E500DFF
:1016100011244A0D511D20E030E080911C0191E021
:10162000980F90931C01FD01E80FF11D6081F901F5
:10163000E40FF51FE551FE4F60838E5F80931C0120
:10164000ED01C90FD11D8881808B205E3F4F203274
:10165000D1E03D0711F781E08A0D803118F48093C5
:1016600078070BC01092780781E08B0D843018F456
:101670008093770702C010927707809179078823BB
:1016800009F47FC381503AC0DF91CF911F910F9130
:10169000FF90EF90DF90CF90BF90AF909F908F9092
:1016A0007F906F905F903F902F900C94080282E0A3
:1016B00080931C0111968C91813009F08FEFDF919E
:1016C000CF911F910F91FF90EF90DF90CF90BF903F
:1016D000AF909F908F907F906F905F903F902F90F2
:1016E0000C941905109277071092780790916C0767
:1016F00080917407E0E19E9F800D1124809379070B
:1017000040C382E080931C0111968C9180937207F4
:10171000E82FF0E08031B8F5DF01AA0FBB1FAA0F58
:10172000BB1FA559B94FED01CE53DF4F1982188267
:10173000EF01CC0FDD1FCC0FDD1FC55DD84F198227
:101740001882ED01CE57DF4F19821882EF01CC0FBE
:10175000DD1FCC0FDD1FC551D94F19821882ED0155
:10176000CE5BDF4F19821882EE0FFF1FEE0FFF1FB7
:10177000E555F94F1182108213961C921E92129712
:101780001D921C92FEC2A5E0EE0FFF1FAA95E1F785
:10179000E55BFC4F80E01192DF01A152B1401C9249
:1017A000A052B1401C92A052B1401C928F5F803277
:1017B00091F7E7C280E009C081E080939E07E1C213
:1017C00081E080939D07DDC281E0DF91CF911F9181
:1017D0000F91FF90EF90DF90CF90BF90AF909F90D0
:1017E0008F907F906F905F903F902F900C943E0A67
:1017F000DF91CF911F910F91FF90EF90DF90CF90ED
:10180000BF90AF909F908F907F906F905F903F9030
:101810002F900C941F0ADF91CF911F910F91FF9091
:10182000EF90DF90CF90BF90AF909F908F907F9080
:101830006F905F903F902F900C94F40982E080931A
:101840001C0111968C9180C082E080931C0111963E
:101850008C918093070195C282E080931C0181E006
:1018600011969C91913009F080E080939F0789C286
:1018700011962C91119720937207822F90E0129667
:101880003C911297FC01EA5DFE4F308334E03093C7
:101890001C0113963C911397FC01E15CFE4F3083D1
:1018A0002E3030F414962C91FC01E352FE4F2DC0E3
:1018B0002031E0F1E0911A01F0911B0126E0209324
:1018C0001C012581FC01E35FFE4F2EC011962C9177
:1018D000119720937207822F90E012963C911297F5
:1018E000FC01EC53FE4F308334E030931C0113961F
:1018F0003C911397FC01E555FE4F30832E3038F4B0
:1019000014962C91FC01E356FE4F20830FC020312A
:1019100068F0E0911A01F0911B0126E020931C0170
:101920002581FC01EC57FE4F20832BC286E080937B
:101930001C0127C211968C9111978093710783E047
:1019400080931C0112968C91809372071AC281E0D9
:1019500011969C911197913009F080E080936E0769
:1019600083E080931C0112968C9190910601981748
:1019700041F08093060180917507813011F40E9437
:101980009B0420911A0130911B0180911C0191E070
:10199000980F90931C01F901E80FF11D40814093CD
:1019A00005018E5F80931C01F901E90FF11D808113
:1019B00080936B07E6C182E080931C0111968C91A5
:1019C00080930401DEC11196CC911197C0937107E9
:1019D00083E080931C011296DC91D09372070E94E1
:1019E0006A0320E1C29FF0011124ED0FF11DEE0FFB
:1019F000FF1FEE0FFF1FE559F94F91838083009180
:101A0000710710E080917207C82FD0E00E946A032E
:101A100064E0000F111F6A95E1F7C00FD11FCC0FD2
:101A2000DD1FCC0FDD1FC559D94F9B838A83A9C108
:101A300082E080931C0111962C91119745E0249F20
:101A40009001112480E090E040911C0151E0540F7E
:101A500050931C01FD01E40FF11D4081FC01E20FD8
:101A6000F31FE85AFE4F408301968530910561F7D8
:101A700088C111964C9111974093710783E0809330
:101A80001C0112969C9112979093720730E021519D
:101A9000310984E0220F331F8A95E1F7892F90E006
:101AA00059E0459F800D911D112445E0880F991F35
:101AB0004A95E1F7820F931F20E030E040911C012E
:101AC00051E0540F50931C01FD01E40FF11D4081C2
:101AD000F901E80FF91FE551F04040832F5F3F4FB8
:101AE0002031310559F74DC111968C9111978823FA
:101AF00011F0D1E001C0DFEF83E080931C0112966A
:101B00001C9180919F07882351F0C0E0412F6C2FDA
:101B10008D2F0E945105CF5FC430C1F732C1412FD4
:101B2000609171078D2FDF91CF911F910F91FF90E1
:101B3000EF90DF90CF90BF90AF909F908F907F906D
:101B40006F905F903F902F900C94510582E08093AE
:101B50001C011196DC90119720917207C0907107BB
:101B600070909F07822F90E0203108F09DC0812C5B
:101B7000912C540183940D2C04C0880C991CAA1C30
:101B8000BB1C0A94D2F78401E401C095D095E0E132
:101B9000CE9E90011124F901E80FF91FEE0FFF1FEF
:101BA000EE0FFF1FE559F94F408151814C235D2312
:101BB00051834083628173817E01E622F722F382A2
:101BC000E2820F2EF3E0FF2EF02DF0921C01129610
:101BD000AC91A13069F0A23029F4862A972A938229
:101BE00082820AC0A33041F4682979297383628311
:101BF000842A952A91828082772021F040919E0745
:101C0000442349F040919D07411105C010929D0762
:101C100010929E07B6C061E070E002C0660F771FA9
:101C2000DA94E2F7FC01EE0FFF1FEE0FFF1FE559FC
:101C3000F94F40E0D901A80FB91FAA0FBB1FAA0F87
:101C4000BB1FCD018559994F7C019C012E5F3F4FF1
:101C50004C1521F1D7018D919C9186239723892BD7
:101C600029F080819181802B912B04C0808191810A
:101C70008C239D2391838083D9018D919C91862310
:101C80009723892B29F082819381802B912B04C08B
:101C9000828193818C239D23938382834F5FE05CB9
:101CA000FF4F4430A9F6B2CF40972D2D30E0129669
:101CB0006C911297AC2CB12CFC01C9E0CC9EE00DCC
:101CC000F11D1124D5E0EE0FFF1FDA95E1F7AF010A
:101CD000420F531F45515E4FEA016883A901405FDF
:101CE0005F4F64E060931C0113966C91E40FF51F45
:101CF000E551FE4F6083772021F060919E076623B7
:101D000029F060919D07662309F480CFFC0165E00E
:101D1000EE0FFF1F6A95E1F7D901AE0FBF1FE40F69
:101D2000F51F60E070E010E009E00A9D70010B9D76
:101D3000F00C11248E0D9F1DC5E0880F991FCA95C8
:101D4000E1F7280F391F25513E4F840F951F85510C
:101D50009E4F1C1581F0E9014881EB01CA0FDB1F82
:101D6000C551DE4F4883EC014881EB01CE0FDF1FE8
:101D7000C551DE4F48831F5F605E7E4F143049F7C8
:101D800045CFDF91CF911F910F91FF90EF90DF90A2
:101D9000CF90BF90AF909F908F907F906F905F900B
:101DA0003F902F900895FC01918D228D892F90E016
:101DB000805C9F4F821B91098F7399270895FC01C6
:101DC000918D828D981731F0828DE80FF11D858DF0
:101DD00090E008958FEF9FEF0895FC01918D828D23
:101DE000981761F0828DDF01A80FB11D5D968C916F
:101DF000928D9F5F9F73928F90E008958FEF9FEF7A
:101E0000089581E590E1892B49F080E090E0892BED
:101E100029F00E94511081110C9400000895FC01DA
:101E2000848DDF01A80FB11DA35ABF4F2C91848D63
:101E300090E001968F739927848FA689B7892C9398
:101E4000A089B1898C9180648C93938D848D981333
:101E500006C00288F389E02D80818F7D80830895FC
:101E6000CF93DF93EC01888D8823C9F0EA89FB8941
:101E7000808185FD05C0A889B9898C9186FD0FC038
:101E80000FB607FCF5CF808185FFF2CFA889B9890D
:101E90008C9185FFEDCFCE010E940F0FE7CFDF9130
:101EA000CF910895EF92FF920F931F93CF93DF93FB
:101EB000EC0181E0888F9B8D8C8D981305C0E8899B
:101EC000F989808185FD24C0F62E0B8D10E00F5F0F
:101ED0001F4F0F731127E02E8C8DE8120CC00FB628
:101EE00007FCFACFE889F989808185FFF5CFCE011B
:101EF0000E940F0FF1CF8B8DFE01E80FF11DE35A09
:101F0000FF4FF0820B8FEA89FB898081806207C0D6
:101F1000EE89FF896083E889F98980818064808304
:101F200081E090E0DF91CF911F910F91FF90EF90B2
:101F30000895CF92DF92EF92FF921F93CF93DF939A
:101F4000EC016A017B01122F60E874E88EE190E0F9
:101F5000A70196010E94AE11DA01C9010197A109FA
:101F6000B109B695A79597958795AC01E889F98948
:101F700082E08083411580E15807A8F0E889F9895B
:101F8000108260E472E48FE090E0A70196010E9465
:101F9000AE11BA01A9014150510961097109769543
:101FA000679557954795EC85FD855083EE85FF85B0
:101FB0004083188EEC89FD891083EA89FB89808132
:101FC00080618083EA89FB89808188608083EA89D7
:101FD000FB89808180688083EA89FB8980818F7D8D
:101FE0008083DF91CF911F91FF90EF90DF90CF9092
:101FF00008951F920F920FB60F9211242F938F9373
:102000009F93EF93FF93E091FC07F091FD07808190
:10201000E0910208F091030882FD12C09081809146
:1020200005088F5F8F7320910608821751F0E091A9
:102030000508F0E0E451F84F958F8093050801C042
:102040008081FF91EF919F918F912F910F900FBE03
:102050000F901F9018951F920F920FB60F92112498
:102060002F933F934F935F936F937F938F939F93A0
:10207000AF93BF93EF93FF938CEE97E00E940F0F07
:10208000FF91EF91BF91AF919F918F917F916F9150
:102090005F914F913F912F910F900FBE0F901F9026
:1020A00018958CEE97E00E94D30E21E0892B09F45D
:1020B00020E0822F0895ECEEF7E01382128288EE82
:1020C00093E0A0E0B0E084839583A683B7838EE09D
:1020D00091E09183808385EC90E09587848784EC00
:1020E00090E09787868780EC90E0918B808B81ECE5
:1020F00090E0938B828B82EC90E0958B848B86ECC6
:1021000090E0978B868B118E128E138E148E08950D
:10211000CF92DF92EF92FF920F931F93CF93DF93B3
:102120006C017A018B01C0E0D0E0CE15DF0589F0AB
:10213000D8016D918D01D601ED91FC910190F08156
:10214000E02DC6010995892B11F47E0102C021966C
:10215000ECCFC701DF91CF911F910F91FF90EF90CE
:10216000DF90CF900895CF93DF9300D000D0CDB70C
:10217000DEB7611571058105910579F09B01AC0110
:1021800069833A834B835C830E94711229813A816F
:102190004B815C810E94D01103C060E070E0CB01F4
:1021A0000F900F900F900F90DF91CF910895CF92E5
:1021B000DF92EF92FF920F931F93621773078407CA
:1021C000950784F489019A016B017C01C901B8016A
:1021D0006C197D098E099F090E94B3106C0D7D1D3D
:1021E0008E1D9F1D1F910F91FF90EF90DF90CF905C
:1021F000089508950E9453110E94F9100E946702E9
:10220000C1E0DFE00E9491092097E1F30E94010FF5
:10221000F9CF1F920F920FB60F9211242F933F9375
:102220008F939F93AF93BF9380918A0890918B086F
:10223000A0918C08B0918D083091890826E0230F79
:102240002D3720F40296A11DB11D05C029E8230FEA
:102250000396A11DB11D2093890880938A0890934D
:102260008B08A0938C08B0938D0880918E08909174
:102270008F08A0919008B09191080196A11DB11D01
:1022800080938E0890938F08A0939008B093910844
:10229000BF91AF919F918F913F912F910F900FBE62
:1022A0000F901F901895789484B5826084BD84B592
:1022B000816084BD85B5826085BD85B5816085BD41
:1022C000EEE6F0E0808181608083E1E8F0E010825A
:1022D000808182608083808181608083E0E8F0E09B
:1022E000808181608083E1EBF0E080818460808385
:1022F000E0EBF0E0808181608083EAE7F0E08081BC
:102300008460808380818260808380818E7F8083EF
:102310008081806880831092C1000895991B79E0C4
:1023200004C0991F961708F0961B881F7A95C9F765
:102330008095089597FB072E16F4009407D077FD3B
:1023400009D00E94001207FC05D03EF490958195BB
:102350009F4F0895709561957F4F0895A1E21A2EC1
:10236000AA1BBB1BFD010DC0AA1FBB1FEE1FFF1F39
:10237000A217B307E407F50720F0A21BB30BE40B89
:10238000F50B661F771F881F991F1A9469F76095D0
:102390007095809590959B01AC01BD01CF0108958A
:1023A000052E97FB1EF400940E94E71157FD07D0FD
:1023B0000E94AE1107FC03D04EF40C94E711509527
:1023C0004095309521953F4F4F4F5F4F0895909521
:1023D0008095709561957F4F8F4F9F4F0895EE0FB9
:1023E000FF1F0590F491E02D09940E941412A59FFF
:1023F000900DB49F900DA49F800D911D1124089500
:10240000AA1BBB1B51E107C0AA1FBB1FA617B7071A
:1024100010F0A61BB70B881F991F5A95A9F7809536
:102420009095BC01CD010895A29FB001B39FC0015A
:10243000A39F700D811D1124911DB29F700D811DF0
:102440001124911D08958F929F92AF92BF92CF92C7
:10245000DF92EF92FF92CF93DF93EC016881798155
:102460008A819B81611571058105910521F464E2E2
:1024700079ED8BE597E02DE133EF41E050E00E94EC
:10248000D01149015A019B01AC01A7EAB1E40E94B5
:10249000F5116B017C01ACEEB4EFA50194010E9433
:1024A0008912DC01CB018C0D9D1DAE1DBF1DB7FF38
:1024B00003C00197A109B04888839983AA83BB838D
:1024C000BC01CD019F77DF91CF91FF90EF90DF901E
:1024D000CF90BF90AF909F908F9008950E9423124D
:1024E000089580E091E00E94231208956093000116
:1024F0007093010180930201909303010895DC0120
:1025000001C06D9341505040E0F70895B7FF0C941F
:10251000F5110E94F511821B930B0895F894FFCFDB
:102520000100000003037804202000000000520F87
:0A2530008810D30EED0EDF0E300F01
:00000001FF
