:100000000C9491000C94B9000C94B9000C94B900B4
:100010000C94B9000C94B9000C94B9000C94B9007C
:100020000C94B9000C94B9000C94B9000C94B9006C
:100030000C94B9000C94B9000C94B9000C94B9005C
:100040000C940D330C94B9000C94B9000C94B900C5
:100050000C94B9000C94B9000C94B9000C94B9003C
:100060000C94E0310C94B900A902AD02B302B502C0
:10007000B502C102C102B902CA02BD02C102C60272
:10008000160F160F1B104510AF109B10CE10E71067
:100090005911FD103F1024115911591159115611C0
:1000A000561177187718DA19051A441A571A701A60
:1000B000761A121B821A121B8D1A121B121B121B8C
:1000C000AD1AAF1A00000008000201000003040787
:1000D0000000000000000000000000010204081001
:1000E0002040800102040810200102040810204072
:1000F0008040040404040404040402020202020214
:100100000303030303030202030000000025002889
:10011000002B0000000000240027002A0000230517
:10012000E83011241FBECFEFD8E0DEBFCDBF11E015
:10013000A0E0B1E0E4E6FAE602C005900D92A6392F
:10014000B107D9F726E0A6E9B1E001C01D92A831B8
:10015000B207E1F710E0C1E9D0E004C02197FE0149
:100160000E940D35CF38D107C9F70E94C9340C94CD
:1001700030350C94000004960C949529CF93DF93AE
:100180001F92CDB7DEB7698341E050E0BE016F5FDB
:100190007F4F04960E9495290F90DF91CF9108958B
:1001A000895B9D4F0C944E22895B9D4F0C94EB21F3
:1001B000CF93DF931F92CDB7DEB741E050E0BE0191
:1001C0006F5F7F4F0E944323019719F4898190E06C
:1001D00002C08FEF9FEF0F90DF91CF910895EF92C4
:1001E000FF920F931F93CF93DF93E82FF0E06111FD
:1001F00078C030911E0190911F01863019F0A32F15
:10020000B92F04C0A0912001B0912101BF01660F58
:10021000771F8B01015D1D4FE801E880F980AE1565
:10022000BF0534F0DFEFED1AFD0AE801F982E8823C
:10023000EB01C15DDD4FE880F9800091130110E012
:100240000E151F059CF48F01055A1D4FE80198817A
:10025000913049F0EA16FB0634F49AEF980F923089
:1002600010F41092EA0291E0E8019883AE15BF0500
:100270000CF06FC0442309F46CC0DF01A55ABD4FD8
:100280009C91923009F465C092E09C93222329F15D
:10029000EB01C75EDD4F288139812115310559F405
:1002A0008650823018F081E08093EA02E05BFD4FD7
:1002B00081E080831C92C9010196FB01E75EFD4F3E
:1002C0009183808320911C0130911D0128173907EB
:1002D00008F03FC0118210823CC0E05BFD4F90836C
:1002E00038C0DF01AA0FBB1FA15DBD4F9091120165
:1002F0006D917C911197691B710977FD03C06D9316
:100300007C9327C01D921C92DF01A55ABD4F442348
:1003100099F09C91923081F49AEF980F923018F0F6
:1003200091E09093EA02EF01C05BDD4F222311F0D0
:1003300091E001C093E098839C91913049F48650FC
:10034000823010F09093EA02E05BFD4F81E0808301
:100350001C92DF91CF911F910F91FF90EF90089524
:1003600069B1607221E041E080E00E94EF0069B174
:10037000607421E041E081E00E94EF0069B16071AA
:1003800021E041E082E00E94EF0063B1607421E06F
:1003900041E083E00E94EF0069B1647021E041E038
:1003A00084E00E94EF0069B1687021E041E085E0DF
:1003B0000E94EF0063B1607820E041E086E00E9497
:1003C000EF0066B1687020E041E087E00E94EF0036
:1003D00063B1617020E040E088E00E94EF0069B105
:1003E000607820E040E089E00E94EF0066B1647030
:1003F00020E040E08AE00C94EF0086E1EFE2F2E0DA
:10040000DF01282F1D922A95E9F79BE0EBE5F2E04A
:10041000DF01292F1D922A95E9F7E0E5F2E0DF01DF
:100420001D929A95E9F7E9E1F2E0DF011D928A95C4
:10043000E9F7089552985A9A53985B9A54985C9A9F
:1004400055985D9A56985E9A57985F9A2098289A80
:1004500026982E9A27982F9A3A98429A3B98439A30
:100460000C94FD0190915602923049F4E82FF0E08F
:10047000E05BFD4F8081813011F41082089580E0AF
:10048000089590915602923049F0E82FF0E0E05B39
:10049000FD4F8081813011F41082089580E008952D
:1004A000E82FF0E0E05BFD4F8081813011F4108295
:1004B000089580E00895FC0180819091E602292F43
:1004C000092E000C330B280F311D70E062177307E3
:1004D00034F050E02417350714F0980F90830895F6
:1004E000FC0180915602823039F49091E602929F8D
:1004F000202D11242093E602CF010C945B0240E0F2
:100500000C945B0280910E0190914D02891738F492
:1005100091E0909319011092180180934D028091FF
:100520000D0190914C02891738F491E090931901D4
:100530001092180180934C02089520914F02822F4F
:1005400090E08C30910530F5FC01EC5CFF4F0C9491
:100550000D3582E080930E010EC083E080930E0182
:1005600080930D0119C081E009C081E080930E01E4
:100570001CC010920E018FE018C082E080930E0123
:1005800002C010920E0110920D0111C010920E01C6
:1005900084E00BC0213059F4E0914702F0E0EF54C1
:1005A000FE4F8081813019F482E080930D010E941A
:1005B000820281E0809319018093180108951092BE
:1005C0004C0210924D0210924B020C949D021F930C
:1005D000CF93DF931F92CDB7DEB7E0914602F0E0F4
:1005E000E353FE4F1089812F8F7789832CE041E000
:1005F0006FE7CE0101960E9470028981E091460268
:10060000F0E0E353FE4F1078182B108B80930B0112
:100610000F90DF91CF911F9108951F93CF93DF9398
:100620001F92CDB7DEB7E0914602F0E0E353FE4FF4
:100630001081812F8F7789832AE040E06FE7CE0118
:1006400001960E9470028981E0914602F0E0E35336
:10065000FE4F1078182B108380930A010F90DF91C2
:10066000CF911F91089580E00E945002882331F0BD
:1006700081E08093190110921801089581E00E9491
:1006800050028111F5CF0895909156028091E602B3
:100690009230C9F4E0914C02F0E0EA56FE4F87FF39
:1006A00007C08081813459F0813629F080E222C070
:1006B0008081803211F480E31DC0803311F481E623
:1006C00019C081E417C087FF0AC0E0914C02F0E036
:1006D000EA56FE4F8081813274F081500BC088232E
:1006E00051F0E0914C02F0E0EA56FE4F80818A37EB
:1006F00014F48F5F80830895CF93DF93CDB7DEB777
:10070000A0970FB6F894DEBF0FBECDBF89EF91E082
:100710000E94812619821A8221E044E451E063E2BA
:1007200075E0CE0101960E948A26882331F064E4A8
:1007300071E083E295E00E940F2719821A8221E07E
:1007400041E351E063E275E0CE0101960E948A2602
:10075000882341F044E451E063E275E0CE01019664
:100760000E947B28A0960FB6F894DEBF0FBECDBFC7
:10077000DF91CF9108956DE085EF91E00E94BE007A
:100780006AE085EF91E00C94BE00CF93DF93C82F11
:100790006AE00E94D934D82F60E3680F85EF91E0BA
:1007A0000E94BE0060E36C0F8AE0D89F601911249C
:1007B00085EF91E0DF91CF910C94BE00CF93DF9352
:1007C00089EF91E00E94D800EC0189EF91E00E944E
:1007D000D800E097C0972AE0C29F800D1124DF91D6
:1007E000CF910895CF93C82F883C38F062E385EF0E
:1007F00091E00E94BE00C85C0EC0843638F061E310
:1008000085EF91E00E94BE00C45605C060E385EF0D
:1008100091E00E94BE008C2FCF910C94C5030F93E2
:100820001F93CF93DF9389EF91E00E94D8008C0152
:1008300089EF91E00E94D800EC0189EF91E00E94DD
:10084000D8009C0111270053110984E6809FA00164
:10085000819F500D1124DD27E0976AE06C9FC00155
:100860006D9F900D1124480F591FC9019927C097FA
:10087000840F951FDF91CF911F910F91089560E232
:1008800085EF91E00C94BE00882311F061E301C074
:1008900060E385EF91E00C94BE0089EF91E00E9447
:1008A000D80091E0813309F090E0892F08950F93EB
:1008B0001F93AC01990F660B770B00910902109101
:1008C0000A0220910B0230910C02400F511F621F4F
:1008D000731F89EF91E01F910F910C94D02482E057
:1008E00090E00C945704CF938AE190E00E94570463
:1008F00089EF91E00E94D800C82F873251F489EF28
:1009000091E00E94D800C82F89EF91E00E94D800A2
:1009100008C00E94DE03C05394E6C99F800D1124D5
:10092000C82F0E946F048C2FCF9108959091470299
:10093000903138F0E82FF0E0E353FE4F80898F7755
:10094000089580E0089590914702903138F0E82FA3
:10095000F0E0E353FE4F80818F77089580E00895A3
:10096000CF93C82F809147028031F0F0EC2FF0E058
:10097000E353FE4F8081829586958695827020890B
:10098000221F2227221F982F922B61F48C2F0E9466
:10099000A304811109C08C2F0E949604882329F09A
:1009A00084E003C0892F01C080E0CF910895909129
:1009B00047029E5081E0923008F080E00895E82FD1
:1009C000F0E0DF01A353BE4F8C918F778C93E352FD
:1009D000FE4F80818F7780830895E82FF0E0DF015C
:1009E000A353BE4F8C918F778C93E352FE4F80813F
:1009F000806880830895E82FF0E0DF01A353BE4FA5
:100A00008C9180688C93E352FE4F80818F77808336
:100A10000895E82FF0E0DF01A353BE4F8C9180686A
:100A20008C93E352FE4F8081806880830895E82F85
:100A3000F0E0DF01A353BE4F1C92E352FE4F8081D2
:100A40008F7780830895ECEFF2E0158210922305F2
:100A50001092240589E1809346051092490589E7A3
:100A600091E091838083E0EFF2E01382128281E8CB
:100A700091E09183808387E2848380E1818782E0B3
:100A80008287138680914F0280934E0280910C01E1
:100A900080934A02E5EFF1E01482158213821282FC
:100AA00081E791E0918380830895CF93C82F65E219
:100AB00070E08FE495E00E9469306C2F8FE495E040
:100AC000CF910C9416306091F3018FE495E00E9471
:100AD0001630609147028FE495E00C9416301F9316
:100AE000CF93DF93EC01162F6C818FE495E00E9489
:100AF0005F308B85612F682B8FE495E00E94163064
:100B00008FE495E0DF91CF911F910C94E53028E0C0
:100B1000FC01238760E00C946F050F931F93CF9324
:100B20008C01C62F64600E946F0581E090E00E94F6
:100B3000C4336C2F6B7FC8010E946F0582E390E085
:100B4000CF911F910F910C94C4331F93CF93DF93D8
:100B5000EC01162F0E946F05612FCE01DF91CF911E
:100B60001F910C948D05FF920F931F93CF93DF93EA
:100B70001F92CDB7DEB78C01F62E962F907F692F8E
:100B8000642BC80149830E94A50580E1F89EB0014D
:100B900011244981642BC8010F90DF91CF911F91DF
:100BA0000F91FF900C94A50540E00C94B30561E013
:100BB0000E94D40580ED97E00C94C43362E00E945B
:100BC000D40580ED97E00C94C433CF93DF93CDB779
:100BD000DEB728970FB6F894DEBF0FBECDBF9C01DD
:100BE00088E0E7E5F1E0DE01119601900D928A952B
:100BF000E1F7F9018085841710F44FEF480FFE01EB
:100C00003196E40FF11DE40FF11D9081690F6068CA
:100C1000C90128960FB6F894DEBF0FBECDBFDF9195
:100C2000CF910C94D405482F42954F70682F6F7068
:100C300080EF92E00C94E50580E00C941306FC0133
:100C40006681262F246026836C600C94D405FC01F9
:100C500066816D7F668368600C94D40580EF92E0B6
:100C60000E94D70580EF92E00E9427060C941C0694
:100C7000FC016681262F226026836A600C94D405CD
:100C80008091EB02882321F080EF92E00C942706FC
:100C900080EF92E00C943806CF92DF92EF92FF92B1
:100CA0000F931F93CF93DF9300D0CDB7DEB78C01A6
:100CB000677088E0689FB00111246064C8014983AF
:100CC0005A830E94D4054981C42E5A81D52E7601BB
:100CD000A8E0EA0EF11CF60161916F01D801ED91D7
:100CE000FC910190F081E02DC8010995CE14DF043C
:100CF00091F70F900F90DF91CF911F910F91FF907F
:100D0000EF90DF90CF90089541E00E94B30581E01D
:100D100090E00895682F80EF92E00C94840680E2C2
:100D20000C948A06CF93DF93D82FC0E0CD1729F01B
:100D300080E20E948A06CF5FF9CFDF91CF910895BC
:100D40000F931F93CF93DF93EC018C01005F1F4F34
:100D50008991882329F00E948A06C017D107C1F71C
:100D6000DF91CF911F910F91089580E792E00C944D
:100D7000A006CF93DF93C82F6AE00E94D934D82F02
:100D800080E38D0F0E948A0680E38C0F9AE0D99F42
:100D900080191124DF91CF910C948A06CF93C82F2C
:100DA000883C28F082E30E948A06C85C0AC0843628
:100DB00028F081E30E948A06C45603C080E30E94A3
:100DC0008A068C2FCF910C94B906CF93C82F80EF51
:100DD00092E00E9427060E941C0680910C010E944E
:100DE000B906CC2329F080911401CF910C948A0686
:100DF000CF910C948F06182FEB010E942E06123013
:100E000018F48FE591E002C082E691E00E94A0060E
:100E100081E20E94410981E3810F0E948A0680E1FC
:100E20000E941306209709F414C090E0FE01E90F18
:100E3000F11D8081882311F09F5FF8CF903110F071
:100E4000905101C090E09E01290F311DC9010E94FF
:100E5000A006FFCF22E04AE06AE475E083E495E073
:100E60000E943821882339F183E295E00E9481268F
:100E700061E08CEF92E00E94B72E882349F06CEF7E
:100E800072E083E295E00E9429238823A1F008C044
:100E900060E08CEF92E00E94B72E8111F0CF0BC082
:100EA00080912305807739F083E295E090934E0599
:100EB00080934D05089560E070E080E00E94FB069D
:100EC000DF92EF92FF920F931F93CF93DF93CDB7F3
:100ED000DEB7A4970FB6F894DEBF0FBECDBF382F94
:100EE000D62E142F8DEF830F843040F583E6809348
:100EF0004C018093390190E790934D0190933A0112
:100F000093E790934F0190933C018093500180931D
:100F10003D018093510180933E01353011F484E608
:100F200008C0363011F48EE604C0333009F061C0D9
:100F300080E780934F0180933C015BC020910601C4
:100F400021110BC084E780934C018093390180E725
:100F500080934D0180933A0113C0822F6AE00E9472
:100F6000D93490E3980F90934C0190933901205D10
:100F70009AE0899F2019112420934D0120933A0172
:100F800020910C01822F6AE00E94D93490E3980FDF
:100F90009093500190933D01205D9AE0899F201924
:100FA00011242093510120933E01313009F4C0CF28
:100FB000323011F483E7BDCF373061F483E680939C
:100FC0004F0180933C0188E68093500180933D015E
:100FD00084E60BC083E780934F0180933C018EE64B
:100FE0008093500180933D0187E680935101809367
:100FF0003E011092E50281E7E82E81E0F82E00E242
:101000008091E502893008F046C0D1101DC01982D8
:101010001A8221E041E351E063E275E0CE010196DE
:101020000E948A26882331F061E371E083E295E033
:101030000E940F271D821E821C821B82FA82E98277
:1010400023E641E351E009C01D821E821C821B82FF
:10105000FA82E98221E044E451E063E275E0CE01E6
:1010600005960E948A26FE013596A9EFB1E0802FF1
:1010700001900D928A95E1F78B819C819093F80104
:101080008093F7018091E5028F5F8093E502809164
:10109000F901882329F08091F901882321F00AC001
:1010A0001111AECF07C0112329F064E471E081E093
:1010B0000E94FB06A4960FB6F894DEBF0FBECDBF0C
:1010C000DF91CF911F910F91FF90EF90DF900895E6
:1010D000CF931092490210924802C0910C012AE06D
:1010E00041E062E68AE492E00E94700280914A0246
:1010F00090910C018917B9F080930C0140E061E0F8
:1011000081E00E9460078091F901811105C0C093C0
:101110004A02C0930C0107C0C0930C0189EF91E013
:10112000CF910C948126CF9108951F93CF93DF9395
:1011300041E061E080E00E946007C6E9D1E01C2F39
:10114000105F89EF91E00E94D80089931C13F9CFBA
:101150000E946F0483E090E00E9457040E940F04F5
:10116000809308010E946F0484E090E00E9457047D
:101170000E94DE038093F2010E946F0484E090E0FD
:101180000E9457040E94DE038093A7010E946F040F
:1011900085E090E00E9457040E944D048093F40182
:1011A00089EF91E0DF91CF911F910C948126FF92FE
:1011B0000F931F93CF93DF93CDB7DEB7A4970FB6EE
:1011C000F894DEBF0FBECDBF1092E50201E711E03B
:1011D00080E2F82E8091E502893038F51D821E826A
:1011E0001C821B821A83098321E042E251E063E200
:1011F00075E0CE0105960E948A26FE013596A9EF7C
:10120000B1E08F2D01900D928A95E1F78B819C8141
:101210009093F8018093F7018091E5028F5F8093AE
:10122000E5028091F9018823A9F28091F9018111E9
:1012300005C062E271E081E00E94FB06A4960FB651
:10124000F894DEBF0FBECDBFDF91CF911F910F91FC
:10125000FF900895CF93DF931F92CDB7DEB794E749
:1012600090932B0189830E94D7088981482F50E0F1
:1012700060E070E089EF91E00F90DF91CF910C94E6
:10128000D0240E942A0989EF91E00E94D8008C376F
:1012900019F00E948A06F7CF89EF91E00C9481261D
:1012A000CF93DF93C82FD62F8E3060F481E08C0F60
:1012B0000E94B9060E948F06DD2321F1DF91CF91B4
:1012C0000C94B5068031B0F4CD5D662341F089E120
:1012D0000E9441098C2F0E948A0684E007C081E4A5
:1012E0000E948A068C2F0E948A068AE0DF91CF91A5
:1012F0000C9492068EE40E948A0681E28C0F0E9472
:101300008A06D8CFDF91CF910895882311F089E222
:1013100001C08DE20C944109FF920F931F93CF936C
:10132000DF931F92CDB7DEB7F42E805D80932B0143
:1013300069830E94D7086981F69EA00111248091DB
:10134000110290911202A0911302B09114028A012D
:10135000052E000C220B330B081719072A073B0731
:1013600030F04F2D50E09C01241B350BA9011416C1
:10137000150674F4052E000C660B770B89EF91E0CF
:101380000F90DF91CF911F910F91FF900C94D0247B
:101390000F90DF91CF911F910F91FF9008951F93B0
:1013A000CF93DF934AE050E060E270E086E692E09F
:1013B0000E94293510926F024BE06091F10184E0A8
:1013C0000E948C09C6E6D2E01C2F175F89EF91E0DE
:1013D0000E94D80089931C13F9CF89EF91E0DF9127
:1013E000CF911F910C9481264F925F926F927F92C2
:1013F000AF92BF92CF92DF92EF92FF920F931F9323
:10140000CF93DF93CDB7DEB728970FB6F894DEBF42
:101410000FBECDBF40E060E08B5F0E948C09F12CD5
:10142000CE0101966C01412C512C3201439428E0ED
:10143000E22EEC0C8601F801108284E0A82EB12C7B
:1014400089EF91E00E94D8008837910571F4F80186
:101450002081D301C2010A2C04C0880F991FAA1F42
:10146000BB1F0A94D2F7822B8083F1E0AF1AB10838
:1014700038F70E946F040F5F1F4FE012DCCFA60108
:101480006F2D80EF92E00E944C060E946F04F3944F
:1014900098E0F912CFCF89EF91E00E94812628963B
:1014A0000FB6F894DEBF0FBECDBFDF91CF911F9175
:1014B0000F91FF90EF90DF90CF90BF90AF907F9013
:1014C0006F905F904F90089540E060E087E30E9446
:1014D0008C090E94DE038093060189EF91E00C9451
:1014E00081261F93CF93DF934AE050E060E270E0E3
:1014F00080E792E00E942935109279020E94D70479
:10150000811120C0E0914702EE3010F482E001C06A
:1015100083E0F0E0E855FE4F4BE060810E948C09CB
:10152000C0E7D2E01C2F175F89EF91E00E94D8003E
:1015300089931C13F9CF89EF91E0DF91CF911F912F
:101540000C948126DF91CF911F910895CF93DF9363
:10155000805D80932B010E94D708C0911102D09129
:10156000120289EF91E00E948126CE01DF91CF9196
:101570000895CF93DF93CDB7DEB7A4970FB6F89455
:10158000DEBF0FBECDBF87E680932B0162E271E024
:1015900083E295E00E940F271D821E821C821B821F
:1015A00081E791E09A83898323E642E251E063E296
:1015B00075E0CE0105960E948A2680E2FE013596EE
:1015C000A9EFB1E001900D928A95E1F78B819C81A2
:1015D0009093F8018093F7018091F901811105C082
:1015E00062E271E081E00E94FB06809106010E94A8
:1015F000C50389EF91E00E948126A4960FB6F89466
:10160000DEBF0FBECDBFDF91CF9108958FE495E08F
:101610000E94E530882329F060E070E08E5F0E9430
:10162000FB0608950F931F93CF93DF931F92CDB7BF
:10163000DEB7142F022F69830E94550569810023AC
:1016400059F08FE495E00E941630023028F0612FA7
:101650008FE495E00E9416300F90DF91CF911F919B
:101660000F910C94060BCF936091EC02C1E06C27B4
:101670006093EC0221E040E08DE00E94120B80912B
:10168000EC020E94F409C093190110921801CF9145
:101690000895882311F08FE101C08EE00E94550566
:1016A000609147028FE495E00E9416306091CC0172
:1016B0008FE495E00E9416306091CB018FE495E0B5
:1016C0000E9416306091CA018FE495E00E941630A6
:1016D000E0914702F0E0EF54FE4F60818FE495E027
:1016E0000E9416300C94060B81E08093EE0280E09D
:1016F0000C94490B0F931F93CF93DF93082F80E235
:101700000E945505602F8FE495E00E94163085E019
:10171000089F80011124C0E0D0E0FE01E00FF11F1E
:10172000E855FD4F60818FE495E00E9416302196C8
:10173000C530D10591F7DF91CF911F910F910C9496
:10174000060B20914C022530B0F48091A70235E0C1
:10175000839FC0011124820F911D2AE040E060E3C5
:1017600088559D4F0E94700281E08093E70280912E
:10177000A7020C947A0B0895EF92FF920F931F9398
:10178000CF9341E061E087E00E94600788EAE82E9D
:1017900082E0F82EC0E083E090E00E94570400E071
:1017A00010E00E94DE03F701E00FF11F808381E06B
:1017B00090E00E9457040F5F1F4F0530110589F715
:1017C0000E946F048C2F0E947A0BCF5F85E0E80E99
:1017D000F11CCC3001F7CF911F910F91FF90EF904A
:1017E0000895882339F021E040E0609107018EE1FF
:1017F0000C94120B8FE00E9455056091F4018FE468
:1018000095E00E941630609108018FE495E00E94F7
:101810001630609107018FE495E00E9416306091C8
:10182000F2018FE495E00E9416300C94060B81E0E3
:101830008093EE0280E00C94F10BAF92BF92CF92B6
:10184000DF92EF92FF920F931F93CF93DF93D62EE9
:10185000B090470241E061E00E94600782E090E0C2
:101860000E9457040E94DE03D82F1091F10180934B
:10187000F10182E090E00E9457040E94DE03909103
:101880000701C1E0891303C0D11301C0C0E08093F8
:1018900007010E946F04CC2319F08D2D0E94F10BDB
:1018A00008EA11E0D0E0D093470285E090E00E9482
:1018B00057040E94DE03FF24FA94F80EE090CB0157
:1018C000F092CB0183E090E00E9457040E940F0445
:1018D0009091CA01C1E0891303C0FE1001C0C0E0AD
:1018E0008093CA0182E090E00E9457040E94DE03C8
:1018F000F80190818913C1E0F80181938F0182E0A2
:1019000090E00E9457040E94DE039091CC0189135D
:10191000C1E08093CC010E946F04CC2319F08D2D7F
:101920000E94490BDF5FDE3009F0BDCF01EC11E012
:1019300088EBE82E81E0F82ED0E1D093470285E0D5
:1019400090E00E9457040E94DE03CC24CA94C80E83
:10195000A090CB01C092CB0182E090E00E9457049E
:101960000E94DE03F7019081C1E0891303C0CA1011
:1019700001C0C0E0F70181937F0182E090E00E9406
:1019800057040E94DE039091CC018913C1E080933B
:10199000CC0183E090E00E9457040E94DE03F8012E
:1019A00090818913C1E0F80181938F010E946F0437
:1019B000CC2319F08D2D0E94490BDF5FD93109F03E
:1019C000BCCF89EF91E00E948126B0924702DF915F
:1019D000CF911F910F91FF90EF90DF90CF90BF902C
:1019E000AF90089540E060E083E40E948C090E947B
:1019F0007304813011F486E101C085E10E94550530
:101A00000E94060B0E94730421E040E0682F87E1EA
:101A10000E94120B0E947304809313010E947304AE
:101A200090E090931F0180931E010E94730490E048
:101A300090931D0180931C010E94730480931201F6
:101A40000E94730490E090932101809320010E94F2
:101A500073042AE0829FC001112490931B0180939C
:101A60001A010E947304809311010E9473048093F1
:101A700010010E94730480930F010E9473048093ED
:101A800014010E947304813011F4809383020E9438
:101A90007304811102C01092170189EF91E00C9438
:101AA0008126CF93DF9380915702823059F4809141
:101AB000EC02882311F084E201C083E20E94550504
:101AC0000E94060B83E10E945505809147028031F8
:101AD00010F560914C028FE495E00E941630209141
:101AE0004C028091EF019091F001022E02C0959579
:101AF00087950A94E2F781709927880F991F609162
:101B0000ED017091EE0102C0759567952A95E2F797
:101B10006170682B16C0C0914C0280914F028130D9
:101B200011F4C09146026C2F8FE495E00E941630AC
:101B3000D0E0C353DE4F68818FE495E00E941630F9
:101B400068898FE495E00E941630DF91CF910C9464
:101B5000060B81E08093EE020C94510DCF93DF933E
:101B6000C62F44E2682F80E00E948C098C2F8D7F65
:101B700069F40E941C06D0E189EF91E00E94D80030
:101B80000E948A06D150C1F70E946F04C23030F023
:101B900089EF91E0DF91CF910C948126C13021F43F
:101BA00082E190E00E94570480E10E941306C0E1A8
:101BB00089EF91E00E94D8000E948A06C150C1F7C7
:101BC000E7CF8091E802882309F482C01092E802EE
:101BD00061E08CE00E94AE0D81E08093ED0241E077
:101BE00060E080E00E94600740E150E066E971E05B
:101BF00089EF91E00E9495290E94BB0362E485EF82
:101C000091E00E94BE0060E585EF91E00E94BE0079
:101C10006DE485EF91E00E94BE00809108010E9472
:101C2000F2030E94BB0364E585EF91E00E94BE00D1
:101C300069E785EF91E00E94BE0060E785EF91E0E3
:101C40000E94BE0065E685EF91E00E94BE00809193
:101C5000F2010E94C5030E94BB036CE485EF91E092
:101C60000E94BE006FE685EF91E00E94BE006FE625
:101C700085EF91E00E94BE0060E785EF91E00E9451
:101C8000BE008091A7010E94C5030E94BB0363E5CB
:101C900085EF91E00E94BE0069E785EF91E00E9428
:101CA000BE006EE685EF91E00E94BE0063E685EF20
:101CB00091E00E94BE006FE485EF91E00E94BE00BB
:101CC0008091F4010E9444040E94BB030C947C03A5
:101CD0000895EF92FF920F931F93CF938091E702A5
:101CE0008823B1F11092E70261E08CE00E94AE0D12
:101CF00081E08093ED0241E060E087E00E946007B0
:101D000088EAE82E82E0F82EC0E08C2F0E94C503FE
:101D10000E943F0400E010E0F701E00FF11F808116
:101D20000E94C5030E943F040F5F1F4F053011053D
:101D300099F70E94BB03CF5F85E0E80EF11CCC3021
:101D400021F7CF911F910F91FF90EF900C947C039E
:101D5000CF911F910F91FF90EF9008950E94E10D98
:101D60000C94690ECF934EE0682F81E00E948C099D
:101D7000CCE089EF91E00E94D8000E948A06C15011
:101D8000C1F789EF91E0CF910C948126CF93C82FB2
:101D9000883710F08EE504C06CE00E94D934805D75
:101DA0000E948A068C2F6CE00E94D934892F880FFC
:101DB0000E942A0989EF91E00E94D8000E948A06B9
:101DC00089EF91E00E94D8000E948A0689EF91E095
:101DD000CF910C9481260F931F93CF93DF93809123
:101DE0001901882309F4ACC28091E9028111A8C2CB
:101DF0001092190180911801882359F0109218014E
:101E000080EF92E00E94270660E080914F020E94DE
:101E1000AE0DE0914F028E2F90E08131910508F0D8
:101E200048C2FC01E05CFF4F0C940D350E941C067B
:101E300080914A020E94B90690914A0280910C0159
:101E4000981304C08091F3018C5F02C0809114014B
:101E50000E948A068091E402882321F08D5F0E940F
:101E60008A0602C00E948F0661E0809147020E94AC
:101E7000500980E10E94130680914F02813009F4DD
:101E800060C0809147028031B0F5C0E0D0E06C2F97
:101E90002091ED013091EE010C2E02C03595279571
:101EA0000A94E2F78091EF019091F001A90141704D
:101EB000552720FD0BC09C010C2E02C0359527959F
:101EC0000A94E2F720FD02C080E00EC002C09595A2
:101ED00087956A95E2F780FF06C0452B11F082E0F6
:101EE00003C083E001C081E00E948A062196C031D0
:101EF000D10569F66FC00DEC11E0C0E0E09147023A
:101F0000F0E0EF54FE4F808181110CC08C2F0E94B5
:101F1000B004D82F8C2F0E9496048111D0C1DD23EC
:101F200039F0CDC1F8018081882311F081E001C032
:101F300080E00E948A06CF5F0F5F1F4FC031F1F62D
:101F400049C084E10E941306809146028F5F0E947F
:101F5000B906E0914702F0E0EF54FE4F8081811115
:101F600015C082E00E949206D09146028D2F0E94F9
:101F7000B004C82F8D2F0E9496048111B3C1C111E6
:101F8000B1C188E50E94410985E022C081E00E943C
:101F9000920684E691E00E94A006E0914602F0E0FD
:101FA000E353FE4F8081882379F081500E94CE0652
:101FB00081E00E949206E0914602F0E0E353FE4F7A
:101FC00080890E94CE0606C088E50E94410984E00F
:101FD0000E94920680914B0281110CC080914D02AB
:101FE000811102C081E063C1813011F482E05FC1E0
:101FF00085E05DC190914F0280914C02913009F0D3
:1020000053C1811102C084E152C1E0914702F0E066
:10201000EF54FE4F9081911108C0813011F488E196
:1020200046C1823021F48CE142C1813011F08DE152
:102030003EC189E13CC10E941C068091F2018111E0
:1020400002C08AE301C082E40E94410982E00E944A
:102050009206809108010E94CE068DE10E9413062F
:102060008091F4010E94850980914B028111DFCF9C
:1020700080914D02811107C00E941C061AC18091F7
:102080004B0281116AC089E012C181E00E941306EF
:1020900060E0809147020E9450090E94D70481119C
:1020A0002CC08EE00E9413068091CB018F5F0E94AE
:1020B000B90680E10E941306E0914702EE3058F421
:1020C00087E691E00E94A0060E948F068091CA01D7
:1020D0000E94CE060BC0F0E0EF54FE4F80818111CC
:1020E00002C08CE501C083E60E9441090E948F0670
:1020F00080E792E00E94A00609C08DE00E9492064F
:1021000080E10E94130680E10E9492060E94D7049B
:1021100081116CCF80914B02811107C080914D02DB
:10212000882309F463CF8FE0C2C080914C028111F3
:1021300014C085E1BCC08EE00E94130680910901A5
:102140000E94B90687E10E94130686E692E00E948B
:10215000A00680914B028823F9F087E1A8C081E1B5
:102160000E94130660E0809147020E94500984E1BA
:102170000E9413060E94D704811105C08091CC01F2
:102180000E94B20E03C08CE00E94920680914D0224
:10219000811139CF81E18BC08EE089C08CE00E9433
:1021A0001306C0E090910701492F50E02C2F30E03A
:1021B0004217530734F081E48C0F0E948A06CF5FE8
:1021C000F1CF83E0891B0E9492068CE070C085E00D
:1021D0000E941306809106010E94B90680E10E94C8
:1021E000130686E991E00E94A00680914B028823A5
:1021F00009F4FECE80914C0257C080918402811177
:1022000005C089E10E9413068AE407C089E10E94A3
:10221000130682E00E94920682E50E9441098091A5
:102220004B0281110AC080914D02882309F424CF0A
:10223000813009F4DDCE8BE03AC08091840288239E
:1022400009F4F7CE8BE133C08EE00E941306809133
:10225000A7028F5F0E94B90681E10E941306C0E0C9
:10226000D0E015E08091A702FE01189FE00DF11D5E
:102270001124E855FD4F8081882321F081500E9470
:10228000C60E03C088E50E9441092196C530D105DC
:1022900049F780914B02882309F47ECF80914C024C
:1022A000982F990F890F8F5F806101C086E00E948F
:1022B0001306DF91CF911F910F910C944006D130FE
:1022C00019F48091110135CED23011F482E031CE73
:1022D000D33011F483E02DCED43009F027CE809195
:1022E0000F0127CEC13021F481E30E94410972CE53
:1022F000C43021F483E00E94920605C08D2F0E9415
:10230000A3040E94CE060E948F06C23011F482E020
:102310000BC0C33011F483E007C0C43019F48091BE
:102320000F0102C0809110010E948A06809146022E
:102330000E949604882309F44ACE0E94C60E4ACE13
:10234000DF91CF911F910F910895CF93DF93EC010F
:10235000423018F08D8188608D834887222329F0D0
:10236000413019F48D8184608D8362E370E080E0F8
:1023700090E00E9488336B85CE010E946F0568EE65
:1023800073E080E090E00E94883360E3CE010E9419
:10239000A50584E991E10E94C43360E3CE010E9467
:1023A000A50584E991E10E94C43360E3CE010E9457
:1023B000A50586E990E00E94C43360E2CE010E9448
:1023C000A5056D816062CE010E94D40584E08E83F4
:1023D000CE010E941F06CE010E94D70582E08F83A6
:1023E00066E0CE010E94D405CE01DF91CF910C941E
:1023F000DE05CF93DF93EC018FE495E00E9455302A
:102400001D8220E04A856985CE01DF91CF910C9431
:10241000A51180EF92E00E94F91180EF92E00C94F8
:102420008705CF93DF938FE495E00E94BA2F1816AB
:1024300019067CF0C1E1D7E28FE495E00E94BA2F43
:10244000892B39F42197C1F76AE671E082E00E9496
:10245000FB06DF91CF910895FF920F931F93CF93C7
:10246000DF93D82FC62F142FF22E202F4F2D612F40
:102470008D2F0E94120B4C2F65E28FE495E00E9495
:10248000E2308C1729F08FE495E00E94E52FEDCF24
:10249000DF91CF911F910F91FF9008950E9411122B
:1024A0008FE495E00E94C22F08950F9300E020E092
:1024B00040E061E00E942C120F910C944E1284E0D7
:1024C0000E945512863029F060E070E082E00E94A0
:1024D000FB06089580911701882309F459C0809163
:1024E0007A028F5F893118F480937A0208951092EE
:1024F0007A0284E10E9455128F3F89F1982F9F70D4
:10250000913019F09930E9F0089582958F708F5FBE
:102510008093E4028091E902882311F081E018C0E1
:102520001092EB020E94400680914F02823028F404
:1025300081E0809319011092180181E08093EF02ED
:1025400008951092E4028091E902882321F080E04E
:102550000E94E506E9CF81E08093EB02E3CF809112
:10256000EF028823A9F08091E902882321F081E01D
:102570000E94E50604C01092EB020E9440061092F1
:10258000E4021092EF0281E0809319011092180189
:1025900008950F93CF93DF9301E020E0409147022D
:1025A00064E087E00E942C120E944E128093CC01BE
:1025B0000E944E128093CB010E944E128093CA015A
:1025C000C0914702D0E060970E944E12CF53DE4F79
:1025D0008883DF91CF910F9108950F931F93CF932D
:1025E000DF93209147022031E0F0C82F02E04091B4
:1025F000F30160E189E08C0F0E942C1280E1C89FFA
:10260000E001112400E010E00E944E12F801EC0FEE
:10261000FD1FE353FE4F80830F5F1F4F00311105F5
:1026200099F7DF91CF911F910F910895CF930E9459
:102630004E12C82F0E944E122C2F30E0322F22272C
:10264000A901482BCA01CF9108950F932091470209
:10265000203198F402E04091F30164E088E00E94A8
:102660002C120E9416139093EE018093ED010E94AC
:1026700016139093F0018093EF010F910895882332
:1026800079F0662331F190915602923011F59091D4
:1026900047021816CCF4911115C08EE080934702C2
:1026A0000E94C9120E94251380E00E94ED1281E071
:1026B0000E94ED120E94710A81E08093190110922C
:1026C0001801089580E1EACF903139F31092470262
:1026D000E7CF8093E60268E187E492E00E947F0200
:1026E000DFCF6F927F929F92AF92BF92CF92DF9295
:1026F000EF92FF920F931F93CF93DF93C82F962EE5
:10270000833009F487C18091EE02882309F485C1E2
:102710001092EE0261E08CE00E94AE0DD090F301C9
:10272000C090470241E060E08C2F0E94600710E0FB
:102730001093F30161E4610F85EF91E00E94BE0008
:102740000E943F0400E0009347020E942513C0E06E
:10275000D0E02091EF013091F0010C2E02C03595B0
:1027600027950A94E2F721708091ED019091EE0196
:102770000C2E02C0959587950A94E2F780FF06C05B
:10278000211102C068E507C064E405C0213011F4DE
:1027900064E601C06EE285EF91E00E94BE002196E2
:1027A000C031D105B1F60E943F040F5F003159F6E8
:1027B0000E94BB0381ECE82E81E0F82E57010093C4
:1027C000470280E00E94ED1281E00E94ED12C0E01D
:1027D000D0E07C2EF5018081811121C08C2F0E94D8
:1027E000B004813011F468E50DC0823011F464E466
:1027F00009C0833011F464E605C0843011F46CE440
:1028000001C06EE485EF91E00E94BE00872D0E941A
:10281000A3040E94F203872D0E9496040FC06DE46A
:1028200085EF91E00E94BE00CE0183539E4F3C0194
:10283000FC0180810E94F203F30180890E94F2036F
:102840002196C031D10529F60E94BB030F5FFFEF2F
:10285000AF1ABF0A093109F0B2CF0E94BB031F5F54
:10286000143009F065CF0E947C0341E060E0892DBF
:102870000E94600760E585EF91E00E94BE006EE473
:1028800085EF91E00E94BE008091F1010E94C50396
:102890000E943F0466E585EF91E00E94BE008091B2
:1028A00007010E94C5030E94BB0308EA11E0C0E0D3
:1028B000C09347020E94C91264E585EF91E00E942F
:1028C000BE00CF5F8C2F0E94C5030E943F046DE4C1
:1028D00085EF91E00E94BE008091CB018F5F0E9446
:1028E000C5030E943F046EE485EF91E00E94BE00A4
:1028F00064E585EF91E00E94BE008091CA010E94CC
:10290000F2030E943F046EE485EF91E00E94BE0056
:10291000F80181918F010E94C5030E943F0460E588
:1029200085EF91E00E94BE008091CC010E94C5031A
:102930000E94BB03CE3009F0BBCF08EB11E0C0E131
:10294000C09347020E94C91264E585EF91E00E949E
:10295000BE006EE485EF91E00E94BE0061E26C0F64
:1029600085EF91E00E94BE000E943F046DE485EF78
:1029700091E00E94BE008091CB018F5F0E94C50351
:102980000E943F046EE485EF91E00E94BE00F801D2
:1029900081918F010E94C5030E943F0460E585EF8D
:1029A00091E00E94BE008091CC010E94C5030E946C
:1029B0003F046DE485EF91E00E94BE0064E485EF82
:1029C00091E00E94BE00F70181917F010E94C50342
:1029D0000E94BB03CF5FC93109F0B2CF0E947C03D4
:1029E000C0924702D092F30160E080E00E943F1362
:1029F00081E080931801DF91CF911F910F91FF909B
:102A0000EF90DF90CF90BF90AF909F907F906F90AE
:102A10000C94EB0E61E08DE07FCEDF91CF911F91A2
:102A20000F91FF90EF90DF90CF90BF90AF909F906D
:102A30007F906F90089562E081E00C9471130E9482
:102A40001B150E94AE0E81E08093830280931901D2
:102A5000809318010895855F0E9455050E94060B1A
:102A60000E941B150E94AE0E81E08093EF0289E167
:102A700080937A020C946A12EF92FF920F931F9345
:102A8000CF93DF9361E08DE00E94AE0D1091F301D2
:102A90008091470241E060E0803110F485E001C0A0
:102AA00086E00E94600700E00093F30161E4600F9C
:102AB00085EF91E00E94BE000E943F048091470292
:102AC000803108F08AC00E942513C0E0D0E08091D8
:102AD000EF019091F0010C2E02C0959587950A9414
:102AE000E2F781702091ED013091EE010C2E02C0D1
:102AF000359527950A94E2F720FF06C0811102C0A0
:102B000068E507C064E405C0813011F464E601C0E3
:102B10006EE285EF91E00E94BE002196C031D105A2
:102B2000B1F60E94BB030F5F043009F0BDCF6DE426
:102B300085EF91E00E94BE008091CB018F5F0E94E3
:102B4000C5030E943F046EE485EF91E00E94BE0041
:102B500064E585EF91E00E94BE008091CA010E9469
:102B6000F2030E943F046EE485EF91E00E94BE00F4
:102B7000E0914702F0E0E855FE4F80810E94C503D6
:102B80000E943F0460E585EF91E00E94BE008091C5
:102B9000CC010E94C5030E943F046DE485EF91E0E3
:102BA0000E94BE0064E485EF91E00E94BE00E091C7
:102BB0004702F0E0EF54FE4F80810E94C5030E945F
:102BC0007C031093F30160E080E0DF91CF911F91CF
:102BD0000F91FF90EF900C943F1380E00E94ED1254
:102BE00081E00E94ED12C0E0D0E0FC2EE0914702AF
:102BF000F0E0EF54FE4F8081811121C08C2F0E94A4
:102C0000B004813011F468E50DC0823011F464E441
:102C100009C0833011F464E605C0843011F46CE41B
:102C200001C06EE485EF91E00E94BE008F2D0E94EE
:102C3000A3040E94F2038F2D0E9496040EC06DE43F
:102C400085EF91E00E94BE00FE01E353FE4F7F013D
:102C500080810E94F203F70180890E94F20321968D
:102C6000C031D10511F65DCFCF93909147029031DD
:102C7000B0F0C82F81E18C0F0E9455050E946305BA
:102C800080E1C89FB001112463537E4F40E150E0C2
:102C90008FE495E00E94E62FCF910C94060BCF9124
:102CA0000895E5EAF2E09083818342E050E0BF01BD
:102CB0008FE495E00C94E62F80914702803198F4E0
:102CC00080E10E9455050E9463058091ED0190917D
:102CD000EE010E9451168091EF019091F0010E9447
:102CE00051160C94060B08958F929F92BF92CF922B
:102CF000DF92EF92FF920F931F93CF93DF931F9278
:102D0000CDB7DEB7F82E862F1091F3010091470260
:102D100041E061E00E946007F092F30128E135E0B4
:102D2000F29EC001F39E900D112402960E9457045A
:102D3000B12CC12CD12C7601C394B09247021092D1
:102D4000F0011092EF011092EE011092ED01812C32
:102D5000912C89EF91E00E94D8008835A9F4209148
:102D6000ED013091EE01D701C601082C04C0880F97
:102D7000991FAA1FBB1F0A94D2F7822B932B909303
:102D8000EE018093ED0131C08434C9F42091ED014E
:102D90003091EE01D701C601082C04C0880F991F9D
:102DA000AA1FBB1F0A94D2F7282B392B3093EE01B0
:102DB0002093ED012091EF013091F00110C0843695
:102DC000A1F42091EF013091F001D701C601082C48
:102DD00004C0880F991FAA1FBB1F0A94D2F7822B29
:102DE000932B9093F0018093EF014FEF841A940A94
:102DF00080E18816910409F0ACCF81E090E00E9458
:102E000057040E945C16B394E0E1BE1296CF0E9474
:102E10006F0420E1922E909247028DECC82E81E043
:102E2000D82E9DEDE92E91E0F92EB12CF7011082FC
:102E3000F601108289EF91E00E94D80089830E94F8
:102E40000F04F60181936F010E940F04F701819333
:102E50007F012981283521F48B2D0E94ED0411C0BA
:102E6000243421F48B2D0E94FB040BC0243621F462
:102E70008B2D0E94090505C02C3419F48B2D0E945E
:102E80001705B394F0E1BF12D1CF0E946F0480E028
:102E90000E94341681E00E943416939449E1941202
:102EA000BACF89EF91E00E948126009347021093E8
:102EB000F3010F90DF91CF911F910F91FF90EF9051
:102EC000DF90CF90BF909F908F900895CF93C82FA1
:102ED00060E081E08C0F0E941D0C6C2F80E00E944E
:102EE000741680910701882321F06C2F81E00E94E5
:102EF000741680910701823020F06C2F82E00E94CE
:102F0000741680910701833021F46C2FCF910C94BB
:102F10007416CF910895CF93DF930E941B15809173
:102F20000C018236C8F561E08CE00E94AE0D809104
:102F30000C018F5F80930C0140E061E081E00E9412
:102F400060078091F901811117C0C0910C01809137
:102F50004F028F30B1F0D09106011092060181E04E
:102F600080930C0161E08DE00E94AE0D81E00E9433
:102F70006617D093060105C089EF91E00E94812673
:102F8000D6CFC0930C0181E08093EE020E941B1506
:102F900080910C0180934A02DF91CF9108950E94A5
:102FA00095080E94BC0B81E00E9466170E94710A7E
:102FB0000E94CF09109246021092F301109247022C
:102FC00060E080E00C943F13CF93DF930E940912DE
:102FD0000E942A0781E00E94A60A6EE070E00E942B
:102FE000F934615060937E0284E00E94A60ACBE02F
:102FF000D0E0BE010E94F934615060937D0282E00E
:103000000E94A60ABE010E94F934615060937C02BE
:1030100083E00E94A60ABE010E94F93461506093C9
:103020007B0280E2EDECF1E0DF011D928A95E9F789
:1030300089E1E8EAF1E0DF011D928A95E9F78CE386
:10304000E8EAF2E0DF011D928A95E9F789E0E1EC18
:10305000F1E0DF011D928A95E9F780E00E94F40912
:103060000E945F120E94F20C0E941A020E94640ADF
:103070000E94CF17DF91CF910C942E06CF930E9420
:103080001B150E94AE0EC09106012AE041E062E6E7
:1030900086E091E00E94700240E061E080E00E94E2
:1030A00060078091F901811104C0C0930601CF919E
:1030B000089589EF91E00E9481260E94B90ACF917C
:1030C0000C94CF171F93CF93DF9381E08093190166
:1030D0001092180120914F02822F90E081319105CA
:1030E00008F0A0C2FC01EF5AFF4F0C940D358091FF
:1030F0004B0281111EC080914D02811105C0DF91EC
:10310000CF911F910C946808813041F463E083EF04
:1031100091E00E947F0260E080E006C0823009F00A
:1031200081C261E08091E602DF91CF911F910C9402
:103130003F13C0914C022111E3C0E091470210916E
:10314000E602E03108F085C08091ED019091EE013A
:103150009C010C2E02C0359527950A94E2F7622F48
:1031600061704091EF015091F0019A010C2E02C064
:10317000359527950A94E2F7217011164CF56111E7
:1031800003C02111ABC029C0211112C081E090E021
:10319000A0E0B0E004C0880F991FAA1FBB1FCA950A
:1031A000D2F7842B952B9093F0018093EF0196C07A
:1031B00041E050E060E070E004C0440F551F661F1E
:1031C000771FCA95D2F7409550954823592312C0CE
:1031D000611115C0213009F081C041E050E060E08C
:1031E00070E004C0440F551F661F771FCA95D2F7C1
:1031F000482B592B5093EE014093ED016FC02130C5
:10320000A1F481E090E0A0E0B0E004C0880F991F35
:10321000AA1FBB1FCA95D2F78095909548235923C2
:103220005093F0014093EF0159C041E050E060E05D
:1032300070E004C0440F551F661F771FCA95D2F770
:1032400040955095842395239093EE018093ED0152
:1032500045C0F0E0EF54FE4F8081811131C08C2FCA
:103260000E94B004D82F8C2F0E9496041116B4F43B
:1032700081110BC0D1111CC0D0E0C353DE4F80912F
:103280000A01888380910B0128C0D23021F08C2F55
:103290000E94FB0423C080930B010AC0882331F0F5
:1032A000D23051F48C2F0E94DF0418C0D11104C019
:1032B0008C2F0E94ED0412C0D0E0C353DE4F05C036
:1032C000D0E0C353DE4F17FF03C01882188A06C030
:1032D00080911501888380911601888B0E94A90D29
:1032E00080915602823009F09DC190910901809130
:1032F0004C02890F803108F08FE080934C0292C11C
:10330000C11104C06FE086E492E0D8C0E0914702AA
:10331000F0E0EF54FE4F808181111DC0D091460234
:103320008D2F0E949604182F811120C18D2F0E948D
:10333000B00481111BC18091E60218160CF016C171
:10334000ED2FF0E0E353FE4F80910A0180838091DE
:103350000B01808B0FC1813009F064C1E0914602FE
:10336000F0E0DF01A353BE4F8C9181110AC0809120
:103370001501882331F08C938091160150968C931F
:1033800051C12AE040E0C13019F460E8CD0104C029
:103390006FE7CF0183529E4F0E947002E091460278
:1033A000F0E0E353FE4F8081809315018089809384
:1033B000160138C10E94170C80914B02811117C071
:1033C000C0914D02C11106C061E082EF91E00E9400
:1033D0007F0217C0C13009F025C12AE042E36AEF3D
:1033E00088E091E00E947002C093E8021BC1813026
:1033F00009F018C19091E60219160CF080E0809354
:10340000F40181E08093E8020DC180914B028111AB
:1034100014C080914D02811109C061E08091E602E3
:103420000E943F1381E0809319019DC0813009F013
:10343000F9C06FE08BEC91E033C08091470220919E
:103440004C02803150F090E0211104C061E08F54B3
:103450009E4F26C060917B0210C0211108C02AE057
:1034600041E06FE78AEC91E00E9470021BC02130BE
:1034700009F0D8C090E060917C0288559E4F0E9470
:103480007F020E94710A0EC080914D02882309F4C8
:1034900048CE813009F0C6C060917E028CEC91E08C
:1034A0000E947F02DF91CF911F910C94740B809149
:1034B0004B02811108C060E189E091E0DF91CF917A
:1034C0001F910C947F0260917D0281EF91E00E9438
:1034D0007F020E94740BDF91CF911F910C94CF0952
:1034E0000E94170C63E087E091E0E8CF80914B02E7
:1034F000811105C0DF91CF911F910C943E180E945D
:1035000044037FCF8091E602813019F41092840247
:1035100089C081E08093840285C080914B02811133
:1035200017C08091E60218163CF48091A7028B30F8
:1035300008F078C08F5F09C0882309F473C08091B8
:10354000A702882309F46EC081508093A7026AC045
:10355000DF91CF911F910C94A10B80E101C08FE00E
:1035600080934F0281E0809318015CC0C13039F430
:103570000E940D03DF91CF911F910C94A90DC230D1
:1035800009F04BC08D2F0E94B0049091E6021916ED
:10359000ACF4843039F4111110930B018D2F0E947B
:1035A000ED04E8CF882341F1823001F1833011F737
:1035B0008D2F0E94A30480930A010BC09923D1F29E
:1035C000813059F4ED2FF0E0E353FE4F80910B0171
:1035D000808B8D2F0E941705CDCF843059F4ED2FAD
:1035E000F0E0E353FE4F80910A0180838D2F0E940B
:1035F0000905C0CF833021F48D2F0E94FB04BACF80
:10360000823021F48D2F0E94DF04B4CFED2FF0E043
:10361000E353FE4F108A1082ADCFC33019F40E94DD
:10362000E702A8CFDF91CF911F9108958AE10E9410
:103630005512811103C081E00E94661710927F022B
:10364000109280021092E9028091810280930C0115
:1036500060E080E00C943F1389E00E9441028823DF
:1036600049F080E00E942B158091E9028823B9F08F
:103670000C94161B8091E902811111C088E00E9410
:103680004102882319F081E00C942B1587E00E94F9
:103690003202882321F00E941B150C94AE0E08956F
:1036A0008F929F92AF92BF92CF92DF92EF92FF9252
:1036B0001F93CF93DF938091470241E061E0803117
:1036C00010F485E001C086E00E94600710E0C12C84
:1036D000D12C7601C3941093F30182E090E00E9414
:1036E000570480914702803108F05EC01092F001CB
:1036F0001092EF011092EE011092ED01C0E0D0E0C7
:1037000089EF91E00E94D8008835A9F42091ED015D
:103710003091EE01D701C6010C2E04C0880F991F0D
:10372000AA1FBB1F0A94D2F7822B932B9093EE0112
:103730008093ED0131C08434C9F42091ED013091C2
:10374000EE01D701C6010C2E04C0880F991FAA1FD5
:10375000BB1F0A94D2F7282B392B3093EE0120930C
:10376000ED012091EF013091F00110C08436A1F4F9
:103770002091EF013091F001D701C6010C2E04C059
:10378000880F991FAA1FBB1F0A94D2F7822B932B75
:103790009093F0018093EF012196C031D10509F09B
:1037A000AFCF0E945C163CC08DEC882E81E0982E35
:1037B0009DEDA92E91E0B92EC0E0F5011082F40133
:1037C000108289EF91E00E94D800D82F0E940F0448
:1037D000F40181934F010E940F04F50181935F0171
:1037E000D83521F48C2F0E94ED0411C0D43421F47B
:1037F0008C2F0E94FB040BC0D43621F48C2F0E9426
:10380000090505C0DC3419F48C2F0E941705CF5F21
:10381000C03199F680E00E94341681E00E9434168F
:103820000E946F041F5F143009F055CF81E090E0D3
:103830000E9457040E94DE0381508093CB0183E0F5
:1038400090E00E9457040E940F048093CA0182E016
:1038500090E00E945704C0914702D0E00E94DE032E
:10386000C855DE4F888382E090E00E9457040E9492
:10387000DE038093CC0183E090E00E945704C09166
:103880004702D0E060970E94DE03CF53DE4F88836B
:1038900080E00E94490B89EF91E0DF91CF911F9169
:1038A000FF90EF90DF90CF90BF90AF909F908F9060
:1038B0000C94812620915702922F9D7F80914F0278
:1038C0009130D9F41092570298EF980F9A3050F433
:1038D0008F50823008F07FC089E080934F021092B1
:1038E0004B0209C09091EA02911144C280934E02AA
:1038F00089E080934F020C94DF023091560298EFDA
:10390000980F9A3008F06AC0932F9D7F913009F08C
:1039100065C01092560221EF280F223040F48091AA
:103920000C01833608F057C00E948B1754C08A30B0
:1039300081F480914B0281110AC010924B028FE0FA
:1039400080934F02909319019093180108950C945D
:103950001F15893009F03FC080914D0281110CC0C4
:1039600080918402811105C064E083E00E9471139C
:1039700032C00E943C152FC08130C9F4809184026E
:1039800061E0811107C08EE00E94AE0D83E00E94CD
:10399000661705C08EE00E94AE0D0E94501B60E0CD
:1039A00080E00E943F1381E08093EE0214C08230D9
:1039B00091F480918402811106C088E10E9455052E
:1039C0000E94060BECCF21E040E06091470289E1C4
:1039D0000E94120BE4CF80914E028BCF333041F422
:1039E000109256028091EA028111C4C10C94330BEB
:1039F000223009F065C084E00E9441028823D9F09A
:103A000081E08093EE0280914F02813069F48091D1
:103A100046028F3018F48F5F8093460281E08093D6
:103A20001901109218013EC021E040E061E081E2FE
:103A30000E94120B37C085E00E944102882389F062
:103A400081E08093EE0280914F02813031F48091C9
:103A50004602882319F38150DFCF21E040E060E087
:103A6000E6CF82E00E944102882301F180914F025B
:103A70008230E0F490914B029130C1F4882309F434
:103A80004BC140914602442351F022E060E082E2C3
:103A90000E94120B8091460281508093460281E081
:103AA0008093EE0260E080E00C943F1383E00E947C
:103AB0004102882329F080914F02823008F426C108
:103AC00084E00E943202882319F060E081E0ECCFAC
:103AD00085E00E943202882319F060E08FEFE4CF86
:103AE00082E00E943202882311F08FEF06C083E04B
:103AF0000E943202882349F081E08093E60263E06D
:103B000083EF91E00E947F02CDCF84E00E944102CA
:103B1000882309F453C080914F028F3011F480E163
:103B200049C0803111F48FE045C08B3039F4809169
:103B30004B02813009F45CC08AE007C08A3041F44E
:103B400080914B02811154C089E080934F0259C08B
:103B5000893009F44DC0893078F590914B0291304D
:103B600099F410924B02813039F5909147029031CF
:103B700018F110924F0280934B0280914C02809377
:103B80004502809146026EC08823B1F091E0909387
:103B90004B029FEF980F90934F02282F2D7F2530D7
:103BA00011F410924B02913039F490914702903108
:103BB00018F4825080934F020C949D0285E00E947D
:103BC0004102882309F451C080914F028F3009F4DB
:103BD000A6CF803109F4A7CF893069F480914B02D8
:103BE0008F5F80934B02823039F78AE080934F02D7
:103BF00010924B02E1CF8A3051F480914B02811137
:103C000004C081E080934B02D7CF8BE0EFCF8B30A5
:103C100029F480914B028823A1F3CECF893060F63E
:103C200090914B02911105C0982F9D7F943049F7D8
:103C300002C0873008F610924B0291E0980F9093E3
:103C40004F02913009F0B8CF20914702203110F493
:103C50008E5FB0CF90934B0280914C0280934602CE
:103C60008091450280934C02A7CF86E00E944102DA
:103C70008111BCCE82E00E9441028823C9F080916C
:103C80004B02811106C080914D02882359F081506A
:103C90001FC0813039F480914C02882319F0815083
:103CA00080934C0281E080931901109218010895CD
:103CB00083E00E9441028823C1F080914B02811170
:103CC0000AC080914D0290910E01891758F78F5FBD
:103CD00080934D02E7CF813029F780914C0290917B
:103CE0000D018917F8F68F5FDBCF80E00E9450024C
:103CF000882311F081E006C081E00E9450028823F1
:103D0000C9F18FEF8093E6020C94621890914B02F8
:103D1000913009F0D5CE0EC040914C02442309F4F5
:103D2000BECE22E060E082E20E94120B80914C0243
:103D300081500FC0811110C040914C024F3009F4E6
:103D4000AECE22E061E082E20E94120B80914C0232
:103D50008F5F80934C02A3CE409146024F3009F40E
:103D60009ECE22E061E082E20E94120B8091460228
:103D70008F5F93CE08956F927F928F929F92AF92B2
:103D8000BF92CF92DF92EF92FF920F931F93CF9348
:103D9000DF9300D0CDB7DEB7809182028F5F8D3088
:103DA00018F480938202F6C0109282028091E90298
:103DB000882309F4EFC08BE10E945512882309F48F
:103DC000E9C08AE10E945512882321F080917F0288
:103DD000843090F00F900F90DF91CF911F910F9151
:103DE000FF90EF90DF90CF90BF90AF909F908F901B
:103DF0007F906F900C94161B41E061E081E00E947F
:103E0000600740917F0228E135E0429FC001439F57
:103E1000900D112402960E945704E12CF12C00E031
:103E200010E0612C712C812C912C5401839490E131
:103E3000C92ED12C80918002882319F090E00E9435
:103E4000570489EF91E00E94D800883569F4D501C4
:103E5000C4010E2C04C0880F991FAA1FBB1F0A940F
:103E6000D2F7682A792A1DC0843469F4D501C401C7
:103E70000E2C04C0880F991FAA1FBB1F0A94D2F7EB
:103E8000682A792A0CC0843661F4D501C4010E2C4D
:103E900004C0880F991FAA1FBB1F0A94D2F7082BD2
:103EA000192B809180029601281B3109C9010E94BB
:103EB00057043FEFE31AF30A80E1E816F10409F032
:103EC000B9CF0E946F0470928502609286021093AF
:103ED00087020093880200E010E029EFF22E809123
:103EE000800227E0829FC00111240E94570489EFBD
:103EF00091E00E94D80089830E940F048A830E9467
:103F00000F04582F29814A81283539F0243411F4BF
:103F1000406808C0243619F44068506803C02C3447
:103F200009F44F77209180023F2D3203C001112404
:103F300085599F4F4A8359830E945704F801EB57D4
:103F4000FD4F4A814483598155830E5F1F4F0231D3
:103F5000110529F689EF91E00E9481268CE10E94EB
:103F6000550546E150E065E872E08FE495E00E9477
:103F7000E62F0E94060B809180028F5F803118F43B
:103F80008093800207C01092800280917F028F5F31
:103F900080937F020F900F90DF91CF911F910F912F
:103FA000FF90EF90DF90CF90BF90AF909F908F9059
:103FB0007F906F900895CF93C82F81E08093E9029E
:103FC0000E94E50661E082E00E941D0C83E680937A
:103FD000820210927F0210928002C09381028DE1D2
:103FE0000E9455050E94060BCF910C94BB1E909128
:103FF0000C0180914A02981769F1809148029091D2
:1040000049020196909349028093480220911A0137
:1040100030911B0128173907E8F4109249021092D9
:1040200048020E941B1580914A0280930C018AE18C
:104030000E94551281110AC081E00E94E50681E0CC
:104040000E94661760E080E00C943F1380910C01A1
:104050000C94DB1F08950E94B0010E942C1B8091DC
:104060008302811107C00E945A1C0E94EB0E0E941D
:10407000F71F02C00E9433030E94BB1E0E946A12F7
:104080008091ED02882339F01092ED0281E0809357
:10409000180180931901089590E022E0281740F05C
:1040A000892F806A86958CBD909591709DBD0895ED
:1040B0009730B0F7220F953010F032E001C031E0B8
:1040C000930FECCF8FEF8EBD0DB407FEFDCF8EB5F5
:1040D00008958EBD0DB407FEFDCF089561E0FC018B
:1040E00082810E946D348FEF0C946920CF93DF930F
:1040F000EC018C810E944C2060E08A81DF91CF919D
:104100000C946D34CF92DF92EF92FF920F931F9336
:10411000CF93DF938C017B01EA010E9457336B013F
:104120000E946220F80185838F3F51F40E9457332B
:104130006C197D096D32714098F381E1F80103C07B
:104140008E3F39F08FE08383C8010E946E2080E0AB
:1041500025C02097C9F021978FEF8EBDF7012FEF73
:10416000CF018E199F098C179D0738F40DB407FEF7
:10417000FDCF8EB52EBD8193F3CF0DB407FEFDCFDD
:104180008EB5CE0DDF1D8883F80115820E94622056
:104190000E946220C8010E946E2081E0DF91CF91D1
:1041A0001F910F91FF90EF90DF90CF9008950F93A4
:1041B0001F93CF93DF938B010E945733EB010E9433
:1041C00062208F3F49F00E9457336C1B7D0B6017B4
:1041D0007107A8F380E001C081E0DF91CF911F91CA
:1041E0000F910895EF92FF921F93CF93DF9300D02A
:1041F00000D0CDB7DEB77C01162F29833A834B83DD
:104200005C830E94762068E572E0C7010E94D72097
:10421000812F80640E9469208C810E9469208B819B
:104220000E9469208A810E94692089810E946920F8
:10423000112311F087E801C085E90E9469201C3034
:1042400011F40E94622010E00E946220F701858331
:1042500087FF04C01F3F11F01F5FF6CF0F900F9034
:104260000F900F90DF91CF911F91FF90EF900895E5
:104270008F929F92AF92BF92EF92FF920F931F93F4
:10428000CF93DF93EC01E22E1E821B827983688339
:104290004A830E9457338B0161E08A810E94313446
:1042A00061E08A810E946D342A9A229A239A259A83
:1042B00080E48C830E944C202AE0F22E8FEF0E9433
:1042C0006920FA94F110FACF20E030E0A90160E013
:1042D000CE010E94F220813049F00E945733601BCA
:1042E000710B613D774080F381E052C02AEA31E0F2
:1042F00040E050E068E0CE010E94F220853011F4E9
:1043000081E00BC094E0F92E0E9462208D83FA9424
:10431000F110FACF8A3A49F482E08E838E8182309E
:1043200069F0812C912C54010EC00E945733601B00
:10433000710B613D7740D0F282E02AC0812C912C34
:10434000A12C80E4B82E20E030E0A90167E3CE0183
:104350000E94F220A501940169E2CE010E94F220A0
:10436000882349F00E945733601B710B613D7740F1
:1043700050F38AE00DC08E818230E9F420E030E015
:10438000A9016AE3CE010E94F220882339F088E077
:104390008B83CE010E946E2080E012C00E946220BA
:1043A000807C803C11F483E08E830E9462200E9416
:1043B00062200E946220CE010E946E20EC8281E089
:1043C000DF91CF911F910F91FF90EF90BF90AF9031
:1043D0009F908F9008950F931F93CF93DF93EC01DD
:1043E00089018E81833039F089E0440F551F661FA3
:1043F000771F8A95D1F79A01AB0161E1CE010E9446
:10440000F22081110AC040E052E0B801CE01DF91F4
:10441000CF911F910F910C94822084E08B83CE0169
:104420000E946E2080E0DF91CF911F910F9108953F
:104430000F931F93CF93DF938C01862FEA010E9485
:10444000692088818EBD8981FE013296DE5F0DB4C0
:1044500007FEFDCF8EBDEC17FD0711F08191F7CF60
:104460000DB407FEFDCF8FEF0E9469208FEF0E94F1
:1044700069200E946220F8018583982F9F719530F2
:1044800039F083E18383C8010E946E2080E001C07F
:1044900081E0DF91CF911F910F9108950F931F93AA
:1044A000CF93DF93EC0189018E81833039F089E06D
:1044B000440F551F661F771F8A95D1F79A01AB01EC
:1044C00068E1CE010E94F220882319F086E08B83F8
:1044D0000CC0A8016EEFCE010E941822182F88236D
:1044E00021F0CE010E946E2004C0CE010E946E20F9
:1044F00010E0812FDF91CF911F910F910895FC0162
:104500008281806882839F01245F3F4F4485558567
:1045100066857785868197810C94C82D8F929F92AE
:10452000AF92BF92EF92FF920F931F93CF93DF93BF
:10453000EC01888185FF02C000E05FC0888999890D
:10454000AA89BB8981159E4FAF41B105A8F7CE015D
:104550000E947F22082F882379F34C855D856E8524
:104560007F858E819F810E94D72C4B015C018E81BB
:104570009F8125E0B501A40180960E94942C7C01C6
:10458000892BD1F280E092E0F7019C011192215039
:104590003040E1F711E0AE81BF8112969C911297F5
:1045A0001917A0F4ED91FC9111970280F381E02D91
:1045B0009701B501A401410F511D611D711DCD0170
:1045C0000995882309F4B8CF1F5FE5CF492F50E044
:1045D00060E070E089E0440F551F661F771F8A95E1
:1045E000D1F788899989AA89BB89480F591F6A1F01
:1045F0007B1F488B598B6A8B7B8B802FDF91CF91F0
:104600001F910F91FF90EF90BF90AF909F908F9070
:104610000895CF93DF93EC01262F4C895D896E8935
:104620007F898E819F8180960E94942C009761F0F3
:104630002C813D812F70332745E0220F331F4A958F
:10464000E1F7820F931F02C080E090E0DF91CF91ED
:104650000895FC018081811114C080E2DF01982F50
:104660001D929A95E9F777836683DB0115969C91F5
:10467000903119F0903229F480E4808381E08283C4
:10468000089580E008952F923F924F925F926F922B
:104690007F928F929F92AF92BF92CF92DF92EF92D2
:1046A000FF920F931F93CF93DF9300D000D0CDB72D
:1046B000DEB79C838B834B018A01DC018C918823BC
:1046C00009F112969C9190FF1DC027C0D380D4227F
:1046D000A114B10409F09AC0D11098C0892B8A2B7B
:1046E0008B2B09F47CC0AB81BC811C964D915D91F4
:1046F0006D917C911F9729813A81C2010E94F52C0E
:1047000087FF7CC0AB81BC8111968C911197826030
:1047100011968C938FEF9FEFE1C083FF17C0EB8161
:10472000FC81808D918DA28DB38D408951896289E4
:104730007389841B950BA60BB70BA80160E070E092
:10474000481759076A077B07D0F018C085FF17C0C4
:10475000AB81BC811696ED91FC911797868197816C
:1047600055E0880F991F5A95E1F750962D913C918D
:104770005197821B930B8017910708F48C017801E5
:10478000EB81FC813C96FA83E983612C42E0742E34
:10479000E114F10409F466C0EB81FC818089918900
:1047A000A289B3895C01F1E0BF22EB81FC81208109
:1047B00046805780AC01BD0139E0769567955795E5
:1047C00047953A95D1F7F20125FF80CF848D958DDD
:1047D000A68DB78D480F591F6A1F7B1F2BC026FD62
:1047E00002C0EB81FC81848D958DA68DB78DEB8108
:1047F000FC8184879587A687B78708C0811106C08A
:10480000EB81FC818081807769F57CCFAB81BC81B5
:104810001C964D915D916D917C911F9716968D918F
:104820009C9117970E94D72CAB01BC014D0D511DD7
:10483000611D711DEB81FC8186819781A114B104FA
:10484000B1F5E114F2E0FF0690F1DC0193962D90B2
:104850003D904D905C909697421553056405750503
:1048600029F425C0C8018E199F0938C0DC01ED91DB
:10487000FC910190F081E02D94010995882309F4C1
:1048800041CFC12C82E0D82E8C0C9D1CEB81FC8189
:1048900080899189A289B3898C0D9D1DA11DB11DAF
:1048A000808B918BA28BB38BEC18FD0871CF930199
:1048B0002A193B0967012E153F0508F4690120E01C
:1048C00080960E94942C009709F41CCFBC016A0DBD
:1048D0007B1DA601C4010E942035D6CF0F900F90FA
:1048E0000F900F90DF91CF911F910F91FF90EF905C
:1048F000DF90CF90BF90AF909F908F907F906F9000
:104900005F904F903F902F900895FF920F931F93C9
:10491000CF93DF931F92CDB7DEB78C01FC01808966
:104920009189A289B3899C01AD0175E0569547959F
:10493000379527957A95D1F7F22FFF70FF2E11F05A
:10494000611116C041E050E0BE016F5F7F4FC801AA
:104950000E944323813019F080E090E01AC0F801F2
:1049600080899189A289B3894F96A11DB11D04C088
:104970008096A11DB11DF801808B918BA28BB38B0A
:10498000F801868197818796F0E2FF9E800D911D48
:1049900011240F90DF91CF911F910F91FF900895F7
:1049A0004F925F926F927F928F929F92AF92BF923F
:1049B000CF92DF92EF92FF920F931F93CF93DF93EB
:1049C000EC014A015B014C845D846E847F84A88184
:1049D000AA2309F48CC0411551056105710529F41C
:1049E0001C861D861E861F867CC0A3FF0BC0488DBB
:1049F000598D6A8D7B8D481559056A057B0508F42C
:104A000076C014C0A5FF12C0EE81FF818681978118
:104A100025E0880F991F2A95E1F7A0E0B0E0841700
:104A20009507A607B70708F462C05BC04889598993
:104A30006A897B89EE81FF81848190E009968A01F1
:104A40009B010150110921093109082E04C0369536
:104A50002795179507950A94D2F775016401B1E07F
:104A6000CB1AD108E108F10804C0F694E794D79472
:104A7000C7948A95D2F7C016D106E206F30620F055
:104A8000452B462B472B81F4A6FF05C0848D958DC1
:104A9000A68DB78D04C08C8D9D8DAE8DBF8D8C87FE
:104AA0009D87AE87BF8704C0C01AD10AE20AF30A05
:104AB0008E01045F1F4FC114D104E104F10489F099
:104AC0004C855D856E857F8598018E819F810E94D2
:104AD000F52C91E0C91AD108E108F10818165CF329
:104AE00006C0888A998AAA8ABB8A81E005C04C865A
:104AF0005D866E867F8680E0DF91CF911F910F915A
:104B0000FF90EF90DF90CF90BF90AF909F908F90ED
:104B10007F906F905F904F9008958F929F92AF9289
:104B2000BF92FF920F931F93CF93DF93EC01F22E6E
:104B300080E2DE011D928A95E9F7FB01868197816B
:104B40009F838E835D834C83848C958CA68CB78CDD
:104B500088869986AA86BB86FA01EF70FF27DC015A
:104B6000979635E0EE0FFF1F3A95E1F7AD014E0F36
:104B70005F1FDA011B962C9123FF03C0188280E08F
:104B800063C09C012E0F3F1FD901D2962C91277133
:104B90002883DA011B963C91387111F42860288330
:104BA0000B832F2D227319F02881217139F72F2DB6
:104BB0002F702A83DC0193964D915D916D917C91CC
:104BC00096974C8B5D8B6E8B7F8BE80FF91F43ADF7
:104BD00054AD60E070E0BA0155274427DF01AF5BB8
:104BE000BF4F0D911C9120E030E0402B512B622BE8
:104BF000732BF4FE0AC04115510561057105F9F0EA
:104C00000E946A2E81111BC0B9CF4C8F5D8F6E8FB1
:104C10007F8FED5BFF4F80819181A281B381888F6F
:104C2000998FAA8FBB8FF5FE0EC0488D598D6A8D66
:104C30007B8DCE010E94D024811105C09FCF8A8137
:104C400080688A83F0CF81E0DF91CF911F910F912F
:104C5000FF90BF90AF909F908F9008950F931F93F8
:104C6000CF93DF93FC012081211102C081E044C079
:104C7000EC01828187FF38C061E0CF010E940923E7
:104C80008C01009729F489818160898380E034C098
:104C9000FC018081853EB9F3888183FF08C0888D3F
:104CA000998DAA8DBB8D848F958FA68FB78F8C8D94
:104CB0009D8DAE8DBF8DF801938F828FB58BA48BA8
:104CC000E0914B05F0914C05309759F0B8016A5EC0
:104CD0007F4FC80148960995F801808D918D938B7F
:104CE000828B8A818F778A838E819F8180960E94B2
:104CF000402C882341F2BACFDF91CF911F910F91C1
:104D00000895CF93DF93EC010E942E261882DF9145
:104D1000CF910895CF92DF92EF92FF920F931F935E
:104D2000CF93DF93CDB7DEB7E3970FB6F894DEBF2E
:104D30000FBECDBF7C018B015BAB4AABD22E19827B
:104D40001A82FC018081882311F080E059C0FB01A8
:104D500080818077D1F3EAA9FBA980818F32D9F4D1
:104D6000EAA9FBA980818F3221F43196FBABEAAB33
:104D7000F7CFF80166817781811104C0C7010E94D5
:104D800029233EC0CE0101960E9429238823E9F2FF
:104D90008E010F5F1F4F80E2C82EAE014E5C5F4F49
:104DA000BE016F5D7F4F8AA99BA90E94D82A8823E4
:104DB00061F2EAA9FBA980818823D1F021E0AE014C
:104DC0004F5D5F4FB801C7010E94442B882309F44F
:104DD000BCCFF701DE0111968C2D01900D928A95C2
:104DE000E1F7C7010E9481268E010F5F1F4FD5CFCB
:104DF0002D2DAE014F5D5F4FB801C7010E94442BBE
:104E0000E3960FB6F894DEBF0FBECDBFDF91CF9112
:104E10001F910F91FF90EF90DF90CF900895CF9367
:104E2000DF93CDB7DEB7A0970FB6F894DEBF0FBE05
:104E3000CDBFAB0119821A8222E0BC01CE010196DE
:104E40000E948A26882321F0CE0101960E94102C10
:104E5000A0960FB6F894DEBF0FBECDBFDF91CF9105
:104E60000895AF92BF92CF92DF92EF92FF920F938D
:104E70001F93CF93DF93CDB7DEB7A0970FB6F8940B
:104E8000DEBF0FBECDBF8C01FB019081907709F48E
:104E900093C07B0123ECC8010E94442B882309F4B2
:104EA0008BC081E0F801828380E1D82ED082C801D6
:104EB0000E948E22882309F47FC0F801848595859D
:104EC000A685B785848F958FA68FB78F40E050E079
:104ED000BA01C8010E94D024C8010E942E2688234E
:104EE00009F46AC061E0C8010E940923009709F42F
:104EF00063C0FC01D38620E2DE01119601900D9281
:104F00002A95E1F7FC01C488D588A28CB38C8EE287
:104F10008983FE013296CE010C9620E22193E81798
:104F2000F907E1F7F801448D558D668D778D8681FF
:104F300097810E94D72CAB01BC01F8018681978133
:104F400021E080960E94942C0097B1F1DE8ACD8AF0
:104F5000BC8EAB8E20E2FE013196DC0101900D92F9
:104F60002A95E1F72EE22A83F701448D558D668D4F
:104F7000778D7E8B6D8B5C8F4B8F20E2FE0131969F
:104F8000DC01909601900D922A95E1F7F801868157
:104F900097818096A0960FB6F894DEBF0FBECDBF66
:104FA000DF91CF911F910F91FF90EF90DF90CF9005
:104FB000BF90AF900C94402C80E0A0960FB6F89470
:104FC000DEBF0FBECDBFDF91CF911F910F91FF903C
:104FD000EF90DF90CF90BF90AF900895BF92CF92A7
:104FE000DF92EF92FF920F931F93CF93DF93CDB792
:104FF000DEB7E3970FB6F894DEBF0FBECDBF7C01DE
:105000008B015BAB4AABC22E19821A82FC018081F4
:10501000882311F0D12C5EC0FB0180818077D1F311
:10502000EAA9FBA980818F32A9F4EAA9FBA98081B2
:105030008F3221F43196FBABEAABF7CFF8016681F2
:105040007781CE0101960E942923882319F38E01CE
:105050000F5F1F4F80E2B82EAE014E5C5F4FBE0166
:105060006F5D7F4F8AA99BA90E94D82A882391F25D
:10507000EAA9FBA98081882329F121E0AE014F5DD7
:105080005F4FB801C7010E94442BD82E81110BC07D
:10509000CC2001F1AE014F5D5F4FB801C7010E9406
:1050A00031278823B9F0F701DE0111968B2D01908D
:1050B0000D928A95E1F7C7010E9481268E010F5F4C
:1050C0001F4FCACFAE014F5D5F4FB801C7010E94AD
:1050D0003127D82E8D2DE3960FB6F894DEBF0FBE84
:1050E000CDBFDF91CF911F910F91FF90EF90DF9097
:1050F000CF90BF900895CF92DF92EF92FF920F93DF
:105100001F93CF93DF93CDB7DEB7C256D1090FB649
:10511000F894DEBF0FBECDBFFC0119A21AA21982FE
:105120001A828081887111F480E0EFC0838181113F
:10513000FBCF26813781DB0116968D919C911797C5
:105140002817390789F77B018F01CF01A2964FAF4E
:10515000A297A3965FAFA3970E942E2680E2F80144
:10516000DE01119601900D928A95E1F760E0C80189
:105170000E940923FC01A2964FADA297A3965FADB2
:10518000A397892B89F290E2DE01AF5BBF4F0190BC
:105190000D929A95E1F7F801808183FF0DC022EC12
:1051A000B701CE0181960E948A26882309F4BCCFDC
:1051B000C12CD12C76010FC020E0B701CE01819621
:1051C0000E94EE27882309F4AFCF2196CCACDDAC4A
:1051D000EEACFFAC21978DA99EA9AFA9B8ADF8019F
:1051E000848B958BA68BB78B8DA19EA19583848391
:1051F0008CA1838389A59AA5ABA5BCA5808791873F
:10520000A287B38719A261E0C8010E940923009711
:1052100009F48ACFDC011D96E1E4F0E0EC0FFD1FFC
:105220003D9623E101900D922A95E1F72D962FAD41
:105230002D97DC011B962C93C114D104E104F104D9
:1052400009F44CC0B701A601F801868197810E943C
:10525000D72CAB01BC01D80116968D919C91179764
:1052600020E080960E94942CFC01892B09F45CCFED
:1052700090E2B096DE01AF5BBF4F01900D929A9520
:10528000E1F7B701A601F801868197810E946A2E95
:10529000882309F449CFD8015C964D915D916D91B9
:1052A0007C915F9716968D919C9117970E94D72CB1
:1052B000AB01BC01F8018681978121E080960E94B4
:1052C000942CDC01892B09F42FCF90E2FE01EF5BD7
:1052D000FF4F909601900D929A95E1F71D8E1E8ECC
:1052E0001F8E18A282E08B8388E08983CE0101960D
:1052F0000E94102C882309F417CFD80116968D919F
:105300009C91179780960E94402CCE59DF4F0FB684
:10531000F894DEBF0FBECDBFDF91CF911F910F91EB
:10532000FF90EF90DF90CF9008952F923F924F9291
:105330005F926F927F928F929F92AF92BF92CF9225
:10534000DF92EF92FF920F931F93CF93DF93EC01C5
:105350005B014A01888183FF0EC08A8181FF0BC0F7
:1053600082FF0FC0488D598D6A8D7B8DCE010E94C2
:10537000D024811106C08981816089838FEF9FEFDE
:1053800004C1A40160E070E088899989AA89BB8979
:1053900080959095A095B09584179507A607B707B7
:1053A00050F364011E018CE0280E311C0889198914
:1053B0002A893B89C114D10409F4C5C08E819F811B
:1053C000B901A80129E076956795579547952A95E3
:1053D000D1F7DC011396FC90F4221170F11034C067
:1053E0000115110589F54C855D856E857F85411513
:1053F00051056105710569F091010E94F52C87FD49
:10540000BACF811121C0CE010E947F2281111CC020
:10541000B2CF8C8D9D8DAE8DBF8D0097A105B1054E
:1054200079F4CE010E947F22882309F4A4CF8C85D1
:105430009D85AE85BF858C8F9D8FAE8FBF8F04C03D
:105440008C879D87AE87BF874C855D856E857F8500
:105450008E819F810E94D72CAB01BC014F0D511D45
:10546000611D711DEE81FF810115110521F4C1142B
:10547000B2E0DB06B0F580E092E0801B910B760194
:105480008C159D0508F47C010115110579F44888F7
:1054900059886A887B88888D998DAA8DBB8D48161E
:1054A00059066A067B0610F025E001C021E0CF0115
:1054B00080960E94942C009709F45DCFA701B50156
:1054C000800F911F0E9420350E0D1F1D01151240E7
:1054D00049F58E819F8180960E94402C811122C0C7
:1054E0004ACF83A194A1A5A1B6A184179507A607C9
:1054F000B70741F410A28FEF9FEFDC0183A394A3C1
:10550000A5A3B6A38E819F81DC01ED91FC91028061
:10551000F381E02D95010995882309F42CCFE12C26
:1055200082E0F82E88899989AA89BB898E0D9F1DF2
:10553000A11DB11D888B998BAA8BBB8BAE0CBF1C98
:10554000CE18DF0833CF488D598D6A8D7B8D8A81C7
:10555000401751076207730728F4088F198F2A8FA5
:105560003B8F06C020914B0530914C05232B11F049
:1055700080688A838A8183FD02C0C40106C0CE018F
:105580000E942E268111F9CFF6CEDF91CF911F9187
:105590000F91FF90EF90DF90CF90BF90AF909F90D2
:1055A0008F907F906F905F904F903F902F900895D5
:1055B0000F931F93CF938A01FB0136969B012F5EB9
:1055C0003F4F40E24193E217F307E1F7DC01C7E008
:1055D00030E058E090E020E0FD01119680818823C2
:1055E000C9F18F32B9F18E3219F4C73039F42DC0B8
:1055F000823209F444C08C3709F441C046ED480FAB
:10560000463010F48D32D9F546EC480F4630B8F1EB
:1056100045EA480F433098F14FED480F4E3578F585
:10562000C31768F14FE9480F4A3118F48052952B9F
:1056300005C04FEB480F4A3108F4252B41E0430FDA
:10564000FB01E30FF11D868303C0CAE048E050E18F
:10565000342FC2CFDB0116968C91803281F0292342
:1056600009F090E0DB019C93CF01FC0101962081C1
:105670002F32D9F3D801ED93FC9381E001C080E093
:10568000CF911F910F9108955F926F927F928F92A9
:105690009F92AF92BF92CF92DF92EF92FF920F93C1
:1056A0001F93CF93DF934C017B015A01122F40E0EF
:1056B00050E0BA01C7010E94D024C0E0D0E000E071
:1056C000512CC12CD12C350186E0680E711C61E093
:1056D000C7010E948524BC01009739F4D7011196B7
:1056E0008C91882351F180E08BC0FC01908199233B
:1056F00011F1953EB1F0838583FD0CC04BE050E085
:10570000C3010E941335892B81F417FDECCF212FA3
:10571000AE0172C08F3049F496FF08C0092F0F7197
:1057200005C000E05524539401C000E021965110BB
:10573000CECF6E01CCCF55245394812F8274823406
:1057400091F6511006C0C7010E948E22882359F29B
:105750006E01A60160E070E085E0440F551F661FF2
:10576000771F8A95D1F7C7010E94D024882309F4B6
:10577000BACF60E0C7010E948524EC01892B09F4AF
:10578000B2CF80E2DE011D928A95E9F7F5013696E7
:105790008BE0DE0101900D928A95E1F7F5018081A1
:1057A00088718C87E0914B05F0914C05309739F06A
:1057B000BE01625F7F4FCE014096099508C081E22D
:1057C00098E2998B888B80E098E09F878E87888904
:1057D00099899B8B8A8B998F888F8E859F859F8BCC
:1057E0008E8BD7011696ED91FC91179780A1816061
:1057F00080A300E0212FA601B701C4010E948D25DE
:10580000DF91CF911F910F91FF90EF90DF90CF909C
:10581000BF90AF909F908F907F906F905F90089512
:10582000CF93DF93EC01888183FF26C08B818111A8
:1058300023C08A8181FF20C04C8D5D8D6E8D7F8D50
:10584000411551056105710531F08E819F810E94DE
:105850006A2E882389F061E0CE010E940923009717
:1058600059F025EEFC01208318828E819F8180965D
:10587000DF91CF910C94402C80E0DF91CF9108957F
:105880008F929F92AF92BF92EF92FF921F93CF930E
:10589000DF93DC012C9120FF3BC0EC0189819A81D0
:1058A0007D01B7E0EB0EF11CDC01ED91FC914B8129
:1058B0005C816D817E810280F381E02D97010995E5
:1058C000182F811102C010E024C0888181FD04C01E
:1058D00088818E7F88831DC0A981BA81ED91FC915A
:1058E00011971C968D909D90AD90BC901F974B8109
:1058F0005C816D817E81480D591D6A1D7B1D028072
:10590000F381E02D9701CD0109958111E1CFDBCF26
:1059100011E0812FDF91CF911F91FF90EF90BF9009
:10592000AF909F908F900895CF92DF92EF92FF9269
:105930001F93CF93DF93EC016A017B01122F8B81C0
:105940009C81AD81BE8184179507A607B70709F131
:10595000CE010E94402C811103C080E090E01FC066
:1059600012FF06C01882CB82DC82ED82FE8211C05B
:1059700089819A81DC01ED91FC910190F081E02D0B
:105980009E01295F3F4FB701A60109958111EACF1A
:10599000E4CF13708881182B1883CE010796DF910E
:1059A000CF911F91FF90EF90DF90CF9008950F93CC
:1059B0001F934250510961097109FC01048004C020
:1059C000440F551F661F771F0A94D2F7808991896B
:1059D000A289B3898A019B01080F191F2A1F3B1F47
:1059E000C901B8011F910F910895CF92DF92EF92F4
:1059F000FF920F931F93CF93DF93EC016A017B011A
:105A000089018D81803251F58C899D89AE89BF894C
:105A1000E7E07695679557954795EA95D1F7480F52
:105A2000591F6A1F7B1F22E0CE0180960E94942C92
:105A3000009711F48FEF40C0E894C7F8DD24EE24FE
:105A4000FF24CC0CDD1CCC0CDD1CFC01EC0DFD1D81
:105A500080819181A281B381BF701DC0803151F7D7
:105A60004C895D896E897F894D0D511D611D711DA8
:105A700022E0CE0180960E94942C0097D9F2DD247A
:105A8000EE24FF24CC0CDD1CFC01EC0DFD1D8081FF
:105A90009181A0E0B0E0488D598D6A8D7B8D4817CB
:105AA00059076A077B0738F0F80180839183A28346
:105AB000B38381E001C080E0DF91CF911F910F910E
:105AC000FF90EF90DF90CF9008958F929F92AF92CA
:105AD000BF92CF92DF92EF92FF920F931F936A01D2
